:100000000C9417050C943F050C943F050C943F0588
:100010000C943F050C943F050C943F050C943F0550
:100020000C943F050C943F050C943F050C943F0540
:100030000C943F050C943F050C943F050C943F0530
:100040000C943F050C943F050C943F050C943F0520
:100050000C943F050C943F050C943F050C943F0510
:100060000C943F050C943F050101010101000000C3
:100070000000000000000000000000000000000080
:10008000000000000000000000000001000000006F
:10009000000000000000000101000001010100005B
:1000A0000000000000000000000000000000000050
:1000B000000000000000000000000000000101003E
:1000C000000000000000000001010000010001002C
:1000D000010000000000000000000000000000001F
:1000E000000000000000000000000000000000010F
:1000F00000010000000000000001000000000000FE
:1001000001000000000000000000000000000000EE
:1001100000000000000000000000000000000000DF
:1001200000010000010000000001000000000000CC
:1001300001010001010000000000000000000000BB
:1001400000000000000000000000000000000000AF
:10015000000000010000000101010100000000009A
:10016000000000010001000000000000000000008D
:10017000000000000000000000000000000000007F
:10018000000000000100000000000001000100006C
:10019000000000000100000001000000000000005D
:1001A000000000000000000000000000000000004F
:1001B000000000000001000000000001010100003B
:1001C000000000000000000000000000000000002F
:1001D000000000000000000000000000000000001F
:1001E000000000000000010101010000010000000A
:1001F00000000000000000000000000000000000FF
:1002000000000000000000000000000000000000EE
:1002100000000000000000010100000001010000DA
:1002200000000000000000000000000000000000CE
:1002300000000000000000000000000000000000BE
:1002400000000000000000000000010100000000AC
:10025000000000000000000000000000000000009E
:10026000000000000000000000000000000000008E
:10027000000000000000000000000000010000007D
:10028000000000000000000000000000000000006E
:10029000000000000000000000000000000000005E
:1002A000000000000000000000000000000001014C
:1002B000010000000000000000000000000000003D
:1002C000000000000000000000000000000000002E
:1002D000000000000000000000000000000000001E
:1002E000010001000000000000000000000000000C
:1002F00000000000000000000000000000000000FE
:1003000000000000000000000000000000000000ED
:1003100000000100000100000000000000000000DB
:1003200000000000000000000000000000000000CD
:1003300000000000000000000000000000000000BD
:1003400000000001000000010000000000000000AB
:10035000000000000000000000000000000000009D
:10036000000000000000000000000000000000008D
:10037000000000000000010000010000000000007B
:10038000000000000000000000000000000000006D
:10039000000000000000000000000000000000005D
:1003A000000000000000000001000001000000004B
:1003B000000000000000000000000000000000003D
:1003C000000000000000000000000000000000002D
:1003D000000000000000000000010000010000001B
:1003E000000000000000000000000000000000000D
:1003F00000000000000000000000000000000000FD
:1004000000000000000000000000000100010000EA
:1004100000000000000000000000000000000000DC
:1004200000000000000000000000000000000000CC
:1004300000000000000000000000010101000001B8
:1004400000000000000000000000000000000000AC
:10045000000000000000000000000000000000009C
:10046000000000000000000000000100000100008A
:10047000000100000000000000000000000000007B
:10048000000000000000000000000000000000006C
:100490000000000000000000000000010001010059
:1004A000000000010000000000000000000000004B
:1004B000000000000000000000000000000000003C
:1004C000000000000000000000000000000101002A
:1004D000000000000100000000000000000000001B
:1004E000000000000000000000000000000000000C
:1004F00000000000000000000100000000000100FA
:1005000000000000000001000000000000000000EA
:1005100000000000000000000000000000000000DB
:1005200000000000000000000000000000000100CA
:1005300001000000000000010001000000000000B8
:1005400000000000000000000000000000000000AB
:100550000000000000000000000000010101010196
:100560000000000000000000010001000000000089
:10057000000000000000000000000000000000007B
:10058000000000000000000000000000010000006A
:100590000001010000000101010100000000000055
:1005A000000000000000000000000000000000004B
:1005B0000000000000000000000100000101000038
:1005C0000100010000010001000000000100000026
:1005D000000000000000000000000000000000001B
:1005E000000000000000000000000000000001000A
:1005F00001000000010101000100000000000000F6
:1006000000000000000000000000000000000000EA
:1006100000000000000000000000000000000101D8
:1006200000010001000101000001000000000000C5
:1006300000000000000000000000000000000000BA
:1006400000000000000000000000000000000000AA
:100650000100000001010100000000000000000096
:100660000000000100000000000000000000000089
:10067000000000000000000000000000000000007A
:100680000100010000010000000000000000000067
:10069000000000000000000000000000000000005A
:1006A000000000000000000000000000000000004A
:1006B0000000000000010001000000000000000038
:1006C000000000000000000000000000000000002A
:1006D000000000000000000000000000000000001A
:1006E0000000000000000001000100000000000008
:1006F00000000000000000000000000000000000FA
:1007000000000000000000000000000000000000E9
:1007100000000000000000000001010000000000D7
:1007200000000000000000000000000000000000C9
:1007300000000000000000000000000000000000B9
:1007400000000000000000000000010100000000A7
:100750000000000000000000000000000000000099
:100760000000000000000000000000000000000089
:100770000000000000000000000000000001010077
:100780000000000000000000000000000000000069
:100790000000000000000000000000000000000059
:1007A0000000000000000000000000000000010048
:1007B0000000000000000000000000000000000039
:1007C0000000000000000000000000000000000029
:1007D0000000000000000000000000000000000019
:1007E0000000000000000000000000000000000009
:1007F00000000000000000000000000000000000F9
:1008000000000000000000000000000000000000E8
:1008100000000000000000000000000000000000D8
:1008200000000000000000000000000000000000C8
:1008300000000000000000000000000000000000B8
:1008400000000000000000000000000000000000A8
:100850000000000000000000000000000000000098
:100860000000000000000000000000000000000088
:100870000000000000010000000000000000000077
:100880000000000000000000000000000000000068
:100890000000000000000000000000000000000058
:1008A0000000000000000000000000000000000048
:1008B0000000000000000000000000000000000038
:1008C0000000000000000000000000000000000028
:1008D0000000000000000000000000000000000018
:1008E0000000000000000000000000000000000008
:1008F00000000000000000000000000000000000F8
:1009000000000000000000010001000000000000E5
:1009100000000000000000000000000000000000D7
:1009200001010100010101000101000000010100BD
:1009300000000000000000000001010000000000B5
:1009400000000000000000000000000000000000A7
:100950000000010001000100010001000100010090
:100960000100000000000000000000000000000086
:100970000000000000000000000000000000000077
:100980000000000001000101010001000100000160
:100990000000010000000000000000000000000056
:1009A0000000000000000000000000000000000047
:1009B0000000000000000100000000000100010034
:1009C0000100010001000000000001010000000022
:1009D0000000000000000000000000000000000017
:1009E0000000000000000000010001010100010101
:1009F00001000101010001010100010100000000EE
:100A000000000000000000000000000000000000E6
:100A100000000000000000000000010001000100D3
:100A20000100010001000100010001001E16112457
:100A30001FBECFEFD8E0DEBFCDBF11E0A0E0B1E038
:100A4000EEE7F2E302C005900D92A03AB107D9F7A4
:100A500014E0A0EAB1E001C01D92A033B107E1F7B4
:100A60001AE0CEE2DAE004C02297FE010E94681785
:100A7000CC32D107C9F70E94EB130C943D190C94AA
:100A800000008F3F2FEF9207C1F061157105B9F09B
:100A90006130710599F4883091059CF180319105A0
:100AA000D4F1883191054CF42AB14097082E01C049
:100AB000660F0A94EAF7262B2AB90895089588301C
:100AC00091059CF08031910584F188319105ACF756
:100AD0004AB1409721E030E0082E01C0220F0A946D
:100AE000EAF7209524232AB9089594B121E030E053
:100AF000082E01C0220F0A94EAF72095292324B971
:100B0000089524B1AB0102C0440F551F8A95E2F746
:100B1000242B24B9089527B10897082E01C0660F29
:100B20000A94EAF7262B27B9089547B1089721E0E0
:100B300030E0082E01C0220F0A94EAF72095242302
:100B400027B908958F3F2FEF9207E1F08830910584
:100B5000D4F08031910554F1883191059CF44BB16A
:100B6000409721E030E0082E01C0220F0A94EAF7F6
:100B700020952423AB0102C0440F551F8A95E2F74C
:100B8000242B2BB9089595B121E030E0082E01C047
:100B9000220F0A94EAF720952923AB0102C0440FE3
:100BA000551F8A95E2F7242B25B9089548B1089777
:100BB00021E030E0082E01C0220F0A94EAF72095C8
:100BC0002423AB0102C0440F551F8A95E2F7242B62
:100BD00028B908958F3F4FEF940701F188309105B0
:100BE00094F080319105F4F088319105ACF42BB18B
:100BF00030E0409702C0359527958A95E2F721703D
:100C00003327C901089525B130E002C035952795F5
:100C10008A95E2F721703327C901089520E030E07A
:100C2000C901089528B130E0089702C0359527958D
:100C30008A95E2F721703327C90108958F3F4FEF5E
:100C4000940701F18830910594F080319105F4F01A
:100C500088319105ACF429B130E0409702C0359558
:100C600027958A95E2F721703327C901089523B1AA
:100C700030E002C0359527958A95E2F72170332739
:100C8000C901089520E030E0C901089526B130E09F
:100C9000089702C0359527958A95E2F7217033278A
:100CA000C9010895181619066CF420E030E0E9EF48
:100CB000F0E03197F1F700C000002F5F3F4F281799
:100CC0003907A9F7089520E030E04AE754E40E948C
:100CD000BB180E9439181616170664F480E090E0DD
:100CE000E9EFF0E03197F1F700C0000001968617B8
:100CF0009707B1F708951816190644F420E030E07C
:100D000000002F5F3F4F28173907D1F70895AF92A2
:100D1000BF92CF92DF92EF92FF920F931F93CF93E8
:100D2000DF936B017C0169EE76E286E392E40E9438
:100D30006C172CE934EC40EE5EE30E94D1170E9460
:100D40003918EB012397C00FD11F82E38C9F8001DC
:100D50008D9F100D112422EB3DED45EF52E4C701AC
:100D6000B6010E946C1729E739EE46E05FE30E9466
:100D7000D1170E9439186250710924E030E080E0F8
:100D800090E008591F4F6233710598F4C233D105C2
:100D900080F4F801E60FF71FE491E0FBAA24A0F825
:100DA000B12C022E02C0AA0CBB1C0A94E2F78A29BD
:100DB0009B29215031096F5F7F4F2F3F4FEF340741
:100DC00011F7DF91CF911F910F91FF90EF90DF907E
:100DD000CF90BF90AF90089505C090E19A95F1F73C
:100DE00000C081508111F9CF0895882351F094E11A
:100DF00020E12A95F1F700C09150D1F78150B9F761
:100E000008950895259A2498239A229A2A9A81E58A
:100E10008CBD81E08DBD08951CBC08958EBD0DB4C0
:100E200007FEFDCF08951816190674F44FEF3FEF33
:100E30003EBD0DB407FEFDCF2EB5421303C0019792
:100E40000097B1F78EB50895919581959109D1F3E9
:100E500040E03FEFEDCFFC016F5F7F4F16161706A6
:100E60000CF520E030E0CF016130710519F00196FA
:100E70004081242B48E004C0220F331F415041F031
:100E800037FFFACF59E83527220F331F4150C1F7FA
:100E9000615071096115710511F0FC01E4CF832FD8
:100EA0008695089580E00895CF93DF93FC01EB01D0
:100EB000DB0112961A161B0654F520E030E040E0E4
:100EC00050E0BA01CF012C173D071CF40196E081D8
:100ED0004E2BE8E0440F551F661F771F70FF06C0BA
:100EE000F1E25F27F0E16F27F1E07F27E15091F712
:100EF0002F5F3F4F2A173B0714F4FC01E3CF452F28
:100F0000562F672F7727CA01DF91CF91089580E090
:100F100090E0FACFCF93DF9300D000D000D0CDB7D0
:100F2000DEB78F73806489837A836B835C834D83A0
:100F300065E070E0CE0101960E942B07880F81606A
:100F40008E8363E09E01295F3F4F5FEF5EBD0DB46E
:100F500007FEFDCFFE01319681918EBD0DB407FED7
:100F6000FDCFE217F307C1F78AE090E05EBD0DB454
:100F700007FEFDCF4EB54F3F19F401970097B1F72B
:100F80008EB5982F9E7F11F0615001F726960FB60F
:100F9000F894DEBF0FBECDBFDF91CF9108951F93B0
:100FA000CF93DF930E9402078AE090E02FEF2EBDDF
:100FB0000DB407FEFDCF01970097C9F72A9840E0CE
:100FC00050E0BA0180E00E948A078FEF8EBD0DB419
:100FD00007FEFDCF2A9AC4E6D0E01FEF2A9840E032
:100FE00050E0BA0187E30E948A0740E050E0BA016E
:100FF00089E20E948A071EBD0DB407FEFDCF2A9A22
:1010000080FF11C02AE094E130E13A95F1F700C089
:101010009150D1F72150B9F721972097F9F6DF9138
:10102000CF911F9108958111FACF2A9841E050E0A5
:1010300060E070E08BE30E948A079FEF9EBD0DB4D5
:1010400007FEFDCF2A9ADF91CF911F9108951CBC16
:1010500008959F92AF92BF92CF92DF92EF92FF924C
:101060000F931F93CF93DF936B017C018A0189E07B
:10107000CC0CDD1CEE1CFF1C8A95D1F793E0A92E49
:10108000BB24BA942A98B701A60181E10E948A077D
:10109000982E811114C020E137E2BEBC0DB407FECA
:1010A000FDCF8EB58F3F29F421503109211531052F
:1010B000A1F78EB58E3F31F1882309F1982EBEBC81
:1010C0000DB407FEFDCF2A9A91100AC060E072E0CD
:1010D000C8010E945407C817D90721F0A8E09A2E2A
:1010E000AA9481F6892DDF91CF911F910F91FF90E6
:1010F000EF90DF90CF90BF90AF909F90089599248C
:101100009A94DDCFF80122E032E061E072E0BEBCEB
:101110000DB407FEFDCF8EB58EB52330310564F0DA
:10112000DF01119680836115710549F261507109E3
:1011300021503109FD01EBCF2230310519F0C82BC8
:10114000DF01F1CFC82FD0E0DC2FCC27DF01EECFBD
:101150008F929F92AF92BF92CF92DF92EF92FF92C7
:101160000F931F93CF93DF931F92CDB7DEB76B0121
:101170007C018A0160E072E0CA010E945407B82E27
:1011800029E0CC0CDD1CEE1CFF1C2A95D1F733E0C6
:10119000832E4EEFA42E99249A942A98B701A60183
:1011A00088E199830E948A07998181113BC0AEBC76
:1011B0000DB407FEFDCFF80122E032E02330310507
:1011C0000CF448C0608131966EBD0DB407FEFDCFB2
:1011D000215031092115310589F72AE030E09EBC04
:1011E0000DB407FEFDCF4EB54F3F29F42150310914
:1011F00021153105A1F72EB5322F3F71353079F524
:1012000020E137E29EBC0DB407FEFDCF6EB5611143
:1012100005C02150310921153105A1F72EB5222332
:1012200009F4BCCF9EBC0DB407FEFDCF2A9A8823DB
:1012300019F08A9409F0B1CF0F90DF91CF911F91EF
:101240000F91FF90EF90DF90CF90BF90AF909F9065
:101250008F9008952230310521F06B2DB5CF822F6C
:10126000E1CF692FB1CFAF92BF92CF92DF92EF92D1
:10127000FF920F931F93CF93DF93CDB7DEB76097A5
:101280000FB6F894DEBF0FBECDBF8C01C62E83E033
:10129000A82EBB24BA942A9840E050E0BA0189E015
:1012A0000E948A07D82E811114C020E137E2BEBC0B
:1012B0000DB407FEFDCF8EB58F3F29F421503109C3
:1012C00021153105A1F78EB58E3F61F1882339F1E3
:1012D000D82EBEBC0DB407FEFDCF2A9AD1100BC08C
:1012E00060E170E0CE0101960E945407E816F9060D
:1012F000C1F158E0D52EAA9471F68D2D60960FB6E7
:10130000F894DEBF0FBECDBFDF91CF911F910F913B
:10131000FF90EF90DF90CF90BF90AF900895DD24C5
:10132000DA94D7CF22E130E041E150E0FE0131967E
:10133000BEBC0DB407FEFDCF8EB58EB52330310592
:1013400054F0808331964115510519F241505109ED
:1013500021503109EDCF2230310509F445C0E82A8A
:10136000F2CFC110CACF498550E0042E452F000CA2
:10137000441F550B000C441F551F888590E0880FB3
:10138000991F880F991F482B592B8F81837090E0EC
:10139000982F8827990F990F482B592B4F5F5F4F34
:1013A000662757FD6095762F2A85237030E0220F3F
:1013B000331F8B8590E0880F892F881F990B282B6E
:1013C000392B2E5F3F4F8E818F70280F311D04C047
:1013D000440F551F661F771F2A95D2F7F8014083E7
:1013E00051836283738389CFE82EF12CFE2CEE2487
:1013F000ADCFCF93C82F9091660197FD07C088E1CC
:1014000080930A0280E090E0CF9108950E94CF0778
:10141000882331F08F3FA9F085E080930A02F2CF54
:1014200040E352E060E070E0CB010E9429088111A6
:10143000F3CF80912E04853541F083E180930A0239
:10144000E1CF81E080930A02DDCF80912F048A3AB8
:10145000A1F7809130028B3EC9F180E1C802F00112
:101460001124E251FC4F8481811104C082E08093F9
:101470000A02C8CF8093690180859185A285B385D2
:1014800080936A0190936B01A0936C01B0936D01FE
:1014900084859585A685B78580936E0190936F01AD
:1014A000A0937001B09371018FEF9FEFDC018093E7
:1014B000720190937301A0937401B093750110921F
:1014C00067011092660186E691E09ECF8FEF8093D0
:1014D000690110926A0110926B0110926C011092D6
:1014E0006D0180E090E0A0E4B0E080936E01909305
:1014F0006F01A0937001B0937101D6CF0F931F932A
:10150000CF93DF93EC018981811109C01CBC8FEF5F
:10151000888380E0DF91CF911F910F9108956C85B2
:101520007D858E859F850C811D812E813F81600F79
:10153000711F821F931F40E352E00E94A808882376
:1015400029F385E080930A028FEFE4CFCF92DF92F8
:10155000EF92FF920F931F93CF93DF93EC016A01F9
:101560007B010C851D852E853F85041715072607F1
:10157000370779F1898181111CC06C817D818E8151
:101580009F816C0D7D1D8E1D9F1D40E352E00E94CA
:101590002908811120C0CC86DD86EE86FF8680E09A
:1015A000DF91CF911F910F91FF90EF90DF90CF903F
:1015B00008956C817D818E819F81600F711F821FD4
:1015C000931F40E352E00E94A808811104C01982D1
:1015D000D4CF80E0E5CF85E080930A028FEFE0CFA3
:1015E000CF92DF92EF92FF920F931F93CF93DF93EF
:1015F000EC016A017B010C851D852E853F85041752
:1016000015072607370739F08981811110C0CC866C
:10161000DD86EE86FF8681E0898380E0DF91CF91D1
:101620001F910F91FF90EF90DF90CF9008956C8104
:101630007D818E819F81600F711F821F931F40E308
:1016400052E00E94A808882311F385E080930A02E3
:101650008FEFE4CF8F929F92AF92BF92CF92DF92A3
:10166000EF92FF920F931F93CF93DF93EC014B0107
:101670005A018A898C3009F44EC0C72EDD248B01B3
:10168000000F111F1170EE24D7FCE094FE2C89810D
:101690009A81AB81BC81C80ED91EEA1EFB1EB70120
:1016A000A6018EA19FA10E94A60A882381F007EFC0
:1016B0001FEFC801DF91CF911F910F91FF90EF9025
:1016C000DF90CF90BF90AF909F908F900895F801DA
:1016D000E05DFD4F008111818A898C3091F18EEFA0
:1016E000A8168FEFB80629F3B182A082B9881B141F
:1016F0004CF0DFCF8F859889C80ED91EE11CF11CF4
:10170000BA94B9F2B701A6018EA19FA10E94F00A76
:10171000882381F3CCCF8B0116950795080D191DF1
:101720006801CD2CDD0CDD08C59411700F3F21E060
:10173000120709F0A8CF8FEFC81AD80A00E010E00E
:10174000A2CFC4018170992780FC19C01F70073F88
:101750002FE0120708F0106F2EEFA2162FEFB2063F
:1017600009F4A7CF892B91F0A294B29430EFB32261
:10177000BA24A322BA2480818F70A82AB5CF1295EB
:1017800002950F7001271F700127E1CFC5019F70DF
:10179000A180BB24A7FCB09420EFA222BB24BA2CCA
:1017A000AA24A82AB92AA0CF603F2FEF720710F40D
:1017B0000C942A0BCB010895CF92DF92EF92FF9207
:1017C0000F931F93CF93DF938C017B01FC01258541
:1017D000368521153105D1F0C0E0D0E004C0219656
:1017E000C217D30798F4C03FFFEFDF07C0F74EEFF3
:1017F0005FEFBE01C8010E942A0B892BA9F0F801F6
:10180000258536852196C217D30768F38CE180932E
:101810000A0287EF9FEFDF91CF911F910F91FF9009
:10182000EF90DF90CF9008954FEF5FEFBE01C801BA
:101830000E942A0B873FFFEF9F0769F3F2E0EF1644
:10184000F104F8F0C70102978E3E9F4F90F4DE2C12
:10185000CF2C02C0D82EC92E4EEF5FEF6D2D7C2D00
:10186000C8010E942A0B9C01225031092E3E3F4F95
:1018700088F3AE016D2D7C2DC8010E942A0B0996BC
:1018800041F2CE01C8CFEF92FF920F931F93CF93F7
:10189000DF937C018B01603F2FEF720710F024C0B3
:1018A0008E014EEF5FEFB801C7010E942A0BEC01D9
:1018B000C73F8FEFD807C1F040E050E0B801C70143
:1018C0000E942A0B099691F0C03F8FEFD80740F392
:1018D00081E0299609F080E08195DF91CF911F91F9
:1018E0000F91FF90EF900895E801F2CF80E0F5CFDF
:1018F0009F92AF92BF92CF92DF92EF92FF920F939F
:101900001F93CF93DF937B01EC018C01FBE0BF2E93
:10191000A0E2AA2EB0E49B2EF801A1928F01F7015C
:1019200080818132DCF08E3279F1FFEFEF1AFF0A0D
:10193000992787FD90950E941E1988838232F1F0C5
:1019400090E002C08217D1F09F5FE92FFF27E7FDEB
:10195000F095EA57FE4F20812111F4CFBA942196D9
:10196000B110DACFDF91CF911F910F91FF90EF90DF
:10197000DF90CF90BF90AF909F9008959882BA94D7
:101980002196B110C9CFEECFF3E0FB153CF3670110
:1019900082E0C80ED11CF7018181992787FD9095BF
:1019A0000E941E1988837601C9CF4F925F926F9271
:1019B0007F92AF92BF92CF92DF92EF92FF920F93FE
:1019C0001F93CF93DF938C012A013B0159012D3FD7
:1019D0008FEF380709F493C06A017B01F801058C89
:1019E00004C0F594E794D794C7940A94D2F7A6015B
:1019F000068CF78DE02DE217F307B1F1F9019F0195
:101A0000225031092E3EBFEF3B07B0F4452B09F4BD
:101A10003FC0E60102C02097D9F121974EEF5FEF5A
:101A2000BF01C8010E942A0BFC019C012250310910
:101A30002E3E8FEF380778F3399609F475C087E0AA
:101A400080930A026FEF7FEFCB01DF91CF911F915F
:101A50000F91FF90EF90DF90CF90BF90AF907F906D
:101A60006F905F904F900895D80190962D913C9182
:101A700091972C153D0519F6D8019296ED91FC91A0
:101A800093979F01225031092E3EBFEF3B07A0F6EE
:101A9000D80157960C90579702C0220F331F0A9413
:101AA000E2F719966D917D918D919C911C97620F33
:101AB000731F811D911DC9E07594679457944794D5
:101AC000CA95D1F758962C915897332727FD309512
:101AD000432F532F4222532264227522640D751D19
:101AE000861D971D5F96BC92AE925E979196DC9292
:101AF000CE9290979396FC93EE939297A6CFCB01BC
:101B0000BA01D9E09595879577956795DA95D1F7DC
:101B1000D80115960D911D912D913C911897600F4C
:101B2000711F821F931F91CF6FEF7FEFCB018DCF7E
:101B30002F923F924F925F926F927F928F929F92DD
:101B4000AF92BF92CF92DF92EF92FF920F931F93CB
:101B5000CF93DF9300D000D0CDB7DEB79A838983CF
:101B60001B018A01FC014084518462847384C48017
:101B7000D580E680F780C418D508E608F708A12CC0
:101B8000B12C141615060CF05DC01C141D041E04A7
:101B90001F040CF057C0812C82E0982E44C0AB018A
:101BA000BC01E981FA81828993890E94A60A811188
:101BB00046C0C20191709401281B390BBC01605DC5
:101BC0007D4FC901AA2797FDA095BA2FC816D9063F
:101BD000EA06FB060CF49601021713070CF49801B1
:101BE000A901C1012B833C830E9426192B813C81D2
:101BF000C901AA2797FDA095BA2F480E591E6A1E43
:101C00007B1EA20EB31EC81AD90AEA0AFB0A021BDF
:101C1000130B220E331E1016110664F51C141D043E
:101C20001E041F043CF5E981FA8122813381B3014E
:101C3000A201808991890E94D50C97FFB0CFAA2478
:101C4000AA94BA2CC5010F900F900F900F90DF91BE
:101C5000CF911F910F91FF90EF90DF90CF90BF90A9
:101C6000AF909F908F907F906F905F904F903F903C
:101C70002F9008951A141B042CF7E981FA818085AE
:101C80009185A285B385A501662757FD6095762FBE
:101C9000840F951FA61FB71F80879187A287B387E0
:101CA000D1CF0F931F93213079F0223011F12223ED
:101CB000A1F086E180930A024FEF5FEFBA01CB01FA
:101CC000BA011F910F910895FC01008511852285AD
:101CD0003385400F511F621F731F77FD05C0FC0144
:101CE0004087518762877387CB01BA011F910F919B
:101CF0000895FC014481558166817781EECFBF92C2
:101D0000CF92DF92EF92FF920F931F93CF93DF93C7
:101D10008C01EB017A01B22EFC0184A195A1FC019A
:101D20001086118612861386C22EDD24C7FCD0943D
:101D300040E250E0BE010E94980D809781F58881B5
:101D4000882349F0A601B701CE010E942F19892BE3
:101D5000E1F421E00FC082E080930A024B2D552769
:101D600047FD5095B701CE010E942F1921E0892B24
:101D700009F020E0822FDF91CF911F910F91FF900A
:101D8000EF90DF90CF90BF900895F80184A195A1C6
:101D900040E250E0BE010E94980D809781F22FEF43
:101DA000E9CF0F931F93CF93DF93EC010889198933
:101DB000898181FF5BC04C855D856E857F8577FD60
:101DC00055C0F80184A195A1FC0140875187628725
:101DD0007387452B462B472B09F45CC040E250E04B
:101DE0006BE072E00E94980D809709F053C08A81E1
:101DF0009B8190932602809325028C819D81AE81E8
:101E0000BF818093270290932802A0932902B09368
:101E10002A0280912D0290912E0290931A028093B3
:101E20001902809164019091650190931C02809346
:101E30001B024C855D856E857F85F80184A195A187
:101E400077FD28C0FC014087518762877387452B47
:101E5000462B472BF9F040E250E06BE072E00E9425
:101E6000500F8097B9F489818D7F898340E050E0DD
:101E7000BA01F80186A197A10E94A60A91E08823E1
:101E800039F0892F8195DF91CF911F910F9108959E
:101E900090E0F7CF8FEFDF91CF911F910F910895D1
:101EA0002F923F924F925F926F927F928F929F926A
:101EB000AF92BF92CF92DF92EF92FF920F931F9358
:101EC000CF93DF93EC011B018A01898180FF19C048
:101ED0008DE080930A02A12CB12CC501DF91CF9136
:101EE0001F910F91FF90EF90DF90CF90BF90AF9038
:101EF0009F908F907F906F905F904F903F902F902A
:101F00000895C884D984EA84FB84A12CB12C1416CA
:101F100015061CF72A813B8111C080910A02873087
:101F200009F048C06A817B81888999890E94DC0B0D
:101F30002A813B812115310509F460C0B701A60152
:101F4000888999890E94D50C2B013C0197FDE5CF2A
:101F5000011582E018070CF45CC0C60191709C0169
:101F6000205D3D4F812C42E0942E881A990AA401ED
:101F7000B101C9010E942619B301A2018A899B8976
:101F80000E94F00A811116C0898182608983C40190
:101F9000AA2797FDA095BA2FC80ED91EEA1EFB1ED0
:101FA000A80CB91C08191909280C391C101611069F
:101FB0000CF4B0CFA114B10409F48FCFC501AA2746
:101FC00097FDA095BA2F488559856A857B85840F32
:101FD000951FA61FB71F88879987AA87BB874C8143
:101FE0005D816E817F81481759076A077B070CF076
:101FF00074CF8C839D83AE83BF836FCF9B838A8393
:10200000898182608983CE010E94D10E87FF82CFB1
:10201000D1CFB301A2018A899B890E94A60A8111AE
:10202000C9CFC60191709C01205D3D4F812C52E0CB
:10203000952E881A990A081519050CF098CF4801B1
:1020400096CF8F929F92AF92BF92EF92FF920F9393
:102050001F93CF93DF93CDB7DEB72D970FB6F894CC
:10206000DEBF0FBECDBF5C01E42E922E8091280111
:1020700087FD1FC08091140187FD2DC18091000153
:1020800087FD2EC188E180930A0200E010E0C801BC
:102090002D960FB6F894DEBF0FBECDBFDF91CF9166
:1020A0001F910F91FF90EF90BF90AF909F908F90F6
:1020B0000895E2E0FE2E08E211E0D8015196BC92AC
:1020C000AE925097F50186A197A153969C938E935B
:1020D000529718961D921D921D921C921B97119655
:1020E0001C92FB0180818F3239F5DB0111968C91B6
:1020F000811122C08DEF9FEFF80193838283D50178
:1021000053968D919C915497880F991F8295929523
:10211000907F9827807F9827A0E0B0E08483958304
:10212000A683B7834FEF5FEFBA0144875587668771
:102130007787F801F082ABCFCE0101960E94780C30
:102140001C868981803241F486E180930A02D8019D
:102150008C9187FF9CCF99CF2BE0AE014F5F5F4FF3
:102160006BE072E0C5010E947F0E87FDF0CF811108
:1021700069C0E3FC04C082E080930A02E8CF85EEE8
:102180008D8721E0AE01435F5F4F6BE072E0C501D8
:102190000E947F0E87FDDBCF8BE0FE013196ABE026
:1021A000B2E001900D928A95E1F79092160210929A
:1021B000170280912F028093180280912D02909136
:1021C0002E028093190290931A0280932102909319
:1021D0002202809164019091650180931B0290938B
:1021E0001C0280931D028093230290931E02909301
:1021F00024021092250210922602109227021092B9
:1022000028021092290210922A02D5019496ED918B
:10221000FC9195974085518562857385405251099F
:102220006109710977FD93CF408751876287738772
:1022300040E250E06BE072E0CF010E94500F8097C7
:1022400009F085CFD5019496ED91FC919597808505
:102250009185A285B385E5FE04C081E180930A02E1
:1022600076CF2091250230912602F8013383228314
:102270008090270290902802A0902902B0902A0214
:1022800084829582A682B7828097A109B10984874A
:102290009587A687B7878091160280FD02C0E1105E
:1022A00007C0D80111968C911197816011968C937B
:1022B000E4FE05C0F8011482158216821782E2FE40
:1022C00038CFF80184819581A681B7818087918775
:1022D000A287B3872ECFFF24F39404E111E0EDCE63
:1022E000F12C00E011E0E9CECF93DF93EC010E94E6
:1022F000D10E811106C08FEF888380E0DF91CF91EE
:1023000008958FEFFBCFEF92FF920F931F93CF9320
:10231000DF93CDB7DEB72C970FB6F894DEBF0FBEB4
:10232000CDBF8C01CE0101960E94780C1C862BE05B
:10233000AE014F5F5F4F6BE072E0C8010E947F0EFD
:102340001816B4F5E0902502F090260285EE8093F1
:102350000B02D8019496ED91FC919597408551859B
:1023600062857385405251096109710977FD20C06A
:10237000408751876287738740E250E06BE072E0EC
:10238000CF010E94500F97FD13C0B701C8010E94F2
:10239000430C880F880B2C960FB6F894DEBF0FBE47
:1023A000CDBFDF91CF911F910F91FF90EF900895D6
:1023B0008FEFF1CF2F923F924F925F926F927F9269
:1023C0009F92AF92BF92CF92DF92EF92FF920F93C4
:1023D0001F93CF93DF9300D000D0CDB7DEB72FE2AD
:1023E00030E03A83298390913C0197FD3DC088E11C
:1023F00080930A0224E631E0F901E4A0F5A0E1149B
:10240000F10449F0C7012B833C830E94D10E2B813C
:102410003C81882329F10115110539F0C8012B836E
:102420003C830E947E0A3C812B818FEFF9018083DF
:1024300080E090E00F900F900F900F90DF91CF9180
:102440001F910F91FF90EF90DF90CF90BF90AF90D2
:102450009F907F906F905F904F903F902F90089546
:102460008FEFF7018083D7CF27EF3FEF30935B01EA
:1024700020935A012FEF3FEF30935D0120935C01D1
:1024800010925F0110925E010E94F9098C01009781
:1024900051F11093630100936201F801838181304F
:1024A00081F0982F9D7F943061F08B3051F08E3009
:1024B00041F08F3F31F08FE080930A022CE331E04E
:1024C0009BCF40E050E0BA01C8010E94A60A8111EA
:1024D0000AC080912E04853549F086E080930A0277
:1024E0002CE331E089CF2CE331E086CF80912F04BB
:1024F0008A3A99F780913B0290913C02A0913D026B
:10250000B0E0E0903E02F0903F02D0904002D092C6
:102510004D01E0914102F0914202F0935001E093AD
:102520004F01409143025091440260E070E0411538
:1025300051056105710541F44091500250915102DD
:10254000609152027091530260904602709047026F
:102550002FE097FDDFC0880F991F2150D0F786EF3D
:10256000A82EB12C96EF992E13010A2C02C0220C32
:10257000331C0A94E2F730924C0120924B010A2C52
:1025800002C0AA0FBB1F0A94E2F7B0935201A093B6
:1025900051010A2C02C0EE0CFF1C0A94E2F7D29CF7
:1025A000C001D39C900D11248E0D9F1D6F01CC0C8A
:1025B000DD1CC294D29420EFD222DC24C222DC247F
:1025C00021E0C21A2EEFD20ACD2CDD24C694C80E0B
:1025D000D91E2601612C712C04C0440F551F661FA3
:1025E000771FAA94D2F7441955096609770967013C
:1025F000E12CF12CC0923D01D0923E01E0923F01CE
:10260000F09240016C01E12CF12CC0924101D0927A
:102610004201E0924301F092440140924501509200
:1026200046016092470170924801CD012FE097FD6D
:1026300061C0880F991F2150D0F788E0C82E80E034
:10264000EE24EA94FE2C2093530180935401CD0193
:10265000982F8827990FAA2797FDA095BA2F8093C6
:10266000550190935601A0935701B0935801C09221
:10267000590104C07595679557954795EA94D2F727
:1026800050934A0140934901453F2FE0520750F5CE
:102690008CE080934E01EF2BF9F02328E9F0809134
:1026A0004E018032C9F08C3011F4911015C0109297
:1026B0003C0120E142E0BE016F5F7F4F8CE391E07F
:1026C0000E9421109093610180936001892B09F48D
:1026D0000ACF8CE391E0AECE83E180930A022CE333
:1026E00031E08ACE453F2FEF5207C8F480E1809356
:1026F0004E01D1CFE22EFF24E7FCF0948FEF9FEF45
:10270000022E01C0880F0A94EAF7809599E0C92E3D
:10271000C20E99CF87EF982E920EA92C25CF80E27A
:1027200080934E01B8CF0F931F93CF93DF93EC01AB
:102730000CA11DA10115110581F0C8010E94D10E47
:10274000882331F08FEFDF91CF911F910F91089582
:102750008FEFF80180831DA21CA28EA19FA10E9471
:102760007E0A8111EFCF8FEF888380E0DF91CF91D8
:102770001F910F9108952FE097FD04C0880F991FB6
:102780002150D0F7822F0895EF92FF920F931F935D
:10279000CF93DF937B01FC01C0A1D1A11C161D06C4
:1027A0009CF48C012197B7010C2E02C0759567959A
:1027B0000A94E2F761707727F801819191918F0176
:1027C0000E94A205219778F7DF91CF911F910F9179
:1027D000FF90EF900895CF92DF92EF92FF920F93C8
:1027E0001F93CF93DF93CDB7DEB769970FB6F894F9
:1027F000DEBF0FBECDBF89E0E7E9F1E0DE01519613
:1028000001900D928A95E1F78DE0E6E7F1E0DE01B7
:10281000119601900D928A95E1F71E861F86188AFF
:1028200061E070E08091A0019091A1010E94A20559
:1028300060E070E088EE91E00E94C4136EEF7FEFDD
:1028400086EC91E00E94C41361E070E088EE91E0B4
:102850000E94C41380E00E94DA11892B09F427C179
:102860006EEF7FEF86EC91E00E94C41362E070E0AF
:1028700088EE91E00E94C41387EE9CE3909365017B
:10288000809364018CE594E690932E0280932D0250
:1028900020E048E1BE016F5E7F4F8CE391E00E9433
:1028A000211090932C0280932B02009709F4BDC055
:1028B000FC01E080FF24E7FCF094F7FCB6C06EEF6B
:1028C0007FEF86EC91E00E94C41363E070E088EE35
:1028D00091E00E94C41384E18E9D80018F9D100DB4
:1028E000112400501F4FAAE0EA2EF12C4AE050E0DC
:1028F000BE016F5F7F4FC8010E94500F1816190666
:102900000CF016C121E0E21AF108E114F10471F7AC
:102910006EEF7FEF86EC91E00E94C41364E070E0FC
:1029200088EE91E00E94C413C8010E94D10E81116B
:1029300045C18FEFF80180836EEF7FEF86EC91E069
:102940000E94C41365E070E088EE91E00E94C41319
:102950008CE391E00E94931387FF51C1C090E60180
:10296000D090E7011C141D04ECF780E090E000E03B
:1029700010E07C01EE0CFF1CF701EA53FE4F808152
:1029800091810E94EA058E299F290F5F1F4F0C1528
:102990001D0579F76C012FEDC22ADD24DA94009130
:1029A000E6011091E701101611060CF026C146EC65
:1029B000E42E41E0F42E01501109B601002E02C0B0
:1029C000759567950A94E2F761707727F701819111
:1029D00091917F010E94A2050150110970F7BECFAD
:1029E0006C01FBEFCF2ADD24DA940091E60110910F
:1029F000E701101611060CF0B8C0B6ECEB2EB1E0F2
:102A0000FB2E01501109B601002E02C07595679585
:102A10000A94E2F761707727F701819191917F0124
:102A20000E94A2050150110970F7C090E601D090F4
:102A3000E7011C141D04ECF780E090E000E010E0DA
:102A40007C01EE0CFF1CF701EA53FE4F808191815F
:102A50000E94EA058E299F290F5F1F4F0C151D0547
:102A600079F7BECF6C012DEFC22ADD24DA940091F4
:102A7000E6011091E701101611060CF0BCC096ECAF
:102A8000E92E91E0F92E01501109B601002E02C085
:102A9000759567950A94E2F761707727F701819140
:102AA00091917F010E94A2050150110970F7C09019
:102AB000E601D090E7011C141D04ECF780E090E0E3
:102AC00000E010E07C01EE0CFF1CF701EA53FE4F22
:102AD000808191810E94EA058E299F290F5F1F4FF7
:102AE0000C151D0579F7BECF6C0127EFC22ADD2436
:102AF000DA940091E6011091E70110161106BCF579
:102B0000E6ECEE2EE1E0FE2E01501109B601002E9A
:102B100002C0759567950A94E2F761707727F7010F
:102B2000819191917F010E94A2050150110970F7D6
:102B3000C090E601D090E7011C141D04ECF780E082
:102B400090E000E010E07C01EE0CFF1CF701EA537E
:102B5000FE4F808191810E94EA058E299F290F5F97
:102B60001F4F0C151D0579F7BFCF680162CF6801B3
:102B7000E3CF6C01FFEECF2ADD24DA940091E60169
:102B80001091E701101611060CF056C066ECE62E07
:102B900061E0F62E01501109B601002E02C07595B4
:102BA00067950A94E2F761707727F7018191919117
:102BB0007F010E94A2050150110970F7C090E60143
:102BC000D090E7011C141D04ECF780E090E000E0D9
:102BD00010E07C01EE0CFF1CF701EA53FE4F8081F0
:102BE00091810E94EA058E299F290F5F1F4F0C15C6
:102BF0001D0579F7BECF68015ECF6801B3CE6FEFD8
:102C00007FEF86EC91E00E94C41360E070E088EEF4
:102C100091E00E94C41380E090E069960FB6F894AA
:102C2000DEBF0FBECDBFDF91CF911F910F91FF90FF
:102C3000EF90DF90CF9008956801C4CF0F931F935A
:102C4000CF93DF9388E090E09093E9018093E801CF
:102C500089E090E09093EB018093EA018AE090E0B4
:102C60009093ED018093EC018BE090E09093EF0165
:102C70008093EE018CE090E09093F1018093F0015D
:102C80008FEF9FEF9093F3018093F2019093F50102
:102C90008093F4019093F7018093F6019093F901EA
:102CA0008093F8019093FB018093FA019093FD01CA
:102CB0008093FC019093FF018093FE0190930102A9
:102CC0008093000290930302809302029093050286
:102CD0008093040290930702809306020AEE11E0AB
:102CE000C0E0D0E088E090E008C0F80181919191C7
:102CF0008F018F3FFFEF9F0741F061E070E00E947E
:102D000041052196C031D10581F7D0930902C093C6
:102D1000080282E190E09093C7018093C60183E1AD
:102D200090E09093C9018093C80184E190E0909372
:102D3000CB018093CA0185E190E09093CD0180930F
:102D4000CC0186E190E09093CF018093CE0187E1A2
:102D500090E09093D1018093D00187E090E0909330
:102D6000D3018093D2018FEF9FEF9093D501809391
:102D7000D4019093D7018093D6019093D901809389
:102D8000D8019093DB018093DA019093DD01809369
:102D9000DC019093DF018093DE019093E101809349
:102DA000E0019093E3018093E2019093E501809329
:102DB000E40108EC11E0C0E0D0E082E190E008C05E
:102DC000F801819191918F018F3FFFEF9F0741F0B3
:102DD00061E070E00E9441052196C031D10581F784
:102DE000D093E701C093E6011092A5011092A401CF
:102DF00081E090E09093A7018093A6018FEF9FEF71
:102E00009093A9018093A8019093AB018093AA01AC
:102E10009093AD018093AC019093AF018093AE018C
:102E20009093B1018093B0019093B3018093B2016C
:102E30009093B5018093B4019093B7018093B6014C
:102E40009093B9018093B8019093BB018093BA012C
:102E50009093BD018093BC019093BF018093BE010C
:102E60009093C1018093C0019093C3018093C201EC
:102E700006EA11E0C0E0D0E080E090E008C0F80190
:102E8000819191918F018F3FFFEF9F0741F060E0AB
:102E900070E00E9441052196C031D10581F7D093A1
:102EA000C501C093C40186E090E09093A301809394
:102EB000A201269882E090E09093A1018093A00166
:102EC000229ADF91CF911F910F910895EE0FFF1F6E
:102ED0000590F491E02D09945058BB27AA270ED0F5
:102EE00010C101D130F006D120F031F49F3F11F430
:102EF0001EF4F6C00EF4E095E7FBECC0E92F12D10A
:102F000080F3BA17620773078407950718F071F406
:102F10009EF52AC10EF4E0950B2EBA2FA02D0B01C1
:102F2000B90190010C01CA01A0011124FF27591B0E
:102F300099F0593F50F4503E68F11A16F040A22F14
:102F4000232F342F4427585FF3CF46953795279585
:102F5000A795F0405395C9F77EF41F16BA0B620B84
:102F6000730B840BBAF09150A1F0FF0FBB1F661FCB
:102F7000771F881FC2F70EC0BA0F621F731F841F0E
:102F800048F4879577956795B795F7959E3F08F034
:102F9000B3CF9395880F08F09927EE0F97958795F3
:102FA00008950CD0AEC0A6D040F09DD030F021F4F2
:102FB0005F3F19F08FC05111D8C092C0B3D098F3C1
:102FC0009923C9F35523B1F3951B550BBB27AA27AA
:102FD00062177307840738F09F5F5F4F220F331F1C
:102FE000441FAA1FA9F333D00E2E3AF0E0E830D0E8
:102FF00091505040E695001CCAF729D0FE2F27D0EB
:10300000660F771F881FBB1F261737074807AB07B8
:10301000B0E809F0BB0B802DBF01FF2793585F4F2D
:103020002AF09E3F510568F055C09FC05F3FECF30A
:10303000983EDCF3869577956795B795F7959F5FF2
:10304000C9F7880F911D9695879597F90895E1E046
:10305000660F771F881FBB1F621773078407BA07A5
:1030600020F0621B730B840BBA0BEE1F88F7E09500
:10307000089504D06894B11178C008955BD088F0A9
:103080009F5790F0B92F9927B751A0F0D1F0660F54
:10309000771F881F991F1AF0BA95C9F712C0B1306F
:1030A00081F062D0B1E008955FC0672F782F882744
:1030B000B85F39F0B93FCCF3869577956795B395AE
:1030C000D9F73EF490958095709561957F4F8F4F1D
:1030D0009F4F089597F99F6780E870E060E008953A
:1030E0009FEF80EC089500240A9416161706180620
:1030F0000906089500240A941216130614060506FC
:103100000895092E0394000C11F4882352F0BB0F8C
:1031100040F4BF2B11F460FF04C06F5F7F4F8F4FEF
:103120009F4F089557FD9058440F551F59F05F3F2A
:1031300071F04795880F97FB991F61F09F3F79F0D9
:1031400087950895121613061406551FF2CF46955B
:10315000F1DF08C0161617061806991FF1CF8695DD
:103160007105610508940895E894BB2766277727C1
:10317000CB0197F908950BD0C4CFB5DF28F0BADFA3
:1031800018F0952309F0A6CFABCF1124EECFCADFFC
:10319000A0F3959FD1F3950F50E0551F629FF0016A
:1031A000729FBB27F00DB11D639FAA27F00DB11DC3
:1031B000AA1F649F6627B00DA11D661F829F22274C
:1031C000B00DA11D621F739FB00DA11D621F839FD3
:1031D000A00D611D221F749F3327A00D611D231FA9
:1031E000849F600D211D822F762F6A2F11249F57F7
:1031F00050408AF0E1F088234AF0EE0FFF1FBB1F1A
:10320000661F771F881F91505040A9F79E3F5105B8
:1032100070F060CFAACF5F3FECF3983EDCF3869569
:1032200077956795B795F795E7959F5FC1F7FE2B63
:10323000880F911D9695879597F908959111089596
:1032400081568A5108F4805285580895FB01DC01AB
:1032500002C001900D9241505040D8F70895FB01F3
:10326000DC014150504030F08D910190801919F4EB
:0E3270000020B9F7881B990B0895F894FFCF42
:10327E00FF00000000000000000000000000000041
:10328E0000000000FF000000000000000000000031
:10329E000000000000000000FF0000000000000021
:1032AE00000000000000000000000000FF00000011
:1032BE000000000000000000000000000000000000
:1032CE0000000000000000000000000000000000F0
:1032DE0000000000213CFF00000000000000000084
:1032EE0000000000000030313233343536373839C3
:1032FE000D0A00000000222A2B2C2E2F3A3B3C3DBB
:10330E003E3F5B5C5D7C00746573742E7478740054
:00000001FF
