:100000001AC033C032C031C030C02FC02EC02DC086
:100010002CC02BC02AC029C028C027C026C025C09C
:1000200024C023C022C021C020C01FC01EC01DC0CC
:100030001CC01BC0960111241FBECFEFD4E0DEBF51
:10004000CDBF11E0A0E0B1E001C01D92A230B10728
:10005000E1F710E0C6E3D0E003C02297FE016ED1C5
:10006000C433D107D1F746D152C2CACF8F3F2FEF49
:100070009207C1F061157105B9F06130710599F40D
:10008000883091059CF180319105D4F1883191053A
:100090004CF42AB14097082E01C0660F0A94EAF783
:1000A000262B2AB908950895883091059CF0803157
:1000B000910584F188319105ACF74AB1409721E070
:1000C00030E0082E01C0220F0A94EAF7209524237D
:1000D0002AB9089594B121E030E0082E01C0220F22
:1000E0000A94EAF72095292324B9089524B1AB0195
:1000F00002C0440F551F8A95E2F7242B24B90895B6
:1001000027B10897082E01C0660F0A94EAF7262B3C
:1001100027B9089547B1089721E030E0082E01C0C3
:10012000220F0A94EAF72095242327B908958F3FD8
:100130002FEF9207E1F088309105D4F080319105DE
:1001400054F1883191059CF44BB1409721E030E0A7
:10015000082E01C0220F0A94EAF720952423AB0150
:1001600002C0440F551F8A95E2F7242B2BB908953E
:1001700095B121E030E0082E01C0220F0A94EAF781
:1001800020952923AB0102C0440F551F8A95E2F741
:10019000242B25B9089548B1089721E030E0082EB6
:1001A00001C0220F0A94EAF720952423AB0102C074
:1001B000440F551F8A95E2F7242B28B908958F3FE5
:1001C0004FEF940701F18830910594F0803191054B
:1001D000F4F088319105ACF42BB130E0409702C0C7
:1001E000359527958A95E2F721703327C90108953F
:1001F00025B130E002C0359527958A95E2F7217048
:100200003327C901089520E030E0C901089528B1DD
:1002100030E0089702C0359527958A95E2F721705E
:100220003327C90108958F3F4FEF940701F18830BC
:10023000910594F080319105F4F088319105ACF48A
:1002400029B130E0409702C0359527958A95E2F7AD
:1002500021703327C901089523B130E002C03595DC
:1002600027958A95E2F721703327C901089520E088
:1002700030E0C901089526B130E0089702C03595F5
:1002800027958A95E2F721703327C901089518163A
:1002900019066CF420E030E0E9EFF0E03197F1F777
:1002A00000C000002F5F3F4F28173907A9F70895B6
:1002B00020E030E04AE754E49FD044D016161706F9
:1002C00064F480E090E0E9EFF0E03197F1F700C0EE
:1002D0000000019686179707B1F7089518161906BA
:1002E00044F420E030E000002F5F3F4F281739072B
:1002F000D1F7089560E070E08091000190910101D4
:1003000016DF84EF91E0E9EFF0E03197F1F700C0FC
:10031000000001970097B9F761E070E0809100015B
:100320009091010104DF80E090E0089510920101B6
:1003300010920001209A0895EE0FFF1F0590F4918E
:10034000E02D099404D06894B11150C0089533D0C1
:1003500088F09F5790F0B92F9927B751A0F0D1F0AE
:10036000660F771F881F991F1AF0BA95C9F712C038
:10037000B13081F03AD0B1E0089537C0672F782FBF
:100380008827B85F39F0B93FCCF3869577956795A4
:10039000B395D9F73EF490958095709561957F4F10
:1003A0008F4F9F4F089557FD9058440F551F59F098
:1003B0005F3F71F04795880F97FB991F61F09F3F52
:1003C00079F087950895121613061406551FF2CF7B
:1003D0004695F1DF08C0161617061806991FF1CFCB
:1003E00086957105610508940895E894BB276627F2
:1003F0007727CB0197F908950BD078C069D028F002
:100400006ED018F0952309F05AC05FC01124EECFCA
:10041000CADFA0F3959FD1F3950F50E0551F629F5F
:10042000F001729FBB27F00DB11D639FAA27F00D4D
:10043000B11DAA1F649F6627B00DA11D661F829F74
:100440002227B00DA11D621F739FB00DA11D621F59
:10045000839FA00D611D221F749F3327A00D611D76
:10046000231F849F600D211D822F762F6A2F112458
:100470009F5750408AF0E1F088234AF0EE0FFF1FAB
:10048000BB1F661F771F881F91505040A9F79E3FE2
:10049000510570F014C0AACF5F3FECF3983EDCF337
:1004A000869577956795B795F795E7959F5FC1F71F
:1004B000FE2B880F911D9695879597F9089597F9CA
:1004C0009F6780E870E060E008959FEF80EC0895FA
:1004D00000240A9416161706180609060895002423
:1004E0000A9412161306140605060895092E03949D
:1004F000000C11F4882352F0BB0F40F4BF2B11F411
:1005000060FF04C06F5F7F4F8F4F9F4F0895F89437
:02051000FFCF1B
:00000001FF
