:100000000C9435000C9452000C9452000C94520045
:100010000C9452000C9452000C9452000C94520018
:100020000C9452000C9452000C9452000C94520008
:100030000C9452000C9452000C9452000C945200F8
:100040000C9452000C9452000C9452000C945200E8
:100050000C9452000C9452000C9452000C945200D8
:100060000C9452000C945200300711241FBECFEFA5
:10007000D8E0DEBFCDBF11E0A0E0B1E001C01D922D
:10008000A031B107E1F710E0CAE6D0E004C0229742
:10009000FE010E94C907C836D107C9F70E94F806B9
:1000A0000C94BC090C9400008F3F2FEF9207C1F015
:1000B00061157105B9F06130710599F488309105C9
:1000C0009CF180319105D4F1883191054CF42AB12D
:1000D0004097082E01C0660F0A94EAF7262B2AB92A
:1000E00008950895883091059CF08031910584F140
:1000F00088319105ACF74AB1409721E030E0082EF5
:1001000001C0220F0A94EAF7209524232AB9089502
:1001100094B121E030E0082E01C0220F0A94EAF7E2
:100120002095292324B9089524B1AB0102C0440FBE
:10013000551F8A95E2F7242B24B9089527B1089713
:10014000082E01C0660F0A94EAF7262B27B90895F6
:1001500047B1089721E030E0082E01C0220F0A9431
:10016000EAF72095242327B908958F3F2FEF9207B0
:10017000E1F088309105D4F08031910554F1883157
:1001800091059CF44BB1409721E030E0082E01C06E
:10019000220F0A94EAF720952423AB0102C0440FF2
:1001A000551F8A95E2F7242B2BB9089595B121E0CC
:1001B00030E0082E01C0220F0A94EAF72095292387
:1001C000AB0102C0440F551F8A95E2F7242B25B9D5
:1001D000089548B1089721E030E0082E01C0220FB1
:1001E0000A94EAF720952423AB0102C0440F551F5F
:1001F0008A95E2F7242B28B908958F3F4FEF940793
:1002000001F18830910594F080319105F4F0883146
:100210009105ACF42BB130E0409702C0359527959D
:100220008A95E2F721703327C901089525B130E09E
:1002300002C0359527958A95E2F721703327C901C9
:10024000089520E030E0C901089528B130E0089712
:1002500002C0359527958A95E2F721703327C901A9
:1002600008958F3F4FEF940701F18830910594F086
:1002700080319105F4F088319105ACF429B130E07A
:10028000409702C0359527958A95E2F7217033276C
:10029000C901089523B130E002C0359527958A95AC
:1002A000E2F721703327C901089520E030E0C90149
:1002B000089526B130E0089702C0359527958A95B4
:1002C000E2F721703327C9010895181619066CF456
:1002D00020E030E0E9EFF0E03197F1F700C00000F6
:1002E0002F5F3F4F28173907A9F7089520E030E026
:1002F0004AE754E40E9459090E949A081616170604
:1003000064F480E090E0E9EFF0E03197F1F700C0AD
:100310000000019686179707B1F708951816190679
:1003200044F420E030E000002F5F3F4F28173907EA
:10033000D1F708951092C5008CE08093C40082E04C
:100340008093C00086E08093C20088E18093C10062
:1003500008958091C00087FFFCCF8091C60008956A
:1003600018161906CCF420E030E061E070E0AB0133
:10037000440F551F660F771F660F771F660F771F95
:10038000640F751F2F5F3F4F2817390781F78827A4
:1003900077FD8095982F089561E070E080E090E00F
:1003A00008950F931F93CF93DF93EC011616170652
:1003B0003CF540E050E0EFEFFFEF8C010F5F1F4F87
:1003C0009F012F5F3F4FDE01A20FB31F8C918C3234
:1003D00081F088818823C9F03296EC0FFD1FD80187
:1003E00003C08D91882389F02F5F3F4F81918C321C
:1003F000C1F74F5F5F4F4617570761F0F901E0CF34
:1004000020E030E0C20FD31F8881DF91CF911F9190
:100410000F9108952F5F3F4FF5CF161617060CF07A
:100420004BC040E050E0EFEFFFEF9F012F5F3F4FE9
:10043000DC01A20FB31FAC91AC3269F0AA23C9F161
:100440003296E80FF91F02C0AA2399F12F5F3F4FA0
:10045000A191AC32C9F74F5F5F4FF90146175707BB
:1004600021F73196DF01A80FB91F6C916C3209F1A9
:100470006623F9F03196E80FF91F40E050E002C022
:100480006623A9F09A01220F331F440F551F440F12
:10049000551F440F551F420F531F862F992787FD65
:1004A0009095C097480F591F61916C3249F7CA0166
:1004B000089580E090E00895A0E0B0E0E0E0F0E092
:1004C000D2CFAC01161617060CF062C080E090E0A7
:1004D000EFEFFFEF9F012F5F3F4FDA01A20FB31F36
:1004E000AC91AC3279F0AA2309F44BC03296E40FF8
:1004F000F51F03C0AA2309F444C02F5F3F4FA19109
:10050000AC32C1F70196F9018617970719F73196B2
:10051000DF01A40FB51F2C912C3299F1222389F110
:100520003196E40FF51F40E050E0BA0102C02223EB
:1005300021F1DB01CA01880F991FAA1FBB1FAC0163
:10054000BD01440F551F661F771F440F551F661FBF
:10055000771F480F591F6A1F7B1F822F992787FD1E
:100560009095C097AA2797FDA095BA2F480F591FBD
:100570006A1F7B1F21912C32D1F6342F252FCB01FE
:1005800004C030E020E080E090E0632F722F0895F7
:10059000A0E0B0E0E0E0F0E0BCCF4F925F926F925D
:1005A0007F929F92AF92BF92CF92DF92EF92FF9293
:1005B0000F931F93CF93DF93EC0116161706B4F534
:1005C00020E030E0EFEFFFEFCF010196DE01A80F52
:1005D000B91F4C914C3261F0442391F03296EC0FEC
:1005E000FD1F02C0442361F0019641914C32D1F7C6
:1005F0002F5F3F4F2617370709F4A9C0FC01E4CF4E
:10060000A12CB12CC12CD12CB501C601DF91CF9109
:100610001F910F91FF90EF90DF90CF90BF90AF9020
:100620009F907F906F905F904F90089580E090E052
:1006300020E030E0FE01E80FF91F90808EE298166E
:1006400009F488C09920E1F289010F5F1F4F7E01F4
:10065000E00EF11EA12CB12CC12CD12C04C099208C
:1006600099F20F5F1F4F20E030E040E251E4B50106
:10067000C6010E9459092B013C01692D772767FDAE
:10068000709560537109882777FD8095982F0E9497
:10069000CD089B01AC01C301B2010E94CE075B01F2
:1006A0006C019801F70191907F01FEE29F12D7CF74
:1006B000FE01E20FF31F61816C3209F4A5CF6623BE
:1006C00009F4A2CF89010E5F1F4F0C0F1D1FC0E060
:1006D000D0E0772767FD709560537109882777FD13
:1006E0008095982F0E94CD082B013C0180E090E07E
:1006F00061E070E09B01220F331F660F771F660FCA
:10070000771F660F771F620F731F0196C817D907EF
:100710008CF7882777FD8095982F0E94CD089B0144
:10072000AC01C301B2010E9432089B01AC01B501CA
:10073000C6010E94CE075B016C012196F801619110
:100740008F016C3209F460CF6111C3CF5DCF019688
:100750009C0170CFA12CB12CC12CD12CA9CF6F92B0
:100760007F928F929F92AF92BF92CF92DF92EF9241
:10077000FF920F931F93CF93DF93CDB7DEB7E2972E
:100780000FB6F894DEBF0FBECDBF5C014B01809168
:10079000C00087FFFCCF8091C600843241F0809179
:1007A000C00087FFFCCF8091C6008432C1F78091E2
:1007B000C00087FFFCCF8091C600873441F780914D
:1007C000C00087FFFCCF8091C600803501F7809183
:1007D000C00087FFFCCF8091C6008A35C1F68091AA
:1007E000C00087FFFCCF8091C600843481F68091E1
:1007F000C00087FFFCCF8091C600813441F6809114
:10080000C00087FFFCCF8091C6008C3209F0BFCFBB
:10081000FE013196CE01C3962091C00027FFFCCF88
:100820002091C6002193E817F907B1F760E070E066
:10083000CE0101960E94CD020E949A0820E137E283
:1008400040E050E00E94720769017A01F4013183AF
:10085000208360E070E0CE0101960E94CD024CE959
:10086000960142038001439F100D11240E949A08B3
:1008700024E630E040E050E00E947207020F131FB0
:10088000F4011383028360E070E0CE0101960E94C0
:10089000CD0220EF38ED2C9D30012D9D700C3C9D3C
:1008A000700C11240E949A08660D771D2CE9200314
:1008B000C001219F900D1124680F791FF4017583E9
:1008C000648361E070E0CE0101960E940D02F501A3
:1008D0009583848362E070E0CE0101960E940D0250
:1008E000F5019383828363E070E0CE0101960E945C
:1008F0000D0264E670E00E945E07F501918380833B
:10090000E2960FB6F894DEBF0FBECDBFDF91CF9158
:100910001F910F91FF90EF90DF90CF90BF90AF901D
:100920009F908F907F906F9008952F923F924F925B
:100930005F926F927F928F929F92AF92BF92CF926F
:10094000DF92EF92FF920F931F93CF93DF93CDB778
:10095000DEB7C953D1400FB6F894DEBF0FBECDBF8E
:10096000C35DDE4F99838883CD52D1404B01C05D7A
:10097000DE4F59834883C053D140CE5CDE4F39836C
:100980002883C253D140CC5CDE4F19830883C45303
:10099000D140CA5CDE4FF982E882C653D140C85CC0
:1009A000DE4FD982C882C853D14080E090E08E01EA
:1009B00007531F4F9E012B593F4F79019E01235D25
:1009C0003E4F4091C00047FFFCCF4091C6004432EB
:1009D00041F04091C00047FFFCCF4091C600443237
:1009E000C1F74091C00047FFFCCF4091C60047349B
:1009F00009F404C18F30910521F760E070E0CE0169
:100A000001960E94CD020E949A0820E137E240E060
:100A100050E00E94720729013A01C35DDE4FE88170
:100A2000F981CD52D1403183208360E070E0CE0166
:100A300001960E94CD024CE9920142036001439F5E
:100A4000D00C11240E949A0824E630E040E050E0E7
:100A50000E947207C20ED31EC35DDE4FE881F9818A
:100A6000CD52D140D382C28260E070E0CE010196C7
:100A70000E94CD0220EF38ED249D1001259D300C01
:100A8000349D300C11240E949A08620D731D4CE9AC
:100A900096014203C001439F900D1124680F791FF6
:100AA000C35DDE4FE881F981CD52D1407583648307
:100AB00061E070E0CE0101960E940D02F401958381
:100AC000848362E070E0CE0101960E940D02F40181
:100AD0009383828363E070E0CE0101960E940D0251
:100AE00064E670E00E945E07F4019183808366E013
:100AF00070E0C8010E940D02C05DDE4FE881F981FF
:100B0000C053D1409183808363E070E0C8010E94AC
:100B1000CD0220E030E048EC52E40E943208CE5C86
:100B2000DE4FE881F981C253D140608371838283B3
:100B3000938361E070E0C8010E94CD0220E030E0C4
:100B400048EC52E40E943208CC5CDE4FE881F98127
:100B5000C453D140608371838283938368E070E0E3
:100B6000C8010E94CD02C85CDE4FE881F981C853FC
:100B7000D140608371838283938367E070E0C70113
:100B80000E94CD02CA5CDE4FE881F981C653D14094
:100B9000608371838283938360E070E0C7010E9469
:100BA000CD02F501608371838283938381E090E0BD
:100BB000C15DDE4FF881CF52D140F13411F480E0B5
:100BC00090E0919581959109C75CDE4F0FB6F8943E
:100BD000DEBF0FBECDBFDF91CF911F910F91FF9070
:100BE000EF90DF90CF90BF90AF909F908F907F90CD
:100BF0006F905F904F903F902F9008954091C0006C
:100C000047FFFCCF4091C600403509F0F3CE40913C
:100C1000C00047FFFCCF4091C6004734E9F146359C
:100C200009F481C04A3509F0E5CE4091C00047FF84
:100C3000FCCF4091C600443409F0DCCE4091C000A6
:100C400047FFFCCF4091C600413409F0D3CE40911C
:100C5000C00047FFFCCF4091C6004C3209F0CACE1D
:100C60004091C00047FFFCCF4091C600542F5F7DEC
:100C70005A3081F0FE01319641934091C00047FF08
:100C8000FCCF4091C600542F5F7D5A3019F0EE150D
:100C9000FF0591F78860AECE4091C00047FFFCCFC2
:100CA0004091C600473409F474C04C3409F0A2CE18
:100CB0004091C00047FFFCCF4091C6004C3409F082
:100CC00099CE4091C00047FFFCCF4091C6004C3206
:100CD00009F090CE4091C00047FFFCCF4091C60084
:100CE000542F5F7D5A3009F481C0C15DDE4F4883C7
:100CF000CF52D14044E650E06091C00067FFFCCF86
:100D00006091C600762F7F7D7A3009F46FC0415024
:100D100051094115510509F469C0C15DDE4F688371
:100D2000CF52D140E9CF4091C00047FFFCCF409166
:100D3000C600443509F05ECE4091C00047FFFCCFAD
:100D40004091C600473409F055CE4091C00047FF9E
:100D5000FCCF4091C6004C3209F04CCE4091C0000F
:100D600047FFFCCF4091C600542F5F7D5A3079F089
:100D7000F70141934091C00047FFFCCF4091C6006E
:100D8000542F5F7D5A3019F0E017F10791F7846016
:100D900031CE4091C00047FFFCCF4091C6004134A6
:100DA00009F028CE4091C00047FFFCCF4091C6001B
:100DB0004C3209F01FCE4091C00047FFFCCF40915C
:100DC000C600542F5F7D5A3079F0F801419340916D
:100DD000C00047FFFCCF4091C600542F5F7D5A30C2
:100DE00019F0E217F30791F7816004CE826002CE1A
:100DF000CF93DF93CDB7DEB7A2970FB6F894DEBFDF
:100E00000FBECDBFCE010D965C01CE0141966C01A7
:100E1000CE0145967C018E01075E1F4F9E01235E29
:100E20003F4FAE014F5D5F4FBE016F5F7F4FCE0101
:100E300007960E949504019729F7809100019091EF
:100E400001010E94FD0061E070E0892B11F060E07B
:100E500070E080910001909101010E94B500D2CF15
:100E600051985098E2E0F1E02CE02483158280E86C
:100E700095E2978386831092C5002093C40088E092
:100E800090E090930B0180930A0110920F01109251
:100E90000E0181E090E090930D0180930C0182E0BF
:100EA0008093C00088E18093C10086E08093C200F7
:100EB0001092010110920001209A089597FB072ECD
:100EC00016F4009407D077FD09D00E94910707FC23
:100ED00005D03EF4909581959F4F0895709561954A
:100EE0007F4F0895052E97FB1EF400940E948907FA
:100EF00057FD07D00E94A50707FC03D04EF40C94C1
:100F0000890750954095309521953F4F4F4F5F4F42
:100F1000089590958095709561957F4F8F4F9F4F65
:100F20000895AA1BBB1B51E107C0AA1FBB1FA61730
:100F3000B70710F0A61BB70B881F991F5A95A9F782
:100F400080959095BC01CD010895A1E21A2EAA1BAF
:100F5000BB1BFD010DC0AA1FBB1FEE1FFF1FA21769
:100F6000B307E407F50720F0A21BB30BE40BF50B66
:100F7000661F771F881F991F1A9469F760957095EF
:100F8000809590959B01AC01BD01CF010895EE0FB6
:100F9000FF1F0590F491E02D09945058BB27AA2714
:100FA0000ED04DC13ED130F043D120F031F49F3FFF
:100FB00011F41EF433C10EF4E095E7FB29C1E92FCB
:100FC0004FD180F3BA17620773078407950718F0AB
:100FD00071F49EF567C10EF4E0950B2EBA2FA02D8B
:100FE0000B01B90190010C01CA01A0011124FF27D6
:100FF000591B99F0593F50F4503E68F11A16F040D1
:10100000A22F232F342F4427585FF3CF46953795CF
:101010002795A795F0405395C9F77EF41F16BA0B94
:10102000620B730B840BBAF09150A1F0FF0FBB1F42
:10103000661F771F881FC2F70EC0BA0F621F731F8B
:10104000841F48F4879577956795B795F7959E3FE8
:1010500008F0B3CF9395880F08F09927EE0F979576
:10106000879508950CD0EBC0E3D040F0DAD030F093
:1010700021F45F3F19F0CCC0511115C1CFC0F0D0A1
:1010800098F39923C9F35523B1F3951B550BBB274F
:10109000AA2762177307840738F09F5F5F4F220FFC
:1010A000331F441FAA1FA9F333D00E2E3AF0E0E8F5
:1010B00030D091505040E695001CCAF729D0FE2F41
:1010C00027D0660F771F881FBB1F261737074807D3
:1010D000AB07B0E809F0BB0B802DBF01FF27935889
:1010E0005F4F2AF09E3F510568F092C0DCC05F3F21
:1010F000ECF3983EDCF3869577956795B795F79571
:101100009F5FC9F7880F911D9695879597F9089568
:10111000E1E0660F771F881FBB1F62177307840704
:10112000BA0720F0621B730B840BBA0BEE1F88F713
:10113000E095089504D06894B111B5C0089598D091
:1011400088F09F5790F0B92F9927B751A0F0D1F0B0
:10115000660F771F881F991F1AF0BA95C9F712C03A
:10116000B13081F09FD0B1E008959CC0672F782FF7
:101170008827B85F39F0B93FCCF3869577956795A6
:10118000B395D9F73EF490958095709561957F4F12
:101190008F4F9F4F0895E89409C097FB3EF49095B8
:1011A0008095709561957F4F8F4F9F4F9923A9F040
:1011B000F92F96E9BB279395F695879577956795CF
:1011C000B795F111F8CFFAF4BB0F11F460FF1BC013
:1011D0006F5F7F4F8F4F9F4F16C0882311F096E9A6
:1011E00011C0772321F09EE8872F762F05C0662354
:1011F00071F096E8862F70E060E02AF09A95660F0D
:10120000771F881FDAF7880F9695879597F90895C5
:1012100097F99F6780E870E060E008959FEF80ECA9
:10122000089500240A94161617061806090608954C
:1012300000240A9412161306140605060895092EB2
:101240000394000C11F4882352F0BB0F40F4BF2B21
:1012500011F460FF04C06F5F7F4F8F4F9F4F089561
:1012600057FD9058440F551F59F05F3F71F0479557
:10127000880F97FB991F61F09F3F79F0879508953C
:10128000121613061406551FF2CF4695F1DF08C05B
:10129000161617061806991FF1CF86957105610578
:1012A00008940895E894BB2766277727CB0197F920
:1012B00008950BD0C4CFB5DF28F0BADF18F095231E
:1012C00009F0A6CFABCF1124EECFCADFA0F3959FD4
:1012D000D1F3950F50E0551F629FF001729FBB271D
:1012E000F00DB11D639FAA27F00DB11DAA1F649FC9
:1012F0006627B00DA11D661F829F2227B00DA11D7C
:10130000621F739FB00DA11D621F839FA00D611D01
:10131000221F749F3327A00D611D231F849F600D22
:10132000211D822F762F6A2F11249F5750408AF05B
:10133000E1F088234AF0EE0FFF1FBB1F661F771FE7
:10134000881F91505040A9F79E3F510570F060CF23
:10135000AACF5F3FECF3983EDCF3869577956795CF
:10136000B795F795E7959F5FC1F7FE2B880F911D05
:0C1370009695879597F90895F894FFCFA3
:00000001FF
