:100000000C9417050C9434050C9434050C943405A9
:100010000C9434050C9434050C9434050C9434057C
:100020000C9434050C9434050C9434050C9434056C
:100030000C9434050C9434050C9434050C9434055C
:100040000C9434050C9434050C9434050C9434054C
:100050000C9434050C9434050C9434050C9434053C
:100060000C9434050C9434050101010101000000D9
:100070000000000000000000000000000000000080
:10008000000000000000000000000001000000006F
:10009000000000000000000101000001010100005B
:1000A0000000000000000000000000000000000050
:1000B000000000000000000000000000000101003E
:1000C000000000000000000001010000010001002C
:1000D000010000000000000000000000000000001F
:1000E000000000000000000000000000000000010F
:1000F00000010000000000000001000000000000FE
:1001000001000000000000000000000000000000EE
:1001100000000000000000000000000000000000DF
:1001200000010000010000000001000000000000CC
:1001300001010001010000000000000000000000BB
:1001400000000000000000000000000000000000AF
:10015000000000010000000101010100000000009A
:10016000000000010001000000000000000000008D
:10017000000000000000000000000000000000007F
:10018000000000000100000000000001000100006C
:10019000000000000100000001000000000000005D
:1001A000000000000000000000000000000000004F
:1001B000000000000001000000000001010100003B
:1001C000000000000000000000000000000000002F
:1001D000000000000000000000000000000000001F
:1001E000000000000000010101010000010000000A
:1001F00000000000000000000000000000000000FF
:1002000000000000000000000000000000000000EE
:1002100000000000000000010100000001010000DA
:1002200000000000000000000000000000000000CE
:1002300000000000000000000000000000000000BE
:1002400000000000000000000000010100000000AC
:10025000000000000000000000000000000000009E
:10026000000000000000000000000000000000008E
:10027000000000000000000000000000010000007D
:10028000000000000000000000000000000000006E
:10029000000000000000000000000000000000005E
:1002A000000000000000000000000000000001014C
:1002B000010000000000000000000000000000003D
:1002C000000000000000000000000000000000002E
:1002D000000000000000000000000000000000001E
:1002E000010001000000000000000000000000000C
:1002F00000000000000000000000000000000000FE
:1003000000000000000000000000000000000000ED
:1003100000000100000100000000000000000000DB
:1003200000000000000000000000000000000000CD
:1003300000000000000000000000000000000000BD
:1003400000000001000000010000000000000000AB
:10035000000000000000000000000000000000009D
:10036000000000000000000000000000000000008D
:10037000000000000000010000010000000000007B
:10038000000000000000000000000000000000006D
:10039000000000000000000000000000000000005D
:1003A000000000000000000001000001000000004B
:1003B000000000000000000000000000000000003D
:1003C000000000000000000000000000000000002D
:1003D000000000000000000000010000010000001B
:1003E000000000000000000000000000000000000D
:1003F00000000000000000000000000000000000FD
:1004000000000000000000000000000100010000EA
:1004100000000000000000000000000000000000DC
:1004200000000000000000000000000000000000CC
:1004300000000000000000000000010101000001B8
:1004400000000000000000000000000000000000AC
:10045000000000000000000000000000000000009C
:10046000000000000000000000000100000100008A
:10047000000100000000000000000000000000007B
:10048000000000000000000000000000000000006C
:100490000000000000000000000000010001010059
:1004A000000000010000000000000000000000004B
:1004B000000000000000000000000000000000003C
:1004C000000000000000000000000000000101002A
:1004D000000000000100000000000000000000001B
:1004E000000000000000000000000000000000000C
:1004F00000000000000000000100000000000100FA
:1005000000000000000001000000000000000000EA
:1005100000000000000000000000000000000000DB
:1005200000000000000000000000000000000100CA
:1005300001000000000000010001000000000000B8
:1005400000000000000000000000000000000000AB
:100550000000000000000000000000010101010196
:100560000000000000000000010001000000000089
:10057000000000000000000000000000000000007B
:10058000000000000000000000000000010000006A
:100590000001010000000101010100000000000055
:1005A000000000000000000000000000000000004B
:1005B0000000000000000000000100000101000038
:1005C0000100010000010001000000000100000026
:1005D000000000000000000000000000000000001B
:1005E000000000000000000000000000000001000A
:1005F00001000000010101000100000000000000F6
:1006000000000000000000000000000000000000EA
:1006100000000000000000000000000000000101D8
:1006200000010001000101000001000000000000C5
:1006300000000000000000000000000000000000BA
:1006400000000000000000000000000000000000AA
:100650000100000001010100000000000000000096
:100660000000000100000000000000000000000089
:10067000000000000000000000000000000000007A
:100680000100010000010000000000000000000067
:10069000000000000000000000000000000000005A
:1006A000000000000000000000000000000000004A
:1006B0000000000000010001000000000000000038
:1006C000000000000000000000000000000000002A
:1006D000000000000000000000000000000000001A
:1006E0000000000000000001000100000000000008
:1006F00000000000000000000000000000000000FA
:1007000000000000000000000000000000000000E9
:1007100000000000000000000001010000000000D7
:1007200000000000000000000000000000000000C9
:1007300000000000000000000000000000000000B9
:1007400000000000000000000000010100000000A7
:100750000000000000000000000000000000000099
:100760000000000000000000000000000000000089
:100770000000000000000000000000000001010077
:100780000000000000000000000000000000000069
:100790000000000000000000000000000000000059
:1007A0000000000000000000000000000000010048
:1007B0000000000000000000000000000000000039
:1007C0000000000000000000000000000000000029
:1007D0000000000000000000000000000000000019
:1007E0000000000000000000000000000000000009
:1007F00000000000000000000000000000000000F9
:1008000000000000000000000000000000000000E8
:1008100000000000000000000000000000000000D8
:1008200000000000000000000000000000000000C8
:1008300000000000000000000000000000000000B8
:1008400000000000000000000000000000000000A8
:100850000000000000000000000000000000000098
:100860000000000000000000000000000000000088
:100870000000000000010000000000000000000077
:100880000000000000000000000000000000000068
:100890000000000000000000000000000000000058
:1008A0000000000000000000000000000000000048
:1008B0000000000000000000000000000000000038
:1008C0000000000000000000000000000000000028
:1008D0000000000000000000000000000000000018
:1008E0000000000000000000000000000000000008
:1008F00000000000000000000000000000000000F8
:1009000000000000000000010001000000000000E5
:1009100000000000000000000000000000000000D7
:1009200001010100010101000101000000010100BD
:1009300000000000000000000001010000000000B5
:1009400000000000000000000000000000000000A7
:100950000000010001000100010001000100010090
:100960000100000000000000000000000000000086
:100970000000000000000000000000000000000077
:100980000000000001000101010001000100000160
:100990000000010000000000000000000000000056
:1009A0000000000000000000000000000000000047
:1009B0000000000000000100000000000100010034
:1009C0000100010001000000000001010000000022
:1009D0000000000000000000000000000000000017
:1009E0000000000000000000010001010100010101
:1009F00001000101010001010100010100000000EE
:100A000000000000000000000000000000000000E6
:100A100000000000000000000000010001000100D3
:100A2000010001000100010001000100BB071124C9
:100A30001FBECFEFD8E0DEBFCDBF11E0A0E0B1E038
:100A400001C01D92A834B107E1F71AE0CEE2DAE066
:100A500004C02297FE010E94CE08CC32D107C9F70C
:100A60000E94E1060C94840A0C9400008F3F2FEF43
:100A70009207C1F061157105B9F06130710599F403
:100A8000883091059CF180319105D4F18831910530
:100A90004CF42AB14097082E01C0660F0A94EAF779
:100AA000262B2AB908950895883091059CF080314D
:100AB000910584F188319105ACF74AB1409721E066
:100AC00030E0082E01C0220F0A94EAF72095242373
:100AD0002AB9089594B121E030E0082E01C0220F18
:100AE0000A94EAF72095292324B9089524B1AB018B
:100AF00002C0440F551F8A95E2F7242B24B90895AC
:100B000027B10897082E01C0660F0A94EAF7262B32
:100B100027B9089547B1089721E030E0082E01C0B9
:100B2000220F0A94EAF72095242327B908958F3FCE
:100B30002FEF9207E1F088309105D4F080319105D4
:100B400054F1883191059CF44BB1409721E030E09D
:100B5000082E01C0220F0A94EAF720952423AB0146
:100B600002C0440F551F8A95E2F7242B2BB9089534
:100B700095B121E030E0082E01C0220F0A94EAF777
:100B800020952923AB0102C0440F551F8A95E2F737
:100B9000242B25B9089548B1089721E030E0082EAC
:100BA00001C0220F0A94EAF720952423AB0102C06A
:100BB000440F551F8A95E2F7242B28B908958F3FDB
:100BC0004FEF940701F18830910594F08031910541
:100BD000F4F088319105ACF42BB130E0409702C0BD
:100BE000359527958A95E2F721703327C901089535
:100BF00025B130E002C0359527958A95E2F721703E
:100C00003327C901089520E030E0C901089528B1D3
:100C100030E0089702C0359527958A95E2F7217054
:100C20003327C90108958F3F4FEF940701F18830B2
:100C3000910594F080319105F4F088319105ACF480
:100C400029B130E0409702C0359527958A95E2F7A3
:100C500021703327C901089523B130E002C03595D2
:100C600027958A95E2F721703327C901089520E07E
:100C700030E0C901089526B130E0089702C03595EB
:100C800027958A95E2F721703327C9010895181630
:100C900019066CF420E030E0E9EFF0E03197F1F76D
:100CA00000C000002F5F3F4F28173907A9F70895AC
:100CB00020E030E04AE754E40E94210A0E949F09A4
:100CC0001616170664F480E090E0E9EFF0E0319743
:100CD000F1F700C00000019686179707B1F7089555
:100CE0001816190644F420E030E000002F5F3F4F53
:100CF00028173907D1F70895AF92BF92CF92DF92AC
:100D0000EF92FF920F931F93CF93DF936B017C01C0
:100D100069EE76E286E392E40E94D2082CE934EC94
:100D200040EE5EE30E9437090E949F09EB01239782
:100D3000C00FD11F82E38C9F80018D9F100D112465
:100D400022EB3DED45EF52E4C701B6010E94D20807
:100D500029E739EE46E05FE30E9437090E949F09C8
:100D60006250710924E030E080E090E008591F4FA4
:100D70006233710598F4C233D10580F4F801E60FAF
:100D8000F71FE491E0FBAA24A0F8B12C022E02C0C8
:100D9000AA0CBB1C0A94E2F78A299B29215031092D
:100DA0006F5F7F4F2F3F4FEF340711F7DF91CF91E8
:100DB0001F910F91FF90EF90DF90CF90BF90AF9079
:100DC0000895CF93DF9300D000D000D0CDB7DEB729
:100DD000C12CD12C1A82198266E0462E512C1C821D
:100DE0001B8266246394712C8B819C8165E070E08A
:100DF0000E94A40889819A81680F791F6170772702
:100E000080910001909101010E94970554E6A52E62
:100E1000B12CC60167E070E00E94A4086C0192E367
:100E20009C9DF0019D9DF00D1124E859FF4F84E039
:100E300090E000E010E0249120FB882480F8912CC1
:100E4000082E02C0880C991C0A94E2F70829192977
:100E5000019731968F3F2FEF920769F72091460156
:100E60003091470112161306A4F496E2E92E91E0A0
:100E7000F92E220F331F2A5D3E4F190160E070E00A
:100E8000F701819191917F010E949705E214F3048B
:100E9000A9F77201EC18FD08C30102C0880F991F61
:100EA000EA94E2F77C01E094F094209024013090E1
:100EB000250112141304E4F424E031E0F1E02F1AC8
:100EC00031083E832D83B701022C02C075956795CA
:100ED0000A94E2F761707727ED81FE81819191910B
:100EE000FE83ED830E949705F1E02F1A310858F731
:100EF000E0904601F09047011E141F04CCF426E256
:100F000031E0F1E0EF1AF1081901B8010E2C02C02E
:100F1000759567950A94E2F761707727F1018191E1
:100F200091911F010E949705F1E0EF1AF10868F70F
:100F300089EF90E00197F1F700C00000C60101962B
:100F4000E1E0AE1AB108A114B10409F063CF6C015D
:100F50008B819C8101969C838B838D9709F044CF74
:100F6000E981FA813196FA83E98337970CF437CF18
:100F70001A82198234CF0F931F93CF93DF9388E0A7
:100F800090E0909327018093260189E090E0909370
:100F90002901809328018AE090E090932B018093AF
:100FA0002A018BE090E090932D0180932C018CE03E
:100FB00090E090932F0180932E018FEF9FEF9093FD
:100FC00031018093300190933301809332019093EB
:100FD00035018093340190933701809336019093CB
:100FE00039018093380190933B0180933A019093AB
:100FF0003D0180933C0190933F0180933E0190938B
:10100000410180934001909343018093420190936A
:1010100045018093440108E211E0C0E0D0E088E09F
:1010200090E008C0F801819191918F018F3FFFEF0F
:101030009F0741F061E070E00E9436052196C031C3
:10104000D10581F7D0934701C093460182E190E03A
:10105000909305018093040183E190E09093070150
:101060008093060184E190E0909309018093080148
:1010700085E190E090930B0180930A0186E190E076
:1010800090930D0180930C0187E190E090930F0104
:1010900080930E0187E090E09093110180931001FE
:1010A0008FEF9FEF9093130180931201909315019E
:1010B0008093140190931701809316019093190166
:1010C0008093180190931B0180931A0190931D0146
:1010D00080931C0190931F0180931E019093210126
:1010E00080932001909323018093220106E011E078
:1010F000C0E0D0E082E190E008C0F80181919191D8
:101100008F018F3FFFEF9F0741F061E070E00E9489
:1011100036052196C031D10581F7D0932501C093C2
:10112000240181E090E090930301809302012198D3
:1011300086E090E09093010180930001269ADF9170
:10114000CF911F910F91089597FB072E16F40094ED
:1011500007D077FD09D00E94B80807FC05D03EF4FF
:10116000909581959F4F0895709561957F4F089553
:10117000AA1BBB1B51E107C0AA1FBB1FA617B707BD
:1011800010F0A61BB70B881F991F5A95A9F78095D9
:101190009095BC01CD010895EE0FFF1F0590F491CD
:1011A000E02D09945058BB27AA270ED010C101D1B9
:1011B00030F006D120F031F49F3F11F41EF4F6C058
:1011C0000EF4E095E7FBECC0E92F12D180F3BA17DB
:1011D000620773078407950718F071F49EF52AC11A
:1011E0000EF4E0950B2EBA2FA02D0B01B901900142
:1011F0000C01CA01A0011124FF27591B99F0593F86
:1012000050F4503E68F11A16F040A22F232F342FCD
:101210004427585FF3CF469537952795A795F0401B
:101220005395C9F77EF41F16BA0B620B730B840B30
:10123000BAF09150A1F0FF0FBB1F661F771F881FE8
:10124000C2F70EC0BA0F621F731F841F48F4879540
:1012500077956795B795F7959E3F08F0B3CF93952F
:10126000880F08F09927EE0F9795879508950CD071
:10127000AEC0A6D040F09DD030F021F45F3F19F011
:101280008FC05111D8C092C0B3D098F39923C9F33D
:101290005523B1F3951B550BBB27AA27621773077C
:1012A000840738F09F5F5F4F220F331F441FAA1F30
:1012B000A9F333D00E2E3AF0E0E830D091505040F0
:1012C000E695001CCAF729D0FE2F27D0660F771F9E
:1012D000881FBB1F261737074807AB07B0E809F080
:1012E000BB0B802DBF01FF2793585F4F2AF09E3F15
:1012F000510568F055C09FC05F3FECF3983EDCF3AA
:10130000869577956795B795F7959F5FC9F7880F8D
:10131000911D9695879597F90895E1E0660F771FDF
:10132000881FBB1F621773078407BA0720F0621B70
:10133000730B840BBA0BEE1F88F7E095089504D069
:101340006894B11178C008955BD088F09F5790F0F1
:10135000B92F9927B751A0F0D1F0660F771F881FDA
:10136000991F1AF0BA95C9F712C0B13081F062D056
:10137000B1E008955FC0672F782F8827B85F39F0F4
:10138000B93FCCF3869577956795B395D9F73EF439
:1013900090958095709561957F4F8F4F9F4F0895E1
:1013A00097F99F6780E870E060E008959FEF80EC18
:1013B000089500240A9416161706180609060895BB
:1013C00000240A9412161306140605060895092E21
:1013D0000394000C11F4882352F0BB0F40F4BF2B90
:1013E00011F460FF04C06F5F7F4F8F4F9F4F0895D0
:1013F00057FD9058440F551F59F05F3F71F04795C6
:10140000880F97FB991F61F09F3F79F087950895AA
:10141000121613061406551FF2CF4695F1DF08C0C9
:10142000161617061806991FF1CF869571056105E6
:1014300008940895E894BB2766277727CB0197F98E
:1014400008950BD0C4CFB5DF28F0BADF18F095238C
:1014500009F0A6CFABCF1124EECFCADFA0F3959F42
:10146000D1F3950F50E0551F629FF001729FBB278B
:10147000F00DB11D639FAA27F00DB11DAA1F649F37
:101480006627B00DA11D661F829F2227B00DA11DEA
:10149000621F739FB00DA11D621F839FA00D611D70
:1014A000221F749F3327A00D611D231F849F600D91
:1014B000211D822F762F6A2F11249F5750408AF0CA
:1014C000E1F088234AF0EE0FFF1FBB1F661F771F56
:1014D000881F91505040A9F79E3F510570F060CF92
:1014E000AACF5F3FECF3983EDCF38695779567953E
:1014F000B795F795E7959F5FC1F7FE2B880F911D74
:0C1500009695879597F90895F894FFCF11
:00000001FF
