:100000000C9417050C943F050C943F050C943F0588
:100010000C943F050C943F050C943F050C943F0550
:100020000C943F050C943F050C943F050C943F0540
:100030000C943F050C943F050C943F050C943F0530
:100040000C943F050C943F050C943F050C943F0520
:100050000C943F050C943F050C943F050C943F0510
:100060000C943F050C943F050101010101000000C3
:100070000000000000000000000000000000000080
:10008000000000000000000000000001000000006F
:10009000000000000000000101000001010100005B
:1000A0000000000000000000000000000000000050
:1000B000000000000000000000000000000101003E
:1000C000000000000000000001010000010001002C
:1000D000010000000000000000000000000000001F
:1000E000000000000000000000000000000000010F
:1000F00000010000000000000001000000000000FE
:1001000001000000000000000000000000000000EE
:1001100000000000000000000000000000000000DF
:1001200000010000010000000001000000000000CC
:1001300001010001010000000000000000000000BB
:1001400000000000000000000000000000000000AF
:10015000000000010000000101010100000000009A
:10016000000000010001000000000000000000008D
:10017000000000000000000000000000000000007F
:10018000000000000100000000000001000100006C
:10019000000000000100000001000000000000005D
:1001A000000000000000000000000000000000004F
:1001B000000000000001000000000001010100003B
:1001C000000000000000000000000000000000002F
:1001D000000000000000000000000000000000001F
:1001E000000000000000010101010000010000000A
:1001F00000000000000000000000000000000000FF
:1002000000000000000000000000000000000000EE
:1002100000000000000000010100000001010000DA
:1002200000000000000000000000000000000000CE
:1002300000000000000000000000000000000000BE
:1002400000000000000000000000010100000000AC
:10025000000000000000000000000000000000009E
:10026000000000000000000000000000000000008E
:10027000000000000000000000000000010000007D
:10028000000000000000000000000000000000006E
:10029000000000000000000000000000000000005E
:1002A000000000000000000000000000000001014C
:1002B000010000000000000000000000000000003D
:1002C000000000000000000000000000000000002E
:1002D000000000000000000000000000000000001E
:1002E000010001000000000000000000000000000C
:1002F00000000000000000000000000000000000FE
:1003000000000000000000000000000000000000ED
:1003100000000100000100000000000000000000DB
:1003200000000000000000000000000000000000CD
:1003300000000000000000000000000000000000BD
:1003400000000001000000010000000000000000AB
:10035000000000000000000000000000000000009D
:10036000000000000000000000000000000000008D
:10037000000000000000010000010000000000007B
:10038000000000000000000000000000000000006D
:10039000000000000000000000000000000000005D
:1003A000000000000000000001000001000000004B
:1003B000000000000000000000000000000000003D
:1003C000000000000000000000000000000000002D
:1003D000000000000000000000010000010000001B
:1003E000000000000000000000000000000000000D
:1003F00000000000000000000000000000000000FD
:1004000000000000000000000000000100010000EA
:1004100000000000000000000000000000000000DC
:1004200000000000000000000000000000000000CC
:1004300000000000000000000000010101000001B8
:1004400000000000000000000000000000000000AC
:10045000000000000000000000000000000000009C
:10046000000000000000000000000100000100008A
:10047000000100000000000000000000000000007B
:10048000000000000000000000000000000000006C
:100490000000000000000000000000010001010059
:1004A000000000010000000000000000000000004B
:1004B000000000000000000000000000000000003C
:1004C000000000000000000000000000000101002A
:1004D000000000000100000000000000000000001B
:1004E000000000000000000000000000000000000C
:1004F00000000000000000000100000000000100FA
:1005000000000000000001000000000000000000EA
:1005100000000000000000000000000000000000DB
:1005200000000000000000000000000000000100CA
:1005300001000000000000010001000000000000B8
:1005400000000000000000000000000000000000AB
:100550000000000000000000000000010101010196
:100560000000000000000000010001000000000089
:10057000000000000000000000000000000000007B
:10058000000000000000000000000000010000006A
:100590000001010000000101010100000000000055
:1005A000000000000000000000000000000000004B
:1005B0000000000000000000000100000101000038
:1005C0000100010000010001000000000100000026
:1005D000000000000000000000000000000000001B
:1005E000000000000000000000000000000001000A
:1005F00001000000010101000100000000000000F6
:1006000000000000000000000000000000000000EA
:1006100000000000000000000000000000000101D8
:1006200000010001000101000001000000000000C5
:1006300000000000000000000000000000000000BA
:1006400000000000000000000000000000000000AA
:100650000100000001010100000000000000000096
:100660000000000100000000000000000000000089
:10067000000000000000000000000000000000007A
:100680000100010000010000000000000000000067
:10069000000000000000000000000000000000005A
:1006A000000000000000000000000000000000004A
:1006B0000000000000010001000000000000000038
:1006C000000000000000000000000000000000002A
:1006D000000000000000000000000000000000001A
:1006E0000000000000000001000100000000000008
:1006F00000000000000000000000000000000000FA
:1007000000000000000000000000000000000000E9
:1007100000000000000000000001010000000000D7
:1007200000000000000000000000000000000000C9
:1007300000000000000000000000000000000000B9
:1007400000000000000000000000010100000000A7
:100750000000000000000000000000000000000099
:100760000000000000000000000000000000000089
:100770000000000000000000000000000001010077
:100780000000000000000000000000000000000069
:100790000000000000000000000000000000000059
:1007A0000000000000000000000000000000010048
:1007B0000000000000000000000000000000000039
:1007C0000000000000000000000000000000000029
:1007D0000000000000000000000000000000000019
:1007E0000000000000000000000000000000000009
:1007F00000000000000000000000000000000000F9
:1008000000000000000000000000000000000000E8
:1008100000000000000000000000000000000000D8
:1008200000000000000000000000000000000000C8
:1008300000000000000000000000000000000000B8
:1008400000000000000000000000000000000000A8
:100850000000000000000000000000000000000098
:100860000000000000000000000000000000000088
:100870000000000000010000000000000000000077
:100880000000000000000000000000000000000068
:100890000000000000000000000000000000000058
:1008A0000000000000000000000000000000000048
:1008B0000000000000000000000000000000000038
:1008C0000000000000000000000000000000000028
:1008D0000000000000000000000000000000000018
:1008E0000000000000000000000000000000000008
:1008F00000000000000000000000000000000000F8
:1009000000000000000000010001000000000000E5
:1009100000000000000000000000000000000000D7
:1009200001010100010101000101000000010100BD
:1009300000000000000000000001010000000000B5
:1009400000000000000000000000000000000000A7
:100950000000010001000100010001000100010090
:100960000100000000000000000000000000000086
:100970000000000000000000000000000000000077
:100980000000000001000101010001000100000160
:100990000000010000000000000000000000000056
:1009A0000000000000000000000000000000000047
:1009B0000000000000000100000000000100010034
:1009C0000100010001000000000001010000000022
:1009D0000000000000000000000000000000000017
:1009E0000000000000000000010001010100010101
:1009F00001000101010001010100010100000000EE
:100A000000000000000000000000000000000000E6
:100A100000000000000000000000010001000100D3
:100A2000010001000100010001000100D621112494
:100A30001FBECFEFD8E0DEBFCDBF11E0A0E0B1E038
:100A4000EEE8FBE402C005900D92A839B107D9F792
:100A500014E0A8E9B1E001C01D92A633B107E1F7A7
:100A60001AE0CEE2DAE004C02297FE010E94B3232E
:100A7000CC32D107C9F70E94E81E0C94C5250C940E
:100A800000008F3F2FEF9207C1F061157105B9F09B
:100A90006130710599F4883091059CF180319105A0
:100AA000D4F1883191054CF42AB14097082E01C049
:100AB000660F0A94EAF7262B2AB90895089588301C
:100AC00091059CF08031910584F188319105ACF756
:100AD0004AB1409721E030E0082E01C0220F0A946D
:100AE000EAF7209524232AB9089594B121E030E053
:100AF000082E01C0220F0A94EAF72095292324B971
:100B0000089524B1AB0102C0440F551F8A95E2F746
:100B1000242B24B9089527B10897082E01C0660F29
:100B20000A94EAF7262B27B9089547B1089721E0E0
:100B300030E0082E01C0220F0A94EAF72095242302
:100B400027B908958F3F2FEF9207E1F08830910584
:100B5000D4F08031910554F1883191059CF44BB16A
:100B6000409721E030E0082E01C0220F0A94EAF7F6
:100B700020952423AB0102C0440F551F8A95E2F74C
:100B8000242B2BB9089595B121E030E0082E01C047
:100B9000220F0A94EAF720952923AB0102C0440FE3
:100BA000551F8A95E2F7242B25B9089548B1089777
:100BB00021E030E0082E01C0220F0A94EAF72095C8
:100BC0002423AB0102C0440F551F8A95E2F7242B62
:100BD00028B908958F3F4FEF940701F188309105B0
:100BE00094F080319105F4F088319105ACF42BB18B
:100BF00030E0409702C0359527958A95E2F721703D
:100C00003327C901089525B130E002C035952795F5
:100C10008A95E2F721703327C901089520E030E07A
:100C2000C901089528B130E0089702C0359527958D
:100C30008A95E2F721703327C90108958F3F4FEF5E
:100C4000940701F18830910594F080319105F4F01A
:100C500088319105ACF429B130E0409702C0359558
:100C600027958A95E2F721703327C901089523B1AA
:100C700030E002C0359527958A95E2F72170332739
:100C8000C901089520E030E0C901089526B130E09F
:100C9000089702C0359527958A95E2F7217033278A
:100CA000C9010895181619066CF420E030E0E9EF48
:100CB000F0E03197F1F700C000002F5F3F4F281799
:100CC0003907A9F7089520E030E04AE754E40E948C
:100CD00043250E9484241616170664F480E090E0F1
:100CE000E9EFF0E03197F1F700C0000001968617B8
:100CF0009707B1F708951816190644F420E030E07C
:100D000000002F5F3F4F28173907D1F7089505C01E
:100D100090E19A95F1F700C081508111F9CF0895C3
:100D2000882351F094E120E12A95F1F700C0915019
:100D3000D1F78150B9F708950895259A2498239AF8
:100D4000229A2A9A81E58CBD81E08DBD08951CBC54
:100D500008958EBD0DB407FEFDCF0895181619062F
:100D600074F44FEF3FEF3EBD0DB407FEFDCF2EB53F
:100D7000421303C001970097B1F78EB5089591957E
:100D800081959109D1F340E03FEFEDCFFC016F5F1A
:100D90007F4F161617060CF520E030E0CF016130CA
:100DA000710519F001964081242B48E004C0220F00
:100DB000331F415041F037FFFACF59E83527220F52
:100DC000331F4150C1F7615071096115710511F070
:100DD000FC01E4CF832F8695089580E00895CF939A
:100DE000DF93FC01EB01DB0112961A161B0654F58A
:100DF00020E030E040E050E0BA01CF012C173D0781
:100E00001CF40196E0814E2BE8E0440F551F661F4D
:100E1000771F70FF06C0F1E25F27F0E16F27F1E076
:100E20007F27E15091F72F5F3F4F2A173B0714F4BC
:100E3000FC01E3CF452F562F672F7727CA01DF919B
:100E4000CF91089580E090E0FACFCF93DF9300D068
:100E500000D000D0CDB7DEB78F73806489837A83EA
:100E60006B835C834D8365E070E0CE0101960E9448
:100E7000C606880F81608E8363E09E01295F3F4F25
:100E80005FEF5EBD0DB407FEFDCFFE01319681918F
:100E90008EBD0DB407FEFDCFE217F307C1F78AE060
:100EA00090E05EBD0DB407FEFDCF4EB54F3F19F487
:100EB00001970097B1F78EB5982F9E7F11F0615082
:100EC00001F726960FB6F894DEBF0FBECDBFDF91B7
:100ED000CF9108951F93CF93DF930E949D068AE0E0
:100EE00090E02FEF2EBD0DB407FEFDCF01970097C8
:100EF000C9F72A9840E050E0BA0180E00E94250737
:100F00008FEF8EBD0DB407FEFDCF2A9AC4E6D0E068
:100F10001FEF2A9840E050E0BA0187E30E942507BE
:100F200040E050E0BA0189E20E9425071EBD0DB4E1
:100F300007FEFDCF2A9A80FF11C02AE094E130E13C
:100F40003A95F1F700C09150D1F72150B9F72197A8
:100F50002097F9F6DF91CF911F9108958111FACF73
:100F60002A9841E050E060E070E08BE30E942507A2
:100F70009FEF9EBD0DB407FEFDCF2A9ADF91CF9162
:100F80001F9108951CBC08959F92AF92BF92CF927B
:100F9000DF92EF92FF920F931F93CF93DF936B013A
:100FA0007C018A0189E0CC0CDD1CEE1CFF1C8A95BB
:100FB000D1F793E0A92EBB24BA942A98B701A601D1
:100FC00081E10E942507982E811114C020E137E2AB
:100FD000BEBC0DB407FEFDCF8EB58F3F29F4215066
:100FE000310921153105A1F78EB58E3F31F18823E6
:100FF00009F1982EBEBC0DB407FEFDCF2A9A9110C0
:101000000AC060E072E0C8010E94EF06C817D90765
:1010100021F0A8E09A2EAA9481F6892DDF91CF9134
:101020001F910F91FF90EF90DF90CF90BF90AF9006
:101030009F90089599249A94DDCFF80122E032E040
:1010400061E072E0BEBC0DB407FEFDCF8EB58EB57B
:101050002330310564F0DF0111968083611571053D
:1010600049F26150710921503109FD01EBCF223065
:10107000310519F0C82BDF01F1CFC82FD0E0DC2FEC
:10108000CC27DF01EECF8F929F92AF92BF92CF928B
:10109000DF92EF92FF920F931F93CF93DF931F92F4
:1010A000CDB7DEB76B017C018A0160E072E0CA0156
:1010B0000E94EF06B82E29E0CC0CDD1CEE1CFF1CB4
:1010C0002A95D1F733E0832E4EEFA42E99249A94DB
:1010D0002A98B701A60188E199830E942507998182
:1010E00081113BC0AEBC0DB407FEFDCFF80122E07C
:1010F00032E0233031050CF448C0608131966EBD7A
:101100000DB407FEFDCF215031092115310589F7B6
:101110002AE030E09EBC0DB407FEFDCF4EB54F3F38
:1011200029F42150310921153105A1F72EB5322FAF
:101130003F71353079F520E137E29EBC0DB407FEF2
:10114000FDCF6EB5611105C0215031092115310562
:10115000A1F72EB5222309F4BCCF9EBC0DB407FE27
:10116000FDCF2A9A882319F08A9409F0B1CF0F9005
:10117000DF91CF911F910F91FF90EF90DF90CF9073
:10118000BF90AF909F908F9008952230310521F04D
:101190006B2DB5CF822FE1CF692FB1CFAF92BF9228
:1011A000CF92DF92EF92FF920F931F93CF93DF9333
:1011B000CDB7DEB760970FB6F894DEBF0FBECDBFD8
:1011C0008C01C62E83E0A82EBB24BA942A9840E056
:1011D00050E0BA0189E00E942507D82E811114C081
:1011E00020E137E2BEBC0DB407FEFDCF8EB58F3FC8
:1011F00029F42150310921153105A1F78EB58E3F13
:1012000061F1882339F1D82EBEBC0DB407FEFDCFA5
:101210002A9AD1100BC060E170E0CE0101960E94C5
:10122000EF06E816F906C1F158E0D52EAA9471F63A
:101230008D2D60960FB6F894DEBF0FBECDBFDF9147
:10124000CF911F910F91FF90EF90DF90CF90BF90C3
:10125000AF900895DD24DA94D7CF22E130E041E168
:1012600050E0FE013196BEBC0DB407FEFDCF8EB539
:101270008EB52330310554F08083319641155105E8
:1012800019F24150510921503109EDCF2230310579
:1012900009F445C0E82AF2CFC110CACF498550E011
:1012A000042E452F000C441F550B000C441F551FE6
:1012B000888590E0880F991F880F991F482B592B1C
:1012C0008F81837090E0982F8827990F990F482B72
:1012D000592B4F5F5F4F662757FD6095762F2A8504
:1012E000237030E0220F331F8B8590E0880F892F09
:1012F000881F990B282B392B2E5F3F4F8E818F70C3
:10130000280F311D04C0440F551F661F771F2A95F3
:10131000D2F7F801408351836283738389CFE82E2B
:10132000F12CFE2CEE24ADCFCF93C82F9091660107
:1013300097FD07C088E18093980180E090E0CF910D
:1013400008950E946A07882331F08F3FA9F085E055
:1013500080939801F2CF4EEB51E060E070E0CB015A
:101360000E94C4078111F3CF8091BC03853541F001
:1013700083E180939801E1CF81E080939801DDCFF4
:101380008091BD038A3AA1F78091BE018B3EC9F1DD
:1013900080E1C802F0011124E458FC4F84818111DE
:1013A00004C082E080939801C8CF80936901808552
:1013B0009185A285B38580936A0190936B01A09378
:1013C0006C01B0936D0184859585A685B785809362
:1013D0006E0190936F01A0937001B09371018FEF34
:1013E0009FEFDC018093720190937301A0937401CD
:1013F000B0937501109267011092660186E691E044
:101400009ECF8FEF8093690110926A0110926B0159
:1014100010926C0110926D0180E090E0A0E4B0E0C9
:1014200080936E0190936F01A0937001B09371014E
:10143000D6CF0F931F93CF93DF93EC018981811156
:1014400009C01CBC8FEF888380E0DF91CF911F9192
:101450000F9108956C857D858E859F850C811D81FA
:101460002E813F81600F711F821F931F4EEB51E051
:101470000E944308882329F385E0809398018FEF29
:10148000E4CFCF92DF92EF92FF920F931F93CF930F
:10149000DF93EC016A017B010C851D852E853F855C
:1014A000041715072607370779F1898181111CC0B8
:1014B0006C817D818E819F816C0D7D1D8E1D9F1D98
:1014C0004EEB51E00E94C407811120C0CC86DD861E
:1014D000EE86FF8680E0DF91CF911F910F91FF9004
:1014E000EF90DF90CF9008956C817D818E819F81F8
:1014F000600F711F821F931F4EEB51E00E94430843
:10150000811104C01982D4CF80E0E5CF85E08093BB
:1015100098018FEFE0CFCF92DF92EF92FF920F937F
:101520001F93CF93DF93EC016A017B010C851D852E
:101530002E853F85041715072607370739F089815F
:10154000811110C0CC86DD86EE86FF8681E089831E
:1015500080E0DF91CF911F910F91FF90EF90DF908E
:10156000CF9008956C817D818E819F81600F711F66
:10157000821F931F4EEB51E00E944308882311F312
:1015800085E0809398018FEFE4CF8F929F92AF9286
:10159000BF92CF92DF92EF92FF920F931F93CF9360
:1015A000DF93EC014B015A018A898C3009F44EC05B
:1015B000C72EDD248B01000F111F1170EE24D7FC04
:1015C000E094FE2C89819A81AB81BC81C80ED91E22
:1015D000EA1EFB1EB701A6018EA19FA10E94410A2F
:1015E000882381F007EF1FEFC801DF91CF911F9192
:1015F0000F91FF90EF90DF90CF90BF90AF909F90B2
:101600008F900895F801E254FE4F008111818A897C
:101610008C3091F18EEFA8168FEFB80629F3B182C6
:10162000A082B9881B144CF0DFCF8F859889C80E33
:10163000D91EE11CF11CBA94B9F2B701A6018EA122
:101640009FA10E948B0A882381F3CCCF8B01169532
:101650000795080D191D6801CD2CDD0CDD08C5941A
:1016600011700F3F21E0120709F0A8CF8FEFC81AC1
:10167000D80A00E010E0A2CFC4018170992780FC55
:1016800019C01F70073F2FE0120708F0106F2EEFF0
:10169000A2162FEFB20609F4A7CF892B91F0A294DE
:1016A000B29430EFB322BA24A322BA2480818F707F
:1016B000A82AB5CF129502950F7001271F70012738
:1016C000E1CFC5019F70A180BB24A7FCB09420EF9F
:1016D000A222BB24BA2CAA24A82AB92AA0CF603FF0
:1016E0002FEF720710F40C94C50ACB010895CF9226
:1016F000DF92EF92FF920F931F93CF93DF938C01B2
:101700007B01FC012585368521153105D1F0C0E02E
:10171000D0E004C02196C217D30798F4C03FFFEF72
:10172000DF07C0F74EEF5FEFBE01C8010E94C50A98
:10173000892BA9F0F801258536852196C217D30794
:1017400068F38CE18093980187EF9FEFDF91CF9151
:101750001F910F91FF90EF90DF90CF9008954FEF82
:101760005FEFBE01C8010E94C50A873FFFEF9F07D8
:1017700069F3F2E0EF16F104F8F0C70102978E3E2C
:101780009F4F90F4DE2CCF2C02C0D82EC92E4EEFE6
:101790005FEF6D2D7C2DC8010E94C50A9C0122506F
:1017A00031092E3E3F4F88F3AE016D2D7C2DC801CF
:1017B0000E94C50A099641F2CE01C8CFEF92FF926E
:1017C0000F931F93CF93DF937C018B01603F2FEF2B
:1017D000720710F024C08E014EEF5FEFB801C70111
:1017E0000E94C50AEC01C73F8FEFD807C1F040E067
:1017F00050E0B801C7010E94C50A099691F0C03FA8
:101800008FEFD80740F381E0299609F080E08195B9
:10181000DF91CF911F910F91FF90EF900895E80114
:10182000F2CF80E0F5CF9F92AF92BF92CF92DF923E
:10183000EF92FF920F931F93CF93DF937B01EC0105
:101840008C01FBE0BF2EA0E2AA2EB0E49B2EF80193
:10185000A1928F01F70180818132DCF08E3279F123
:10186000FFEFEF1AFF0A992787FD90950E94A625A2
:1018700088838232F1F090E002C08217D1F09F5F3E
:10188000E92FFF27E7FDF095E458FE4F2081211155
:10189000F4CFBA942196B110DACFDF91CF911F9196
:1018A0000F91FF90EF90DF90CF90BF90AF909F90FF
:1018B00008959882BA942196B110C9CFEECFF3E083
:1018C000FB153CF3670182E0C80ED11CF701818152
:1018D000992787FD90950E94A62588837601C9CF18
:1018E0004F925F926F927F92AF92BF92CF92DF92B0
:1018F000EF92FF920F931F93CF93DF938C012A01F6
:101900003B0159012D3F8FEF380709F493C06A015D
:101910007B01F801058C04C0F594E794D794C79433
:101920000A94D2F7A601068CF78DE02DE217F30793
:10193000B1F1F9019F01225031092E3EBFEF3B0763
:10194000B0F4452B09F43FC0E60102C02097D9F15D
:1019500021974EEF5FEFBF01C8010E94C50AFC014D
:101960009C01225031092E3E8FEF380778F33996CB
:1019700009F475C087E0809398016FEF7FEFCB018A
:10198000DF91CF911F910F91FF90EF90DF90CF905B
:10199000BF90AF907F906F905F904F900895D80167
:1019A00090962D913C9191972C153D0519F6D801F3
:1019B0009296ED91FC9193979F01225031092E3E12
:1019C000BFEF3B07A0F6D80157960C90579702C07F
:1019D000220F331F0A94E2F719966D917D918D9134
:1019E0009C911C97620F731F811D911DC9E0759416
:1019F000679457944794CA95D1F758962C91589765
:101A0000332727FD3095432F532F42225322642240
:101A10007522640D751D861D971D5F96BC92AE9252
:101A20005E979196DC92CE9290979396FC93EE936C
:101A30009297A6CFCB01BA01D9E095958795779576
:101A40006795DA95D1F7D80115960D911D912D91D5
:101A50003C911897600F711F821F931F91CF6FEFFA
:101A60007FEFCB018DCF2F923F924F925F926F927B
:101A70007F928F929F92AF92BF92CF92DF92EF921E
:101A8000FF920F931F93CF93DF9300D000D0CDB779
:101A9000DEB79A8389831B018A01FC01408451844B
:101AA00062847384C480D580E680F780C418D5082A
:101AB000E608F708A12CB12C141615060CF05DC031
:101AC0001C141D041E041F040CF057C0812C82E05E
:101AD000982E44C0AB01BC01E981FA8182899389C7
:101AE0000E94410A811146C0C20191709401281BD5
:101AF000390BBC0162547E4FC901AA2797FDA095FE
:101B0000BA2FC816D906EA06FB060CF4960102178E
:101B100013070CF49801A901C1012B833C830E9497
:101B2000AE252B813C81C901AA2797FDA095BA2F2C
:101B3000480E591E6A1E7B1EA20EB31EC81AD90A71
:101B4000EA0AFB0A021B130B220E331E10161106A3
:101B500064F51C141D041E041F043CF5E981FA8180
:101B600022813381B301A201808991890E94700C86
:101B700097FFB0CFAA24AA94BA2CC5010F900F905A
:101B80000F900F90DF91CF911F910F91FF90EF90E9
:101B9000DF90CF90BF90AF909F908F907F906F908D
:101BA0005F904F903F902F9008951A141B042CF7CC
:101BB000E981FA8180859185A285B385A501662793
:101BC00057FD6095762F840F951FA61FB71F80873E
:101BD0009187A287B387D1CF0F931F93213079F0DC
:101BE000223011F12223A1F086E1809398014FEF7A
:101BF0005FEFBA01CB01BA011F910F910895FC016B
:101C00000085118522853385400F511F621F731F88
:101C100077FD05C0FC014087518762877387CB0140
:101C2000BA011F910F910895FC014481558166818D
:101C30007781EECFBF92CF92DF92EF92FF920F9318
:101C40001F93CF93DF938C01EB017A01B22EFC013D
:101C500084A195A1FC011086118612861386C22EDE
:101C6000DD24C7FCD09440E250E0BE010E94330D59
:101C7000809781F58881882349F0A601B701CE01BC
:101C80000E94B725892BE1F421E00FC082E0809308
:101C900098014B2D552747FD5095B701CE010E9465
:101CA000B72521E0892B09F020E0822FDF91CF9129
:101CB0001F910F91FF90EF90DF90CF90BF9008950C
:101CC000F80184A195A140E250E0BE010E94330DCD
:101CD000809781F22FEFE9CF0F931F93CF93DF937C
:101CE000EC0108891989898181FF5BC04C855D857C
:101CF0006E857F8577FD55C0F80184A195A1FC0113
:101D00004087518762877387452B462B472B09F401
:101D10005CC040E250E069E971E00E94330D8097B9
:101D200009F053C08A819B819093B4018093B301E1
:101D30008C819D81AE81BF818093B5019093B60166
:101D4000A093B701B093B8018091BB019091BC0101
:101D50009093A8018093A7018091640190916501FF
:101D60009093AA018093A9014C855D856E857F853E
:101D7000F80184A195A177FD28C0FC014087518717
:101D800062877387452B462B472BF9F040E250E0E2
:101D900069E971E00E94EB0E8097B9F489818D7F2B
:101DA000898340E050E0BA01F80186A197A10E9422
:101DB000410A91E0882339F0892F8195DF91CF91F5
:101DC0001F910F91089590E0F7CF8FEFDF91CF91A2
:101DD0001F910F9108952F923F924F925F926F92B1
:101DE0007F928F929F92AF92BF92CF92DF92EF92AB
:101DF000FF920F931F93CF93DF93EC011B018A0196
:101E0000898180FF19C08DE080939801A12CB12CAD
:101E1000C501DF91CF911F910F91FF90EF90DF905F
:101E2000CF90BF90AF909F908F907F906F905F907A
:101E30004F903F902F900895C884D984EA84FB8402
:101E4000A12CB12C141615061CF72A813B8111C058
:101E500080919801873009F048C06A817B81888928
:101E600099890E94770B2A813B812115310509F45C
:101E700060C0B701A601888999890E94700C2B0166
:101E80003C0197FDE5CF011582E018070CF45CC01A
:101E9000C60191709C0122543E4F812C42E0942E49
:101EA000881A990AA401B101C9010E94AE25B301A3
:101EB000A2018A899B890E948B0A811116C089819F
:101EC00082608983C401AA2797FDA095BA2FC80E06
:101ED000D91EEA1EFB1EA80CB91C08191909280CEA
:101EE000391C101611060CF4B0CFA114B10409F47A
:101EF0008FCFC501AA2797FDA095BA2F4885598590
:101F00006A857B85840F951FA61FB71F88879987D1
:101F1000AA87BB874C815D816E817F8148175907F5
:101F20006A077B070CF074CF8C839D83AE83BF83DD
:101F30006FCF9B838A83898182608983CE010E94CF
:101F40006C0E87FF82CFD1CFB301A2018A899B8912
:101F50000E94410A8111C9CFC60191709C0122548F
:101F60003E4F812C52E0952E881A990A08151905C2
:101F70000CF098CF480196CF8F929F92AF92BF926C
:101F8000EF92FF920F931F93CF93DF93CDB7DEB7FE
:101F90002D970FB6F894DEBF0FBECDBF5C01E42EC7
:101FA000922E8091280187FD1FC08091140187FD2A
:101FB0002DC18091000187FD2EC188E18093980199
:101FC00000E010E0C8012D960FB6F894DEBF0FBEFA
:101FD000CDBFDF91CF911F910F91FF90EF90BF90F8
:101FE000AF909F908F900895E2E0FE2E08E211E0FE
:101FF000D8015196BC92AE925097F50186A197A157
:1020000053969C938E93529718961D921D921D92F3
:102010001C921B9711961C92FB0180818F3239F51F
:10202000DB0111968C91811122C08DEF9FEFF80199
:1020300093838283D50153968D919C915497880FF9
:10204000991F82959295907F9827807F9827A0E08E
:10205000B0E084839583A683B7834FEF5FEFBA0127
:102060004487558766877787F801F082ABCFCE012A
:1020700001960E94130C1C868981803241F486E10E
:1020800080939801D8018C9187FF9CCF99CF2BE04A
:10209000AE014F5F5F4F69E971E0C5010E941A0E02
:1020A00087FDF0CF811169C0E3FC04C082E080931A
:1020B0009801E8CF85EE8D8721E0AE01435F5F4F49
:1020C00069E971E0C5010E941A0E87FDDBCF8BE044
:1020D000FE013196A9E9B1E001900D928A95E1F7F0
:1020E0009092A4011092A5018091BD018093A60158
:1020F0008091BB019091BC018093A7019093A801AE
:102100008093AF019093B00180916401909165013B
:102110008093A9019093AA018093AB018093B101B0
:102120009093AC019093B2011092B3011092B4015C
:102130001092B5011092B6011092B7011092B80139
:10214000D5019496ED91FC919597408551856285D6
:102150007385405251096109710977FD93CF40871A
:1021600051876287738740E250E069E971E0CF01EF
:102170000E94EB0E809709F085CFD5019496ED91E2
:10218000FC91959780859185A285B385E5FE04C075
:1021900081E18093980176CF2091B3013091B40111
:1021A000F801338322838090B5019090B601A0900E
:1021B000B701B090B80184829582A682B7828097D9
:1021C000A109B10984879587A687B7878091A40163
:1021D00080FD02C0E11007C0D80111968C911197C3
:1021E000816011968C93E4FE05C0F801148215827B
:1021F00016821782E2FE38CFF80184819581A6818C
:10220000B78180879187A287B3872ECFFF24F3946D
:1022100004E111E0EDCEF12C00E011E0E9CECF9326
:10222000DF93EC010E946C0E811106C08FEF888352
:1022300080E0DF91CF9108958FEFFBCFEF92FF9277
:102240000F931F93CF93DF93CDB7DEB72C970FB6C5
:10225000F894DEBF0FBECDBF8C01CE0101960E9467
:10226000130C1C862BE0AE014F5F5F4F69E971E0F4
:10227000C8010E941A0E1816B4F5E090B301F09050
:10228000B40185EE80939901D8019496ED91FC916B
:102290009597408551856285738540525109610942
:1022A000710977FD20C0408751876287738740E2BC
:1022B00050E069E971E0CF010E94EB0E97FD13C079
:1022C000B701C8010E94DE0B880F880B2C960FB651
:1022D000F894DEBF0FBECDBFDF91CF911F910F915C
:1022E000FF90EF9008958FEFF1CF2F923F924F9292
:1022F0005F926F927F929F92AF92BF92CF92DF9246
:10230000EF92FF920F931F93CF93DF9300D000D0F3
:10231000CDB7DEB72FE230E03A83298390913C01BC
:1023200097FD3DC088E18093980124E631E0F901F2
:10233000E4A0F5A0E114F10449F0C7012B833C832C
:102340000E946C0E2B813C81882329F10115110517
:1023500039F0C8012B833C830E94190A3C812B81F0
:102360008FEFF901808380E090E00F900F900F9045
:102370000F90DF91CF911F910F91FF90EF90DF9021
:10238000CF90BF90AF909F907F906F905F904F9055
:102390003F902F9008958FEFF7018083D7CF27EFDD
:1023A0003FEF30935B0120935A012FEF3FEF3093C3
:1023B0005D0120935C0110925F0110925E010E940A
:1023C00094098C01009751F110936301009362010D
:1023D000F8018381813081F0982F9D7F943061F0E6
:1023E0008B3051F08E3041F08F3F31F08FE0809391
:1023F00098012CE331E09BCF40E050E0BA01C801E6
:102400000E94410A81110AC08091BC03853549F0C0
:1024100086E0809398012CE331E089CF2CE331E012
:1024200086CF8091BD038A3A99F78091C901909136
:10243000CA01A091CB01B0E0E090CC01F090CD01B9
:10244000D090CE01D0924D01E091CF01F091D0011A
:10245000F0935001E0934F014091D1015091D2018E
:1024600060E070E0411551056105710541F440914E
:10247000DE015091DF016091E0017091E101609017
:10248000D4017090D5012FE097FDDFC0880F991F10
:102490002150D0F786EFA82EB12C96EF992E13017C
:1024A0000A2C02C0220C331C0A94E2F730924C0131
:1024B00020924B010A2C02C0AA0FBB1F0A94E2F71C
:1024C000B0935201A09351010A2C02C0EE0CFF1CE4
:1024D0000A94E2F7D29CC001D39C900D11248E0D7A
:1024E0009F1D6F01CC0CDD1CC294D29420EFD22230
:1024F000DC24C222DC2421E0C21A2EEFD20ACD2C29
:10250000DD24C694C80ED91E2601612C712C04C08E
:10251000440F551F661F771FAA94D2F74419550917
:10252000660977096701E12CF12CC0923D01D09238
:102530003E01E0923F01F09240016C01E12CF12C50
:10254000C0924101D0924201E0924301F0924401D5
:1025500040924501509246016092470170924801B5
:10256000CD012FE097FD61C0880F991F2150D0F752
:1025700088E0C82E80E0EE24EA94FE2C20935301DC
:1025800080935401CD01982F8827990FAA2797FD92
:10259000A095BA2F8093550190935601A0935701AF
:1025A000B0935801C092590104C07595679557952D
:1025B0004795EA94D2F750934A0140934901453F29
:1025C0002FE0520750F58CE080934E01EF2BF9F08D
:1025D0002328E9F080914E018032C9F08C3011F44B
:1025E000911015C010923C0120E142E0BE016F5FE6
:1025F0007F4F8CE391E00E94BC0F90936101809328
:102600006001892B09F40ACF8CE391E0AECE83E11F
:10261000809398012CE331E08ACE453F2FEF52079B
:10262000C8F480E180934E01D1CFE22EFF24E7FC75
:10263000F0948FEF9FEF022E01C0880F0A94EAF703
:10264000809599E0C92EC20E99CF87EF982E920EF1
:10265000A92C25CF80E280934E01B8CF0F931F9312
:10266000CF93DF93EC010CA11DA10115110581F0A1
:10267000C8010E946C0E882331F08FEFDF91CF915B
:102680001F910F9108958FEFF80180831DA21CA266
:102690008EA19FA10E94190A8111EFCF8FEF88832D
:1026A00080E0DF91CF911F910F9108952FE097FD6A
:1026B00004C0880F991F2150D0F7822F08951092DF
:1026C000C5008CE08093C40082E08093C00086E067
:1026D0008093C20088E18093C10008958091C0007A
:1026E00087FFFCCF8091C6000895AF92BF92CF9232
:1026F000DF92EF92FF920F931F93CF93DF936B01C3
:102700007C0169EE76E286E392E40E94B7232CE92D
:1027100034EC40EE5EE30E941C240E948424EB0112
:102720002397C00FD11F82E38C9F80018D9F100DD6
:10273000112422EB3DED45EF52E4C701B6010E94A2
:10274000B72329E739EE46E05FE30E941C240E948C
:1027500084246250710924E030E080E090E0085960
:102760001F4F6233710598F4C233D10580F4F8012C
:10277000E60FF71FE491E0FBAA24A0F8B12C022E8B
:1027800002C0AA0CBB1C0A94E2F78A299B2921509B
:1027900031096F5F7F4F2F3F4FEF340711F7DF9104
:1027A000CF911F910F91FF90EF90DF90CF90BF904E
:1027B000AF90089518161906CCF420E030E061E0DF
:1027C00070E0AB01440F551F660F771F660F771F30
:1027D000660F771F640F751F2F5F3F4F281739074C
:1027E00081F7882777FD8095982F089561E070E044
:1027F00080E090E008956CE370E00E94482397FD2C
:102800000AC08A3091052CF08432910534F0835E41
:102810000895805D089580E40895895A08956FE1D0
:1028200070E00E94482397FD0AC08A3091052CF081
:102830008E31910531F48FE50895805D089580E42F
:102840000895895A08950F931F93CF93DF93EC0156
:10285000161617063CF540E050E0EFEFFFEF8C0155
:102860000F5F1F4F9F012F5F3F4FDE01A20FB31F6E
:102870008C918C3281F088818823C9F03296EC0FDC
:10288000FD1FD80103C08D91882389F02F5F3F4F32
:1028900081918C32C1F74F5F5F4F4617570761F048
:1028A000F901E0CF20E030E0C20FD31F8881DF9133
:1028B000CF911F910F9108952F5F3F4FF5CF1616BF
:1028C00017060CF04BC040E050E0EFEFFFEF9F0128
:1028D0002F5F3F4FDC01A20FB31FAC91AC3269F008
:1028E000AA23C9F13296E80FF91F02C0AA2399F171
:1028F0002F5F3F4FA191AC32C9F74F5F5F4FF90196
:102900004617570721F73196DF01A80FB91F6C91C1
:102910006C3209F16623F9F03196E80FF91F40E0B7
:1029200050E002C06623A9F09A01220F331F440F22
:10293000551F440F551F440F551F420F531F862F1D
:10294000992787FD9095C097480F591F61916C3268
:1029500049F7CA01089580E090E00895A0E0B0E052
:10296000E0E0F0E0D2CFAC01161617060CF062C022
:1029700080E090E0EFEFFFEF9F012F5F3F4FDA0124
:10298000A20FB31FAC91AC3279F0AA2309F44BC06B
:102990003296E40FF51F03C0AA2309F444C02F5F49
:1029A0003F4FA191AC32C1F70196F9018617970705
:1029B00019F73196DF01A40FB51F2C912C3299F134
:1029C000222389F13196E40FF51F40E050E0BA016F
:1029D00002C0222321F1DB01CA01880F991FAA1F1F
:1029E000BB1FAC01BD01440F551F661F771F440F6D
:1029F000551F661F771F480F591F6A1F7B1F822FA5
:102A0000992787FD9095C097AA2797FDA095BA2F83
:102A1000480F591F6A1F7B1F21912C32D1F6342F8A
:102A2000252FCB0104C030E020E080E090E0632F50
:102A3000722F0895A0E0B0E0E0E0F0E0BCCF4F924C
:102A40005F926F927F929F92AF92BF92CF92DF92EE
:102A5000EF92FF920F931F93CF93DF93EC01161623
:102A60001706B4F520E030E0EFEFFFEFCF0101965D
:102A7000DE01A80FB91F4C914C3261F0442391F054
:102A80003296EC0FFD1F02C0442361F00196419184
:102A90004C32D1F72F5F3F4F2617370709F4A9C0F3
:102AA000FC01E4CFA12CB12CC12CD12CB501C60165
:102AB000DF91CF911F910F91FF90EF90DF90CF901A
:102AC000BF90AF909F907F906F905F904F900895D0
:102AD00080E090E020E030E0FE01E80FF91F9080F8
:102AE0008EE2981609F488C09920E1F289010F5FFF
:102AF0001F4F7E01E00EF11EA12CB12CC12CD12C58
:102B000004C0992099F20F5F1F4F20E030E040E2AF
:102B100051E4B501C6010E9443252B013C01692DFA
:102B2000772767FD709560537109882777FD809539
:102B3000982F0E94B7249B01AC01C301B2010E94EF
:102B4000B8235B016C019801F70191907F01FEE2CF
:102B50009F12D7CFFE01E20FF31F61816C3209F49F
:102B6000A5CF662309F4A2CF89010E5F1F4F0C0F7A
:102B70001D1FC0E0D0E0772767FD70956053710995
:102B8000882777FD8095982F0E94B7242B013C0160
:102B900080E090E061E070E09B01220F331F660F40
:102BA000771F660F771F660F771F620F731F0196DF
:102BB000C817D9078CF7882777FD8095982F0E9432
:102BC000B7249B01AC01C301B2010E941C249B01EC
:102BD000AC01B501C6010E94B8235B016C012196CE
:102BE000F80161918F016C3209F460CF6111C3CF9C
:102BF0005DCF01969C0170CFA12CB12CC12CD12CA2
:102C0000A9CF6F927F928F929F92AF92BF92CF92F5
:102C1000DF92EF92FF920F931F93CF93DF93CDB785
:102C2000DEB7E2970FB6F894DEBF0FBECDBF5C01F2
:102C30004B018091C00087FFFCCF8091C600843299
:102C400041F08091C00087FFFCCF8091C6008432A4
:102C5000C1F78091C00087FFFCCF8091C600873408
:102C600041F78091C00087FFFCCF8091C60080357E
:102C700001F78091C00087FFFCCF8091C6008A35A4
:102C8000C1F68091C00087FFFCCF8091C6008434DC
:102C900081F68091C00087FFFCCF8091C60081340F
:102CA00041F68091C00087FFFCCF8091C6008C3236
:102CB00009F0BFCFFE013196CE01C3962091C0002E
:102CC00027FFFCCF2091C6002193E817F907B1F741
:102CD00060E070E0CE0101960E941F150E948424DE
:102CE00020E137E240E050E00E945C2369017A0174
:102CF000F4013183208360E070E0CE0101960E94F0
:102D00001F154CE9960142038001439F100D1124C9
:102D10000E94842424E630E040E050E00E945C23DE
:102D2000020F131FF4011383028360E070E0CE01F1
:102D300001960E941F1520EF38ED2C9D30012D9D2E
:102D4000700C3C9D700C11240E948424660D771D2C
:102D50002CE92003C001219F900D1124680F791FD9
:102D6000F4017583648361E070E0CE0101960E94F6
:102D70005F14F5019583848362E070E0CE010196D3
:102D80000E945F14F5019383828363E070E0CE01BB
:102D900001960E945F1464E670E00E944823F501EA
:102DA00091838083E2960FB6F894DEBF0FBECDBF4D
:102DB000DF91CF911F910F91FF90EF90DF90CF9017
:102DC000BF90AF909F908F907F906F9008954F929B
:102DD0005F926F927F928F929F92AF92BF92CF92AB
:102DE000DF92EF92FF920F931F93CF93DF93CDB7B4
:102DF000DEB767970FB6F894DEBF0FBECDBF7C017C
:102E00008B016A018AE0EDE8F1E0DE011E96019097
:102E10000D928A95E1F78AE08D87D70114968D91FE
:102E20009C91159701976FE170E00E94482397FDF0
:102E30003FC18A3091050CF012C1805D8E87F80188
:102E4000808191816FE170E00E94482397FD2EC13F
:102E50008A3091050CF021C1805D8F87D8011296D0
:102E6000ED91FC911397CF016EE170E00E94482331
:102E7000CB016FE170E00E94482397FD13C18A30B7
:102E800091050CF004C120E3280F288BCF016EE1DF
:102E900070E00E9448236FE170E00E94482397FD94
:102EA00003C18A3091050CF0E4C0805D898BC601B6
:102EB0006CE370E00E94482397FDE7C08A309105DB
:102EC0000CF0D2C0805D8A8B80E00E947511892B46
:102ED00009F4FDC0F70142815381440F551F42950B
:102EE0005295507F5427407F542784819581482BE9
:102EF000592B808191814496982F8827990F482BD0
:102F0000592B5093650140936401D80112964D915D
:102F10005C911397440F551F42955295507F54274B
:102F2000407F54272C91922F990F990F990F80E091
:102F3000482B592B14968D919C91159795958795B3
:102F4000482B592B5093BC014093BB0120E04CE02F
:102F5000BE01625F7F4F8CE391E00E94BC0F9093B3
:102F6000BA018093B901009709F4AEC0FC0140801A
:102F7000552447FC509457FCA7C08DE089838AE014
:102F80008A8384E1849D5001859DB00C1124C50184
:102F900080509F4F5C0142E050E0BE016F5F7F4F69
:102FA0000E94EB0E9701FE0132963E0198E0690EF9
:102FB000711C7AE0872E912CD9018D919D919D01F4
:102FC0007F01B1E0EB1AF1086AE0C62ED12CB40102
:102FD0000E944823605DD7016C93805D80833296A8
:102FE000E615F70549F7F80180819181B6010E9445
:102FF0004823605D6F83805D888782819381B601FD
:103000000E944823605D6987805D8A8784819581FD
:10301000B6010E944823605D6B87805D8C874DE020
:1030200050E0BE016F5F7F4FC5010E94EB0EC201F1
:1030300067960FB6F894DEBF0FBECDBFDF91CF917C
:103040001F910F91FF90EF90DF90CF90BF90AF90C6
:103050009F908F907F906F905F904F9008958E31EA
:10306000910581F1895AEACE843291054CF5895A4D
:103070002ACF8E31910511F1895A898BC6016CE3F3
:1030800070E00E94482397FF19CF80E41CCF8E3157
:10309000910591F027E5280FF8CE8E31910551F07A
:1030A000895ADBCE20E4F1CE80E400CF80E4D5CE97
:1030B00080E4C4CE8FE5D1CE2FE5E7CE8FE5F6CE06
:1030C000835E01CF8FE5BACE8EEF9FEFB1CF8FEF4A
:1030D0009FEFAECF2F923F924F925F926F927F926F
:1030E0008F929F92AF92BF92CF92DF92EF92FF9218
:1030F0000F931F93CF93DF93CDB7DEB7CE53D1405D
:103100000FB6F894DEBF0FBECDBFCF5CDE4F998304
:103110008883C153D140CD5CDE4F79836883C3532C
:10312000D140CB5CDE4F59834883C553D140C95C45
:10313000DE4F39832883C753D140C75CDE4F1983E4
:103140000883C953D140C55CDE4FF982E882CB5376
:10315000D140C35CDE4FD982C882CD53D140A12C6F
:10316000B12C1FEBE12EFF24FA9404E0C02ED12CE9
:103170009E012B593F4FC35DDE4F39832883CD52CB
:10318000D1401E0139EC230E311C9E01235D3E4FC0
:10319000C15DDE4F39832883CF52D1408091C0007A
:1031A00087FFFCCF5090C6000091120410911304C9
:1031B00010161106C4F4B2EF8B2EB3E09B2E015013
:1031C0001109B701002E02C0759567950A94E2F7C0
:1031D00061707727F401819191914F010E94A205BE
:1031E0000150110970F78090F0039090F1031814CA
:1031F0001904DCF400ED13E0880C991C94012053B1
:103200003C4F490180E090E03C01660C771CF801DE
:10321000819191918F010E941E0686299729081598
:10322000190591F7029709F45FC2809034049090D9
:103230003504181419049CF404E114E0880C991C5A
:1032400094012C5E3B4F490160E070E0F8018191F0
:1032500091918F010E94A20508151905A9F7F4E2C2
:103260005F1641F08091C00087FFFCCF8091C600BF
:103270008432C1F78091C00087FFFCCF8091C600E7
:10328000873409F453C13FE0A316B10409F086CF97
:10329000C0901204D09013041C141D04E4F402EF37
:1032A00013E081E0C81AD1086EEFE62EFF24FA94ED
:1032B000B7010C2C02C0759567950A94E2F761700E
:1032C0007727F801819191918F010E94A205F1E089
:1032D000CF1AD10868F741E4441261C260E070E09F
:1032E000CE0101960E941F150E94842420E137E23E
:1032F00040E050E00E945C2369017A01CF5CDE4F20
:10330000E881F981C153D1403183208360E070E0CE
:10331000CE0101960E941F155CE9B52E4B2D96013A
:1033200042038001439F100D11240E94842424E64F
:1033300030E040E050E00E945C23020F131FCF5C9E
:10334000DE4FE881F981C153D1401383028360E0ED
:1033500070E0CE0101960E941F1520EF38ED2C9DE4
:1033600040012D9D900C3C9D900C11240E948424C2
:10337000680D791D2B2D2003C001219F900D112474
:10338000680F791FCF5CDE4FE881F981C153D140CE
:103390007583648361E070E0CE0101960E945F1442
:1033A000CD5CDE4FE881F981C353D140958384839E
:1033B00062E070E0CE0101960E945F14CD5CDE4FAA
:1033C000E881F981C353D1409383828363E070E045
:1033D000CE0101960E945F1464E670E00E944823CB
:1033E000CD5CDE4FE881F981C353D1409183808366
:1033F00066E070E0CE0187539F4F0E945F14CB5C64
:10340000DE4FE881F981C553D1409183808363E029
:1034100070E0CE0187539F4F0E941F1520E030E0DF
:1034200048EC52E40E941C24C95CDE4FE881F9811B
:10343000C753D140608371838283938361E070E0DE
:10344000CE0187539F4F0E941F1520E030E048ECCB
:1034500052E40E941C24C75CDE4FE881F981C95305
:10346000D140608371838283938367E070E0CE01F3
:103470008B599F4F0E941F15C55CDE4FE881F98173
:10348000CB53D140608371838283938360E070E08B
:10349000CE018B599F4F0E941F15C35CDE4FE88100
:1034A000F981CD53D14060837183828393830091EE
:1034B00012041091130410161106E4F432EFE32EF7
:1034C00033E0F32E015011094EEFC42EDD24DA94BF
:1034D000B601002E02C0759567950A94E2F76170F7
:1034E0007727F701819191917F010E94A2050150F8
:1034F000110970F780E090E0C25CDE4F0FB6F894DF
:10350000DEBF0FBECDBFDF91CF911F910F91FF9016
:10351000EF90DF90CF90BF90AF909F908F907F9073
:103520006F905F904F903F902F9008958091C000D2
:1035300087FFFCCF8091C600803509F0A4CE809132
:10354000C00087FFFCCF8091C600873409F44AC0D1
:10355000863509F48AC08A3509F095CE8091C0007D
:1035600087FFFCCF8091C600843409F08CCE809117
:10357000C00087FFFCCF8091C600813409F083CE64
:103580008091C00087FFFCCF8091C6008C3209F08B
:103590007ACE8091C00087FFFCCF1091C6006FEEFD
:1035A0007FEF82EF93E00E94C11E812F8F7D8A30D2
:1035B000B1F0FE01319611938091C00087FFFCCFDE
:1035C0001091C600812F8F7D8A3049F0C35DDE4F98
:1035D00028813981CD52D140E217F30761F7689411
:1035E000A3F851CE8091C00087FFFCCF8091C60028
:1035F000873409F49AC08C3409F045CE8091C0001C
:1036000087FFFCCF8091C6008C3409F03CCE8091BE
:10361000C00087FFFCCF8091C6008C3209F033CE0A
:103620008091C00087FFFCCF1091C6006BEF7FEF49
:1036300082EF93E00E94C11E812F8F7D8A3009F4B2
:10364000B1C0412E84E690E02091C00027FFFCCF5E
:103650002091C600322F3F7D3A3009F4A3C0019774
:10366000009709F49FC0422EEFCF8091C00087FFE2
:10367000FCCF8091C600843509F005CE8091C00052
:1036800087FFFCCF8091C600873409F0FCCD809184
:10369000C00087FFFCCF8091C6008C3209F0F3CDCB
:1036A0008091C00087FFFCCF1091C60067EF7FEFCD
:1036B00082EF93E00E94C11E812F8F7D8A3089F0B6
:1036C000FE01EB59FF4F11938091C00087FFFCCFA3
:1036D0001091C600812F8F7D8A3019F0E215F30515
:1036E00091F76894A2F8CFCD00913404109135047D
:1036F000101611060CF0B3CDE4E18E2EE4E09E2E00
:1037000001501109B601002E02C0759567950A9403
:10371000E2F761707727F401819191914F010E9446
:10372000A2050150110970F79ACD8091C00087FF62
:10373000FCCF8091C600813409F0A5CD8091C000F6
:1037400087FFFCCF8091C6008C3209F09CCD809120
:10375000C00087FFFCCF1091C6006DEF7FEF82EFB6
:1037600093E00E94C11E812F8F7D8A30A9F0F10164
:1037700011938091C00087FFFCCF1091C600812F6C
:103780008F7D8A3049F0C15DDE4F28813981CF526B
:10379000D140E217F30761F76894A0F874CD8FEF7A
:1037A0009FEFAACE6894A1F86ECD2F923F924F92D0
:1037B0005F926F927F928F929F92AF92BF92CF92C1
:1037C000DF92EF92FF920F931F93CF93DF93CDB7CA
:1037D000DEB7A3970FB6F894DEBF0FBECDBF9BA395
:1037E0008AA3FB014901DA0114968D919C911597EA
:1037F0006CE370E00E94482397FDA9C18A309105CF
:103800000CF06CC1805D89839F01FE0132962E0110
:10381000B5E04B0E511CBCE36B2E712CD9018D9180
:103820009D919D01B3010E94482397FD81C18A307B
:1038300091050CF070C1805D8193E415F50571F779
:10384000C4016CE370E00E94482397FD7EC18A307A
:1038500091050CF075C1805D8D8320E030E040EF74
:1038600052E4C801B7010E94B72320E034E244E7E4
:1038700059E40E9443250E9484242B013C0120E04E
:1038800030E040EA51E4C601B5010E94B72320E0D0
:1038900034E244E759E40E9443250E9484246B01EA
:1038A0007C0120E030E048EC52E468AD79AD8AADAF
:1038B0009BAD0E9443250E9484246A8F7B8F8C8F4E
:1038C0009D8F20E030E048EC52E46CAD7DAD8EADD4
:1038D0009FAD0E9443250E9484246E8F7F8F88A312
:1038E00099A38E010A5F1F4F22242394312C2C0EA2
:1038F0003D1EBAE02B0E311CACE3AA2EB12CC30145
:10390000B2012CE330E040E050E00E945C23CB01A8
:10391000B5010E94482397FDF0C08A3091050CF054
:10392000E7C0805DF80181938F01C301B2012CE3F0
:1039300030E040E050E00E945C2329013A0102158A
:103940001305E9F68E01055F1F4F22242394312CC5
:103950002C0E3D1EFFE02F0E311C7CE3872E912C98
:10396000A12CB12CECE36E2E712CC701B601A50180
:1039700094010E945C23CB01B3010E94482397FD70
:10398000BEC08A3091050CF0AEC0805DD8018D9329
:103990008D01C701B601A50194010E945C23690154
:1039A0007A010215130509F78E01005F1F4FCC2421
:1039B000C394D12CCC0EDD1EB2E1CB0ED11C4CE356
:1039C000842E912CA12CB12C5CE3E52EF12C4A8C99
:1039D0005B8C6C8C7D8CC301B201A50194010E94AB
:1039E0005C23CB01B7010E94482397FD9DC08A301C
:1039F00091050CF08BC0805DF80181938F01C301AC
:103A0000B201A50194010E945C2329013A010C1521
:103A10001D0509F78E010D5E1F4FCC24C394D12CD8
:103A2000CC0EDD1EF5E1CF0ED11C9CE3892E912C2E
:103A3000A12CB12C2CE3E22EF12C4E8C5F8C68A0D3
:103A400079A0C301B201A50194010E945C23CB01BE
:103A5000B7010E94482397FD69C08A3091050CF098
:103A600050C0805DD8018D938D01C301B201A501C5
:103A700094010E945C2329013A010C151D0509F7E8
:103A80008DE08E8B8AE08F8B24E1EAA1FBA12E9F33
:103A9000C0012F9F900D112447E150E0BE016F5FE0
:103AA0007F4F80509F4F0E94EB0EA3960FB6F89465
:103AB000DEBF0FBECDBFDF91CF911F910F91FF9061
:103AC000EF90DF90CF90BF90AF909F908F907F90BE
:103AD0006F905F904F903F902F90089584329105A2
:103AE000D4F5895A90CE84329105E4F4895A4ECFA8
:103AF00084329105ACF4895A15CF80E413CF80E469
:103B000045CF84329105C4F4895AACCF84329105F3
:103B1000ACF4895A71CF8432910564F4895A8CCE01
:103B2000835E00CF835E32CF80E466CF80E49ACF9D
:103B300080E482CE835E80CE835E94CF835E5CCF52
:103B40008432910534F4895A87CE80E485CE80E4AE
:103B50005ACE835E81CE835E56CE2F923F924F9295
:103B60005F926F927F928F929F92AF92BF92CF920D
:103B7000DF92EF92FF920F931F93CF93DF9300D0CA
:103B800000D000D0CDB7DEB74B015C0129833A836A
:103B90004B835C838AE090E09E838D8336E0232E06
:103BA000312C412C512C820129813A814B815C813D
:103BB000C501B4010E9475133C01E0903404F090FB
:103BC00035041E141F049CF404E114E0EE0CFF1CE9
:103BD000C7018C5E9B4F7C0160E070E0F801819131
:103BE00091918F010E94A2050E151F05A9F7810171
:103BF00006191709E1E0F0E002C0EE0FFF1F0A9579
:103C0000E2F78F0100951095209112043091130472
:103C100012161306DCF492EFC92E93E0D92E790127
:103C2000F1E0EF1AF108B8010E2C02C07595679506
:103C30000A94E2F761707727F601819191916F0103
:103C40000E94A205F1E0EF1AF10868F70091340430
:103C50001091350410161106C4F484E1E82E84E0B6
:103C6000F82E01501109B301002E02C07595679519
:103C70000A94E2F761707727F701819191917F01B2
:103C80000E94A2050150110970F7E9EFF0E03197A9
:103C9000F1F700C00000FFEF4F1A5F0A87E04816F7
:103CA000510409F080CF8D819E8101979E838D8381
:103CB000892B09F076CF26960FB6F894DEBF0FBE9B
:103CC000CDBFDF91CF911F910F91FF90EF90DF90CB
:103CD000CF90BF90AF909F908F907F906F905F90AC
:103CE0004F903F902F900895CF93DF9324E1289F2A
:103CF000E001299FD00D1124C050DF4FCE010E945A
:103D00006C0E81110DC08FEF88838CE391E00E94CF
:103D10002E1387FD0AC080E090E0DF91CF910895D7
:103D20008FEF9FEFDF91CF9108958EEF9FEFFACF46
:103D3000EF92FF920F931F93CF93DF93FC01E0A0CC
:103D4000F1A01E141F04D4F4EC01EE0CFF1CEE0EC7
:103D5000FF1E80E090E08C01000F111F8991999166
:103D60000E941E06802B912BCE15DF05A1F7DF9157
:103D7000CF911F910F91FF90EF90089580E090E018
:103D8000F6CFEF92FF920F931F93CF93DF937B01B8
:103D9000FC01C0A1D1A11C161D069CF48C01219729
:103DA000B7010C2E02C0759567950A94E2F7617011
:103DB0007727F801819191918F010E94A2052197A7
:103DC00078F7DF91CF911F910F91FF90EF900895B9
:103DD0002F923F924F925F926F927F928F929F921B
:103DE000AF92BF92CF92DF92EF92FF920F931F9309
:103DF000CF93DF93CDB7DEB7A0970FB6F894DEBFB1
:103E00000FBECDBF26E03E0187E0680E711CF301B6
:103E1000822F11928A95E9F7E6E7F1E0DE0111962B
:103E2000822F01900D928A95E1F71E8E1D8E80E003
:103E300090E0A7E0B3E4898F9A8FAB8FBC8F80E0CE
:103E400090E0ACE0B2E48D8B9E8BAF8BB88F198A7B
:103E50001A8A1B8A1C8A1D861E861F86188A109243
:103E6000C5008CE08093C40082E08093C000209362
:103E7000C20088E18093C10080ED93E00E94981E0B
:103E800080FF1BC080E090E0A0960FB6F894DEBFE4
:103E90000FBECDBFDF91CF911F910F91FF90EF909B
:103EA000DF90CF90BF90AF909F908F907F906F905A
:103EB0005F904F903F902F90089560E070E0809168
:103EC000CE039091CF030E94A20560E070E084E1F0
:103ED00094E00E94C11E6EEF7FEF82EF93E00E949C
:103EE000C11E61E070E084E194E00E94C11E61E0C7
:103EF00070E08091CC039091CD030E94A205B301A4
:103F0000CE0101960E94011662E070E084E194E027
:103F10000E94C11E18A21F8E4F8D58A1B301CE0161
:103F200001960E94E7164C0197FD75C163E070E0B1
:103F300084E194E00E94C11E212C312C210180914A
:103F4000CE039091CF030E94EA0561E070E0892BD7
:103F500011F060E070E08091CE039091CF030E9459
:103F6000A205E0903404F09035041E141F049CF464
:103F700004E114E0EE0CFF1CC7018C5E9B4F7C013A
:103F800060E070E0F801819191918F010E94A2059B
:103F90000E151F05A9F75401CE010D966C01FE0107
:103FA00071967F018E010B5E1F4F9E01275E3F4F72
:103FB000AE01435E5F4FBE016F5F7F4FC3010E9442
:103FC0006A18892B09F067C1E090F003F090F103C3
:103FD0001E141F04DCF400ED13E0EE0CFF1CC701FF
:103FE00080539C4F7C0180E090E06C01CC0CDD1C88
:103FF000F801819191918F010E941E068C299D29C3
:104000000E151F0591F7029709F483C1E09034045F
:10401000F09035041E141F049CF404E114E0EE0C2F
:10402000FF1CC7018C5E9B4F7C0160E070E0F801D3
:10403000819191918F010E94A2050E151F05A9F78C
:10404000AD88BE88CF88D88CE98CFA8C0B8D1C8DFE
:104050002D8D3E8D88898F938F858F938E858F933D
:104060008D858F938C898F938B898F938A898F937A
:1040700089898F93AE014F5F5F4FB301C4010E94E6
:10408000D51B7C010FB6F894DEBF0FBECDBF97FDE8
:10409000E2C08FEF281A380A480A580AE090F00365
:1040A000F090F1031E141F04E4F5EE0CFF1CC70191
:1040B00080539C4F7C0100ED13E080E090E06C01A8
:1040C000CC0CDD1CF801819191918F010E941E069C
:1040D0008C299D290E151F0591F780FD67C0E09082
:1040E000F003F090F1031E141F04DCF4EE0CFF1C2F
:1040F000C70180539C4F7C0100ED13E080E090E00D
:104100006C01CC0CDD1CF801819191918F010E9412
:104110001E068C299D290E151F0591F7029709F49B
:104120001AC1E0903404F09035041E141F049CF46E
:1041300004E114E0EE0CFF1CC7018C5E9B4F7C0178
:1041400060E070E0F801819191918F010E94A205D9
:104150000E151F05A9F7E090F003F090F1031E146F
:104160001F04DCF400ED13E0EE0CFF1CC7018053CC
:104170009C4F7C0180E090E06C01CC0CDD1CF801D0
:10418000819191918F010E941E068C299D290E1507
:104190001F0591F7029709F49AC0F0EA2F16F2EF83
:1041A0003F06FCE64F0651040CF4C9CE66E070E011
:1041B00084E194E00E94C11EC4010E94741E7C012F
:1041C00097FDD4C080ED93E00E94981E80FD08C04A
:1041D0008F8D98A1019698A38F8F0A9709F09CCE96
:1041E00067E070E084E194E00E94C11E60E070E04E
:1041F0008091CC039091CD030E94A20560E070E015
:1042000084E194E00E94C11E6FEF7FEF82EF93E0A4
:104210000E94C11E37CE0091120410911304101693
:104220001106ECF772EFE72E73E0F72E015011093B
:10423000B401002E02C0759567950A94E2F761708B
:104240007727F701819191917F010E94A20501508A
:10425000110970F7E0CF00911204109113041016A9
:104260001106ECF792EFC92E93E0D92E01501109F7
:10427000B701002E02C0759567950A94E2F7617048
:104280007727F601819191916F010E94A20501505B
:10429000110970F7E0CFE0903404F09035041E145B
:1042A0001F040CF0FBCE04E114E0EE0CFF1CF70140
:1042B000EC5EFB4F7F0160E070E0F801819191912D
:1042C0008F010E94A2050E151F05A9F7E7CE0091E8
:1042D000340410913504101611060CF05ECF54E131
:1042E000E52E54E0F52E0150110963E070E0002E38
:1042F00002C0759567950A94E2F761707727F70118
:10430000819191917F010E94A2050150110968F7E6
:1043100044CF0091340410913504101611060CF0AE
:104320008FCE34E1E32E34E0F32E0150110965E025
:1043300070E0002E02C0759567950A94E2F76170EF
:104340007727F701819191917F010E94A205015089
:10435000110968F775CE2D893E894F89588D698D71
:104360007A8D8B8D9C8D0E94AD1DF5CE009112042F
:104370001091130410161106ECF742EFC42E43E01F
:10438000D42E01501109B701002E02C07595679512
:104390000A94E2F761707727F601819191916F019C
:1043A0000E94A2050150110970F7E0CF0F931F93EF
:1043B000CF93DF9388E090E09093150480931404EA
:1043C00089E090E090931704809316048AE090E0CF
:1043D00090931904809318048BE090E090931B0451
:1043E00080931A048CE090E090931D0480931C0449
:1043F0008FEF9FEF90931F0480931E0490932104EE
:1044000080932004909323048093220490932504A6
:104410008093240490932704809326049093290486
:104420008093280490932B0480932A0490932D0466
:1044300080932C0490932F0480932E049093310446
:1044400080933004909333048093320406E114E0A7
:10445000C0E0D0E088E090E008C0F801819191913F
:104460008F018F3FFFEF9F0741F061E070E00E94F6
:1044700041052196C031D10581F7D0933504C09311
:10448000340482E190E09093F3038093F20383E19C
:1044900090E09093F5038093F40384E190E090938F
:1044A000F7038093F60385E190E09093F9038093FE
:1044B000F80386E190E09093FB038093FA0387E191
:1044C00090E09093FD038093FC0387E090E090934D
:1044D000FF038093FE038FEF9FEF9093010480937F
:1044E0000004909303048093020490930504809346
:1044F0000404909307048093060490930904809326
:10450000080490930B0480930A0490930D04809305
:104510000C0490930F0480930E04909311048093E5
:10452000100404EF13E082E190E0C0E0D0E008C0A6
:10453000F801819191918F018F3FFFEF9F0741F02B
:1045400061E070E00E9441052196C031D10581F7FC
:10455000D0931304C09312041092D1031092D0038D
:1045600081E090E09093D3038093D2038FEF9FEF8D
:104570009093D5038093D4039093D7038093D6036D
:104580009093D9038093D8039093DB038093DA034D
:104590009093DD038093DC039093DF038093DE032D
:1045A0009093E1038093E0039093E3038093E2030D
:1045B0009093E5038093E4039093E7038093E603ED
:1045C0009093E9038093E8039093EB038093EA03CD
:1045D0009093ED038093EC039093EF038093EE03AD
:1045E00002ED13E0C0E0D0E080E090E008C0F80108
:1045F000819191918F018F3FFFEF9F0741F060E024
:1046000070E00E9441052196C031D10581F7D09319
:10461000F103C093F00386E090E09093CF03809382
:10462000CE03269A82E090E09093CD038093CC0352
:10463000229A519850982CE02093C2031092C30301
:1046400080E895E29093C5038093C4031092C5005F
:104650002093C40088E090E09093C7038093C60342
:104660001092CB031092CA0381E090E09093C903AB
:104670008093C80382E08093C00088E18093C100EA
:1046800086E08093C200DF91CF911F910F91089532
:1046900097FB072E16F4009407D077FD09D00E94EF
:1046A0007B2307FC05D03EF4909581959F4F08959C
:1046B000709561957F4F0895052E97FB1EF4009429
:1046C0000E94732357FD07D00E948F2307FC03D05D
:1046D0004EF40C94732350954095309521953F4F9F
:1046E0004F4F5F4F089590958095709561957F4FDE
:1046F0008F4F9F4F0895AA1BBB1B51E107C0AA1FF4
:10470000BB1FA617B70710F0A61BB70B881F991F72
:104710005A95A9F780959095BC01CD010895A1E225
:104720001A2EAA1BBB1BFD010DC0AA1FBB1FEE1F2B
:10473000FF1FA217B307E407F50720F0A21BB30B76
:10474000E40BF50B661F771F881F991F1A9469F7F2
:1047500060957095809590959B01AC01BD01CF014E
:104760000895EE0FFF1F0590F491E02D0994505825
:10477000BB27AA270ED04DC13ED130F043D120F047
:1047800031F49F3F11F41EF433C10EF4E095E7FBC2
:1047900029C1E92F4FD180F3BA1762077307840745
:1047A000950718F071F49EF567C10EF4E0950B2E95
:1047B000BA2FA02D0B01B90190010C01CA01A00173
:1047C0001124FF27591B99F0593F50F4503E68F1CE
:1047D0001A16F040A22F232F342F4427585FF3CF0F
:1047E000469537952795A795F0405395C9F77EF4E0
:1047F0001F16BA0B620B730B840BBAF09150A1F029
:10480000FF0FBB1F661F771F881FC2F70EC0BA0FAE
:10481000621F731F841F48F4879577956795B79536
:10482000F7959E3F08F0B3CF9395880F08F099272E
:10483000EE0F9795879508950CD0EBC0E3D040F02C
:10484000DAD030F021F45F3F19F0CCC0511115C11E
:10485000CFC0F0D098F39923C9F35523B1F3951B3A
:10486000550BBB27AA2762177307840738F09F5F91
:104870005F4F220F331F441FAA1FA9F333D00E2E00
:104880003AF0E0E830D091505040E695001CCAF76D
:1048900029D0FE2F27D0660F771F881FBB1F261732
:1048A00037074807AB07B0E809F0BB0B802DBF0105
:1048B000FF2793585F4F2AF09E3F510568F092C042
:1048C000DCC05F3FECF3983EDCF386957795679507
:1048D000B795F7959F5FC9F7880F911D96958795B6
:1048E00097F90895E1E0660F771F881FBB1F6217D5
:1048F00073078407BA0720F0621B730B840BBA0B93
:10490000EE1F88F7E095089504D06894B111B5C002
:10491000089598D088F09F5790F0B92F9927B751F4
:10492000A0F0D1F0660F771F881F991F1AF0BA9573
:10493000C9F712C0B13081F09FD0B1E008959CC09A
:10494000672F782F8827B85F39F0B93FCCF3869569
:1049500077956795B395D9F73EF4909580957095C6
:1049600061957F4F8F4F9F4F0895E89409C097FB43
:104970003EF490958095709561957F4F8F4F9F4F36
:104980009923A9F0F92F96E9BB279395F69587957A
:1049900077956795B795F111F8CFFAF4BB0F11F43D
:1049A00060FF1BC06F5F7F4F8F4F9F4F16C08823E4
:1049B00011F096E911C0772321F09EE8872F762F1A
:1049C00005C0662371F096E8862F70E060E02AF05B
:1049D0009A95660F771F881FDAF7880F9695879547
:1049E00097F9089597F99F6780E870E060E008956F
:1049F0009FEF80EC089500240A94161617061806F7
:104A00000906089500240A941216130614060506D2
:104A10000895092E0394000C11F4882352F0BB0F63
:104A200040F4BF2B11F460FF04C06F5F7F4F8F4FC6
:104A30009F4F089557FD9058440F551F59F05F3F01
:104A400071F04795880F97FB991F61F09F3F79F0B0
:104A500087950895121613061406551FF2CF469532
:104A6000F1DF08C0161617061806991FF1CF8695B4
:104A70007105610508940895E894BB276627772798
:104A8000CB0197F908950BD0C4CFB5DF28F0BADF7A
:104A900018F0952309F0A6CFABCF1124EECFCADFD3
:104AA000A0F3959FD1F3950F50E0551F629FF00141
:104AB000729FBB27F00DB11D639FAA27F00DB11D9A
:104AC000AA1F649F6627B00DA11D661F829F222723
:104AD000B00DA11D621F739FB00DA11D621F839FAA
:104AE000A00D611D221F749F3327A00D611D231F80
:104AF000849F600D211D822F762F6A2F11249F57CE
:104B000050408AF0E1F088234AF0EE0FFF1FBB1FF0
:104B1000661F771F881F91505040A9F79E3F51058F
:104B200070F060CFAACF5F3FECF3983EDCF3869540
:104B300077956795B795F795E7959F5FC1F7FE2B3A
:104B4000880F911D9695879597F90895911108956D
:104B500081568A5108F4805285580895FB01DC0182
:104B600002C001900D9241505040D8F70895FB01CA
:104B7000DC014150504030F08D910190801919F4C2
:0E4B80000020B9F7881B990B0895F894FFCF19
:104B8E00FF00000000000000000000000000000018
:104B9E0000000000FF000000000000000000000008
:104BAE000000000000000000FF00000000000000F8
:104BBE00000000000000000000000000FF000000E8
:104BCE0000000000000000000000000000000000D7
:104BDE0000000000000000000000000000000000C7
:104BEE0000000000213CFF0000000000000000005B
:104BFE0000000000000010000C001A00222A2B2CCE
:104C0E002E2F3A3B3C3D3E3F5B5C5D7C0064686D05
:084C1E006D302E747874000063
:00000001FF
