:100000000C9417050C943F050C943F050C943F0588
:100010000C943F050C943F050C943F050C943F0550
:100020000C943F050C943F050C943F050C943F0540
:100030000C943F050C943F050C943F050C943F0530
:100040000C943F050C943F050C943F050C943F0520
:100050000C943F050C943F050C943F050C943F0510
:100060000C943F050C943F050101010101000000C3
:100070000000000000000000000000000000000080
:10008000000000000000000000000001000000006F
:10009000000000000000000101000001010100005B
:1000A0000000000000000000000000000000000050
:1000B000000000000000000000000000000101003E
:1000C000000000000000000001010000010001002C
:1000D000010000000000000000000000000000001F
:1000E000000000000000000000000000000000010F
:1000F00000010000000000000001000000000000FE
:1001000001000000000000000000000000000000EE
:1001100000000000000000000000000000000000DF
:1001200000010000010000000001000000000000CC
:1001300001010001010000000000000000000000BB
:1001400000000000000000000000000000000000AF
:10015000000000010000000101010100000000009A
:10016000000000010001000000000000000000008D
:10017000000000000000000000000000000000007F
:10018000000000000100000000000001000100006C
:10019000000000000100000001000000000000005D
:1001A000000000000000000000000000000000004F
:1001B000000000000001000000000001010100003B
:1001C000000000000000000000000000000000002F
:1001D000000000000000000000000000000000001F
:1001E000000000000000010101010000010000000A
:1001F00000000000000000000000000000000000FF
:1002000000000000000000000000000000000000EE
:1002100000000000000000010100000001010000DA
:1002200000000000000000000000000000000000CE
:1002300000000000000000000000000000000000BE
:1002400000000000000000000000010100000000AC
:10025000000000000000000000000000000000009E
:10026000000000000000000000000000000000008E
:10027000000000000000000000000000010000007D
:10028000000000000000000000000000000000006E
:10029000000000000000000000000000000000005E
:1002A000000000000000000000000000000001014C
:1002B000010000000000000000000000000000003D
:1002C000000000000000000000000000000000002E
:1002D000000000000000000000000000000000001E
:1002E000010001000000000000000000000000000C
:1002F00000000000000000000000000000000000FE
:1003000000000000000000000000000000000000ED
:1003100000000100000100000000000000000000DB
:1003200000000000000000000000000000000000CD
:1003300000000000000000000000000000000000BD
:1003400000000001000000010000000000000000AB
:10035000000000000000000000000000000000009D
:10036000000000000000000000000000000000008D
:10037000000000000000010000010000000000007B
:10038000000000000000000000000000000000006D
:10039000000000000000000000000000000000005D
:1003A000000000000000000001000001000000004B
:1003B000000000000000000000000000000000003D
:1003C000000000000000000000000000000000002D
:1003D000000000000000000000010000010000001B
:1003E000000000000000000000000000000000000D
:1003F00000000000000000000000000000000000FD
:1004000000000000000000000000000100010000EA
:1004100000000000000000000000000000000000DC
:1004200000000000000000000000000000000000CC
:1004300000000000000000000000010101000001B8
:1004400000000000000000000000000000000000AC
:10045000000000000000000000000000000000009C
:10046000000000000000000000000100000100008A
:10047000000100000000000000000000000000007B
:10048000000000000000000000000000000000006C
:100490000000000000000000000000010001010059
:1004A000000000010000000000000000000000004B
:1004B000000000000000000000000000000000003C
:1004C000000000000000000000000000000101002A
:1004D000000000000100000000000000000000001B
:1004E000000000000000000000000000000000000C
:1004F00000000000000000000100000000000100FA
:1005000000000000000001000000000000000000EA
:1005100000000000000000000000000000000000DB
:1005200000000000000000000000000000000100CA
:1005300001000000000000010001000000000000B8
:1005400000000000000000000000000000000000AB
:100550000000000000000000000000010101010196
:100560000000000000000000010001000000000089
:10057000000000000000000000000000000000007B
:10058000000000000000000000000000010000006A
:100590000001010000000101010100000000000055
:1005A000000000000000000000000000000000004B
:1005B0000000000000000000000100000101000038
:1005C0000100010000010001000000000100000026
:1005D000000000000000000000000000000000001B
:1005E000000000000000000000000000000001000A
:1005F00001000000010101000100000000000000F6
:1006000000000000000000000000000000000000EA
:1006100000000000000000000000000000000101D8
:1006200000010001000101000001000000000000C5
:1006300000000000000000000000000000000000BA
:1006400000000000000000000000000000000000AA
:100650000100000001010100000000000000000096
:100660000000000100000000000000000000000089
:10067000000000000000000000000000000000007A
:100680000100010000010000000000000000000067
:10069000000000000000000000000000000000005A
:1006A000000000000000000000000000000000004A
:1006B0000000000000010001000000000000000038
:1006C000000000000000000000000000000000002A
:1006D000000000000000000000000000000000001A
:1006E0000000000000000001000100000000000008
:1006F00000000000000000000000000000000000FA
:1007000000000000000000000000000000000000E9
:1007100000000000000000000001010000000000D7
:1007200000000000000000000000000000000000C9
:1007300000000000000000000000000000000000B9
:1007400000000000000000000000010100000000A7
:100750000000000000000000000000000000000099
:100760000000000000000000000000000000000089
:100770000000000000000000000000000001010077
:100780000000000000000000000000000000000069
:100790000000000000000000000000000000000059
:1007A0000000000000000000000000000000010048
:1007B0000000000000000000000000000000000039
:1007C0000000000000000000000000000000000029
:1007D0000000000000000000000000000000000019
:1007E0000000000000000000000000000000000009
:1007F00000000000000000000000000000000000F9
:1008000000000000000000000000000000000000E8
:1008100000000000000000000000000000000000D8
:1008200000000000000000000000000000000000C8
:1008300000000000000000000000000000000000B8
:1008400000000000000000000000000000000000A8
:100850000000000000000000000000000000000098
:100860000000000000000000000000000000000088
:100870000000000000010000000000000000000077
:100880000000000000000000000000000000000068
:100890000000000000000000000000000000000058
:1008A0000000000000000000000000000000000048
:1008B0000000000000000000000000000000000038
:1008C0000000000000000000000000000000000028
:1008D0000000000000000000000000000000000018
:1008E0000000000000000000000000000000000008
:1008F00000000000000000000000000000000000F8
:1009000000000000000000010001000000000000E5
:1009100000000000000000000000000000000000D7
:1009200001010100010101000101000000010100BD
:1009300000000000000000000001010000000000B5
:1009400000000000000000000000000000000000A7
:100950000000010001000100010001000100010090
:100960000100000000000000000000000000000086
:100970000000000000000000000000000000000077
:100980000000000001000101010001000100000160
:100990000000010000000000000000000000000056
:1009A0000000000000000000000000000000000047
:1009B0000000000000000100000000000100010034
:1009C0000100010001000000000001010000000022
:1009D0000000000000000000000000000000000017
:1009E0000000000000000000010001010100010101
:1009F00001000101010001010100010100000000EE
:100A000000000000000000000000000000000000E6
:100A100000000000000000000000010001000100D3
:100A2000010001000100010001000100901E1124DD
:100A30001FBECFEFD8E0DEBFCDBF11E0A0E0B1E038
:100A4000EEEAF4E402C005900D92A039B107D9F79F
:100A500014E0A0E9B1E001C01D92A032B107E1F7B6
:100A60001AE0CEE2DAE004C02297FE010E944320A1
:100A7000CC32D107C9F70E94761C0C9455220C94F5
:100A800000008F3F2FEF9207C1F061157105B9F09B
:100A90006130710599F4883091059CF180319105A0
:100AA000D4F1883191054CF42AB14097082E01C049
:100AB000660F0A94EAF7262B2AB90895089588301C
:100AC00091059CF08031910584F188319105ACF756
:100AD0004AB1409721E030E0082E01C0220F0A946D
:100AE000EAF7209524232AB9089594B121E030E053
:100AF000082E01C0220F0A94EAF72095292324B971
:100B0000089524B1AB0102C0440F551F8A95E2F746
:100B1000242B24B9089527B10897082E01C0660F29
:100B20000A94EAF7262B27B9089547B1089721E0E0
:100B300030E0082E01C0220F0A94EAF72095242302
:100B400027B908958F3F2FEF9207E1F08830910584
:100B5000D4F08031910554F1883191059CF44BB16A
:100B6000409721E030E0082E01C0220F0A94EAF7F6
:100B700020952423AB0102C0440F551F8A95E2F74C
:100B8000242B2BB9089595B121E030E0082E01C047
:100B9000220F0A94EAF720952923AB0102C0440FE3
:100BA000551F8A95E2F7242B25B9089548B1089777
:100BB00021E030E0082E01C0220F0A94EAF72095C8
:100BC0002423AB0102C0440F551F8A95E2F7242B62
:100BD00028B908958F3F4FEF940701F188309105B0
:100BE00094F080319105F4F088319105ACF42BB18B
:100BF00030E0409702C0359527958A95E2F721703D
:100C00003327C901089525B130E002C035952795F5
:100C10008A95E2F721703327C901089520E030E07A
:100C2000C901089528B130E0089702C0359527958D
:100C30008A95E2F721703327C90108958F3F4FEF5E
:100C4000940701F18830910594F080319105F4F01A
:100C500088319105ACF429B130E0409702C0359558
:100C600027958A95E2F721703327C901089523B1AA
:100C700030E002C0359527958A95E2F72170332739
:100C8000C901089520E030E0C901089526B130E09F
:100C9000089702C0359527958A95E2F7217033278A
:100CA000C9010895181619066CF420E030E0E9EF48
:100CB000F0E03197F1F700C000002F5F3F4F281799
:100CC0003907A9F7089520E030E04AE754E40E948C
:100CD000D3210E9414211616170664F480E090E0D8
:100CE000E9EFF0E03197F1F700C0000001968617B8
:100CF0009707B1F708951816190644F420E030E07C
:100D000000002F5F3F4F28173907D1F7089505C01E
:100D100090E19A95F1F700C081508111F9CF0895C3
:100D2000882351F094E120E12A95F1F700C0915019
:100D3000D1F78150B9F708950895259A2498239AF8
:100D4000229A2A9A81E58CBD81E08DBD08951CBC54
:100D500008958EBD0DB407FEFDCF0895181619062F
:100D600074F44FEF3FEF3EBD0DB407FEFDCF2EB53F
:100D7000421303C001970097B1F78EB5089591957E
:100D800081959109D1F340E03FEFEDCFFC016F5F1A
:100D90007F4F161617060CF520E030E0CF016130CA
:100DA000710519F001964081242B48E004C0220F00
:100DB000331F415041F037FFFACF59E83527220F52
:100DC000331F4150C1F7615071096115710511F070
:100DD000FC01E4CF832F8695089580E00895CF939A
:100DE000DF93FC01EB01DB0112961A161B0654F58A
:100DF00020E030E040E050E0BA01CF012C173D0781
:100E00001CF40196E0814E2BE8E0440F551F661F4D
:100E1000771F70FF06C0F1E25F27F0E16F27F1E076
:100E20007F27E15091F72F5F3F4F2A173B0714F4BC
:100E3000FC01E3CF452F562F672F7727CA01DF919B
:100E4000CF91089580E090E0FACFCF93DF9300D068
:100E500000D000D0CDB7DEB78F73806489837A83EA
:100E60006B835C834D8365E070E0CE0101960E9448
:100E7000C606880F81608E8363E09E01295F3F4F25
:100E80005FEF5EBD0DB407FEFDCFFE01319681918F
:100E90008EBD0DB407FEFDCFE217F307C1F78AE060
:100EA00090E05EBD0DB407FEFDCF4EB54F3F19F487
:100EB00001970097B1F78EB5982F9E7F11F0615082
:100EC00001F726960FB6F894DEBF0FBECDBFDF91B7
:100ED000CF9108951F93CF93DF930E949D068AE0E0
:100EE00090E02FEF2EBD0DB407FEFDCF01970097C8
:100EF000C9F72A9840E050E0BA0180E00E94250737
:100F00008FEF8EBD0DB407FEFDCF2A9AC4E6D0E068
:100F10001FEF2A9840E050E0BA0187E30E942507BE
:100F200040E050E0BA0189E20E9425071EBD0DB4E1
:100F300007FEFDCF2A9A80FF11C02AE094E130E13C
:100F40003A95F1F700C09150D1F72150B9F72197A8
:100F50002097F9F6DF91CF911F9108958111FACF73
:100F60002A9841E050E060E070E08BE30E942507A2
:100F70009FEF9EBD0DB407FEFDCF2A9ADF91CF9162
:100F80001F9108951CBC08959F92AF92BF92CF927B
:100F9000DF92EF92FF920F931F93CF93DF936B013A
:100FA0007C018A0189E0CC0CDD1CEE1CFF1C8A95BB
:100FB000D1F793E0A92EBB24BA942A98B701A601D1
:100FC00081E10E942507982E811114C020E137E2AB
:100FD000BEBC0DB407FEFDCF8EB58F3F29F4215066
:100FE000310921153105A1F78EB58E3F31F18823E6
:100FF00009F1982EBEBC0DB407FEFDCF2A9A9110C0
:101000000AC060E072E0C8010E94EF06C817D90765
:1010100021F0A8E09A2EAA9481F6892DDF91CF9134
:101020001F910F91FF90EF90DF90CF90BF90AF9006
:101030009F90089599249A94DDCFF80122E032E040
:1010400061E072E0BEBC0DB407FEFDCF8EB58EB57B
:101050002330310564F0DF0111968083611571053D
:1010600049F26150710921503109FD01EBCF223065
:10107000310519F0C82BDF01F1CFC82FD0E0DC2FEC
:10108000CC27DF01EECF8F929F92AF92BF92CF928B
:10109000DF92EF92FF920F931F93CF93DF931F92F4
:1010A000CDB7DEB76B017C018A0160E072E0CA0156
:1010B0000E94EF06B82E29E0CC0CDD1CEE1CFF1CB4
:1010C0002A95D1F733E0832E4EEFA42E99249A94DB
:1010D0002A98B701A60188E199830E942507998182
:1010E00081113BC0AEBC0DB407FEFDCFF80122E07C
:1010F00032E0233031050CF448C0608131966EBD7A
:101100000DB407FEFDCF215031092115310589F7B6
:101110002AE030E09EBC0DB407FEFDCF4EB54F3F38
:1011200029F42150310921153105A1F72EB5322FAF
:101130003F71353079F520E137E29EBC0DB407FEF2
:10114000FDCF6EB5611105C0215031092115310562
:10115000A1F72EB5222309F4BCCF9EBC0DB407FE27
:10116000FDCF2A9A882319F08A9409F0B1CF0F9005
:10117000DF91CF911F910F91FF90EF90DF90CF9073
:10118000BF90AF909F908F9008952230310521F04D
:101190006B2DB5CF822FE1CF692FB1CFAF92BF9228
:1011A000CF92DF92EF92FF920F931F93CF93DF9333
:1011B000CDB7DEB760970FB6F894DEBF0FBECDBFD8
:1011C0008C01C62E83E0A82EBB24BA942A9840E056
:1011D00050E0BA0189E00E942507D82E811114C081
:1011E00020E137E2BEBC0DB407FEFDCF8EB58F3FC8
:1011F00029F42150310921153105A1F78EB58E3F13
:1012000061F1882339F1D82EBEBC0DB407FEFDCFA5
:101210002A9AD1100BC060E170E0CE0101960E94C5
:10122000EF06E816F906C1F158E0D52EAA9471F63A
:101230008D2D60960FB6F894DEBF0FBECDBFDF9147
:10124000CF911F910F91FF90EF90DF90CF90BF90C3
:10125000AF900895DD24DA94D7CF22E130E041E168
:1012600050E0FE013196BEBC0DB407FEFDCF8EB539
:101270008EB52330310554F08083319641155105E8
:1012800019F24150510921503109EDCF2230310579
:1012900009F445C0E82AF2CFC110CACF498550E011
:1012A000042E452F000C441F550B000C441F551FE6
:1012B000888590E0880F991F880F991F482B592B1C
:1012C0008F81837090E0982F8827990F990F482B72
:1012D000592B4F5F5F4F662757FD6095762F2A8504
:1012E000237030E0220F331F8B8590E0880F892F09
:1012F000881F990B282B392B2E5F3F4F8E818F70C3
:10130000280F311D04C0440F551F661F771F2A95F3
:10131000D2F7F801408351836283738389CFE82E2B
:10132000F12CFE2CEE24ADCFCF93C82F9091660107
:1013300097FD07C088E18093900180E090E0CF9115
:1013400008950E946A07882331F08F3FA9F085E055
:1013500080939001F2CF46EB51E060E070E0CB016A
:101360000E94C4078111F3CF8091B403853541F009
:1013700083E180939001E1CF81E080939001DDCF04
:101380008091B5038A3AA1F78091B6018B3EC9F1ED
:1013900080E1C802F0011124EC58FC4F84818111D6
:1013A00004C082E080939001C8CF8093690180855A
:1013B0009185A285B38580936A0190936B01A09378
:1013C0006C01B0936D0184859585A685B785809362
:1013D0006E0190936F01A0937001B09371018FEF34
:1013E0009FEFDC018093720190937301A0937401CD
:1013F000B0937501109267011092660186E691E044
:101400009ECF8FEF8093690110926A0110926B0159
:1014100010926C0110926D0180E090E0A0E4B0E0C9
:1014200080936E0190936F01A0937001B09371014E
:10143000D6CF0F931F93CF93DF93EC018981811156
:1014400009C01CBC8FEF888380E0DF91CF911F9192
:101450000F9108956C857D858E859F850C811D81FA
:101460002E813F81600F711F821F931F46EB51E059
:101470000E944308882329F385E0809390018FEF31
:10148000E4CFCF92DF92EF92FF920F931F93CF930F
:10149000DF93EC016A017B010C851D852E853F855C
:1014A000041715072607370779F1898181111CC0B8
:1014B0006C817D818E819F816C0D7D1D8E1D9F1D98
:1014C00046EB51E00E94C407811120C0CC86DD8626
:1014D000EE86FF8680E0DF91CF911F910F91FF9004
:1014E000EF90DF90CF9008956C817D818E819F81F8
:1014F000600F711F821F931F46EB51E00E9443084B
:10150000811104C01982D4CF80E0E5CF85E08093BB
:1015100090018FEFE0CFCF92DF92EF92FF920F9387
:101520001F93CF93DF93EC016A017B010C851D852E
:101530002E853F85041715072607370739F089815F
:10154000811110C0CC86DD86EE86FF8681E089831E
:1015500080E0DF91CF911F910F91FF90EF90DF908E
:10156000CF9008956C817D818E819F81600F711F66
:10157000821F931F46EB51E00E944308882311F31A
:1015800085E0809390018FEFE4CF8F929F92AF928E
:10159000BF92CF92DF92EF92FF920F931F93CF9360
:1015A000DF93EC014B015A018A898C3009F44EC05B
:1015B000C72EDD248B01000F111F1170EE24D7FC04
:1015C000E094FE2C89819A81AB81BC81C80ED91E22
:1015D000EA1EFB1EB701A6018EA19FA10E94410A2F
:1015E000882381F007EF1FEFC801DF91CF911F9192
:1015F0000F91FF90EF90DF90CF90BF90AF909F90B2
:101600008F900895F801EA54FE4F008111818A8974
:101610008C3091F18EEFA8168FEFB80629F3B182C6
:10162000A082B9881B144CF0DFCF8F859889C80E33
:10163000D91EE11CF11CBA94B9F2B701A6018EA122
:101640009FA10E948B0A882381F3CCCF8B01169532
:101650000795080D191D6801CD2CDD0CDD08C5941A
:1016600011700F3F21E0120709F0A8CF8FEFC81AC1
:10167000D80A00E010E0A2CFC4018170992780FC55
:1016800019C01F70073F2FE0120708F0106F2EEFF0
:10169000A2162FEFB20609F4A7CF892B91F0A294DE
:1016A000B29430EFB322BA24A322BA2480818F707F
:1016B000A82AB5CF129502950F7001271F70012738
:1016C000E1CFC5019F70A180BB24A7FCB09420EF9F
:1016D000A222BB24BA2CAA24A82AB92AA0CF603FF0
:1016E0002FEF720710F40C94C50ACB010895CF9226
:1016F000DF92EF92FF920F931F93CF93DF938C01B2
:101700007B01FC012585368521153105D1F0C0E02E
:10171000D0E004C02196C217D30798F4C03FFFEF72
:10172000DF07C0F74EEF5FEFBE01C8010E94C50A98
:10173000892BA9F0F801258536852196C217D30794
:1017400068F38CE18093900187EF9FEFDF91CF9159
:101750001F910F91FF90EF90DF90CF9008954FEF82
:101760005FEFBE01C8010E94C50A873FFFEF9F07D8
:1017700069F3F2E0EF16F104F8F0C70102978E3E2C
:101780009F4F90F4DE2CCF2C02C0D82EC92E4EEFE6
:101790005FEF6D2D7C2DC8010E94C50A9C0122506F
:1017A00031092E3E3F4F88F3AE016D2D7C2DC801CF
:1017B0000E94C50A099641F2CE01C8CFEF92FF926E
:1017C0000F931F93CF93DF937C018B01603F2FEF2B
:1017D000720710F024C08E014EEF5FEFB801C70111
:1017E0000E94C50AEC01C73F8FEFD807C1F040E067
:1017F00050E0B801C7010E94C50A099691F0C03FA8
:101800008FEFD80740F381E0299609F080E08195B9
:10181000DF91CF911F910F91FF90EF900895E80114
:10182000F2CF80E0F5CF9F92AF92BF92CF92DF923E
:10183000EF92FF920F931F93CF93DF937B01EC0105
:101840008C01FBE0BF2EA0E2AA2EB0E49B2EF80193
:10185000A1928F01F70180818132DCF08E3279F123
:10186000FFEFEF1AFF0A992787FD90950E94362215
:1018700088838232F1F090E002C08217D1F09F5F3E
:10188000E92FFF27E7FDF095EA58FE4F208121114F
:10189000F4CFBA942196B110DACFDF91CF911F9196
:1018A0000F91FF90EF90DF90CF90BF90AF909F90FF
:1018B00008959882BA942196B110C9CFEECFF3E083
:1018C000FB153CF3670182E0C80ED11CF701818152
:1018D000992787FD90950E94362288837601C9CF8B
:1018E0004F925F926F927F92AF92BF92CF92DF92B0
:1018F000EF92FF920F931F93CF93DF938C012A01F6
:101900003B0159012D3F8FEF380709F493C06A015D
:101910007B01F801058C04C0F594E794D794C79433
:101920000A94D2F7A601068CF78DE02DE217F30793
:10193000B1F1F9019F01225031092E3EBFEF3B0763
:10194000B0F4452B09F43FC0E60102C02097D9F15D
:1019500021974EEF5FEFBF01C8010E94C50AFC014D
:101960009C01225031092E3E8FEF380778F33996CB
:1019700009F475C087E0809390016FEF7FEFCB0192
:10198000DF91CF911F910F91FF90EF90DF90CF905B
:10199000BF90AF907F906F905F904F900895D80167
:1019A00090962D913C9191972C153D0519F6D801F3
:1019B0009296ED91FC9193979F01225031092E3E12
:1019C000BFEF3B07A0F6D80157960C90579702C07F
:1019D000220F331F0A94E2F719966D917D918D9134
:1019E0009C911C97620F731F811D911DC9E0759416
:1019F000679457944794CA95D1F758962C91589765
:101A0000332727FD3095432F532F42225322642240
:101A10007522640D751D861D971D5F96BC92AE9252
:101A20005E979196DC92CE9290979396FC93EE936C
:101A30009297A6CFCB01BA01D9E095958795779576
:101A40006795DA95D1F7D80115960D911D912D91D5
:101A50003C911897600F711F821F931F91CF6FEFFA
:101A60007FEFCB018DCF2F923F924F925F926F927B
:101A70007F928F929F92AF92BF92CF92DF92EF921E
:101A8000FF920F931F93CF93DF9300D000D0CDB779
:101A9000DEB79A8389831B018A01FC01408451844B
:101AA00062847384C480D580E680F780C418D5082A
:101AB000E608F708A12CB12C141615060CF05DC031
:101AC0001C141D041E041F040CF057C0812C82E05E
:101AD000982E44C0AB01BC01E981FA8182899389C7
:101AE0000E94410A811146C0C20191709401281BD5
:101AF000390BBC016A547E4FC901AA2797FDA095F6
:101B0000BA2FC816D906EA06FB060CF4960102178E
:101B100013070CF49801A901C1012B833C830E9497
:101B20003E222B813C81C901AA2797FDA095BA2F9F
:101B3000480E591E6A1E7B1EA20EB31EC81AD90A71
:101B4000EA0AFB0A021B130B220E331E10161106A3
:101B500064F51C141D041E041F043CF5E981FA8180
:101B600022813381B301A201808991890E94700C86
:101B700097FFB0CFAA24AA94BA2CC5010F900F905A
:101B80000F900F90DF91CF911F910F91FF90EF90E9
:101B9000DF90CF90BF90AF909F908F907F906F908D
:101BA0005F904F903F902F9008951A141B042CF7CC
:101BB000E981FA8180859185A285B385A501662793
:101BC00057FD6095762F840F951FA61FB71F80873E
:101BD0009187A287B387D1CF0F931F93213079F0DC
:101BE000223011F12223A1F086E1809390014FEF82
:101BF0005FEFBA01CB01BA011F910F910895FC016B
:101C00000085118522853385400F511F621F731F88
:101C100077FD05C0FC014087518762877387CB0140
:101C2000BA011F910F910895FC014481558166818D
:101C30007781EECFBF92CF92DF92EF92FF920F9318
:101C40001F93CF93DF938C01EB017A01B22EFC013D
:101C500084A195A1FC011086118612861386C22EDE
:101C6000DD24C7FCD09440E250E0BE010E94330D59
:101C7000809781F58881882349F0A601B701CE01BC
:101C80000E944722892BE1F421E00FC082E080937B
:101C900090014B2D552747FD5095B701CE010E946D
:101CA000472221E0892B09F020E0822FDF91CF919C
:101CB0001F910F91FF90EF90DF90CF90BF9008950C
:101CC000F80184A195A140E250E0BE010E94330DCD
:101CD000809781F22FEFE9CF0F931F93CF93DF937C
:101CE000EC0108891989898181FF5BC04C855D857C
:101CF0006E857F8577FD55C0F80184A195A1FC0113
:101D00004087518762877387452B462B472B09F401
:101D10005CC040E250E061E971E00E94330D8097C1
:101D200009F053C08A819B819093AC018093AB01F1
:101D30008C819D81AE81BF818093AD019093AE0176
:101D4000A093AF01B093B0018091B3019091B40121
:101D50009093A00180939F0180916401909165010F
:101D60009093A2018093A1014C855D856E857F854E
:101D7000F80184A195A177FD28C0FC014087518717
:101D800062877387452B462B472BF9F040E250E0E2
:101D900061E971E00E94EB0E8097B9F489818D7F33
:101DA000898340E050E0BA01F80186A197A10E9422
:101DB000410A91E0882339F0892F8195DF91CF91F5
:101DC0001F910F91089590E0F7CF8FEFDF91CF91A2
:101DD0001F910F9108952F923F924F925F926F92B1
:101DE0007F928F929F92AF92BF92CF92DF92EF92AB
:101DF000FF920F931F93CF93DF93EC011B018A0196
:101E0000898180FF19C08DE080939001A12CB12CB5
:101E1000C501DF91CF911F910F91FF90EF90DF905F
:101E2000CF90BF90AF909F908F907F906F905F907A
:101E30004F903F902F900895C884D984EA84FB8402
:101E4000A12CB12C141615061CF72A813B8111C058
:101E500080919001873009F048C06A817B81888930
:101E600099890E94770B2A813B812115310509F45C
:101E700060C0B701A601888999890E94700C2B0166
:101E80003C0197FDE5CF011582E018070CF45CC01A
:101E9000C60191709C012A543E4F812C42E0942E41
:101EA000881A990AA401B101C9010E943E22B30116
:101EB000A2018A899B890E948B0A811116C089819F
:101EC00082608983C401AA2797FDA095BA2FC80E06
:101ED000D91EEA1EFB1EA80CB91C08191909280CEA
:101EE000391C101611060CF4B0CFA114B10409F47A
:101EF0008FCFC501AA2797FDA095BA2F4885598590
:101F00006A857B85840F951FA61FB71F88879987D1
:101F1000AA87BB874C815D816E817F8148175907F5
:101F20006A077B070CF074CF8C839D83AE83BF83DD
:101F30006FCF9B838A83898182608983CE010E94CF
:101F40006C0E87FF82CFD1CFB301A2018A899B8912
:101F50000E94410A8111C9CFC60191709C012A5487
:101F60003E4F812C52E0952E881A990A08151905C2
:101F70000CF098CF480196CF8F929F92AF92BF926C
:101F8000EF92FF920F931F93CF93DF93CDB7DEB7FE
:101F90002D970FB6F894DEBF0FBECDBF5C01E42EC7
:101FA000922E8091280187FD1FC08091140187FD2A
:101FB0002DC18091000187FD2EC188E180939001A1
:101FC00000E010E0C8012D960FB6F894DEBF0FBEFA
:101FD000CDBFDF91CF911F910F91FF90EF90BF90F8
:101FE000AF909F908F900895E2E0FE2E08E211E0FE
:101FF000D8015196BC92AE925097F50186A197A157
:1020000053969C938E93529718961D921D921D92F3
:102010001C921B9711961C92FB0180818F3239F51F
:10202000DB0111968C91811122C08DEF9FEFF80199
:1020300093838283D50153968D919C915497880FF9
:10204000991F82959295907F9827807F9827A0E08E
:10205000B0E084839583A683B7834FEF5FEFBA0127
:102060004487558766877787F801F082ABCFCE012A
:1020700001960E94130C1C868981803241F486E10E
:1020800080939001D8018C9187FF9CCF99CF2BE052
:10209000AE014F5F5F4F61E971E0C5010E941A0E0A
:1020A00087FDF0CF811169C0E3FC04C082E080931A
:1020B0009001E8CF85EE8D8721E0AE01435F5F4F51
:1020C00061E971E0C5010E941A0E87FDDBCF8BE04C
:1020D000FE013196A1E9B1E001900D928A95E1F7F8
:1020E00090929C0110929D018091B50180939E0178
:1020F0008091B3019091B40180939F019093A001CE
:102100008093A7019093A80180916401909165014B
:102110008093A1019093A2018093A3018093A901D0
:102120009093A4019093AA011092AB011092AC017C
:102130001092AD011092AE011092AF011092B00159
:10214000D5019496ED91FC919597408551856285D6
:102150007385405251096109710977FD93CF40871A
:1021600051876287738740E250E061E971E0CF01F7
:102170000E94EB0E809709F085CFD5019496ED91E2
:10218000FC91959780859185A285B385E5FE04C075
:1021900081E18093900176CF2091AB013091AC0129
:1021A000F801338322838090AD019090AE01A0901E
:1021B000AF01B090B00184829582A682B7828097E9
:1021C000A109B10984879587A687B78780919C016B
:1021D00080FD02C0E11007C0D80111968C911197C3
:1021E000816011968C93E4FE05C0F801148215827B
:1021F00016821782E2FE38CFF80184819581A6818C
:10220000B78180879187A287B3872ECFFF24F3946D
:1022100004E111E0EDCEF12C00E011E0E9CECF9326
:10222000DF93EC010E946C0E811106C08FEF888352
:1022300080E0DF91CF9108958FEFFBCFEF92FF9277
:102240000F931F93CF93DF93CDB7DEB72C970FB6C5
:10225000F894DEBF0FBECDBF8C01CE0101960E9467
:10226000130C1C862BE0AE014F5F5F4F61E971E0FC
:10227000C8010E941A0E1816B4F5E090AB01F09058
:10228000AC0185EE80939101D8019496ED91FC917B
:102290009597408551856285738540525109610942
:1022A000710977FD20C0408751876287738740E2BC
:1022B00050E061E971E0CF010E94EB0E97FD13C081
:1022C000B701C8010E94DE0B880F880B2C960FB651
:1022D000F894DEBF0FBECDBFDF91CF911F910F915C
:1022E000FF90EF9008958FEFF1CF2F923F924F9292
:1022F0005F926F927F929F92AF92BF92CF92DF9246
:10230000EF92FF920F931F93CF93DF9300D000D0F3
:10231000CDB7DEB72FE230E03A83298390913C01BC
:1023200097FD3DC088E18093900124E631E0F901FA
:10233000E4A0F5A0E114F10449F0C7012B833C832C
:102340000E946C0E2B813C81882329F10115110517
:1023500039F0C8012B833C830E94190A3C812B81F0
:102360008FEFF901808380E090E00F900F900F9045
:102370000F90DF91CF911F910F91FF90EF90DF9021
:10238000CF90BF90AF909F907F906F905F904F9055
:102390003F902F9008958FEFF7018083D7CF27EFDD
:1023A0003FEF30935B0120935A012FEF3FEF3093C3
:1023B0005D0120935C0110925F0110925E010E940A
:1023C00094098C01009751F110936301009362010D
:1023D000F8018381813081F0982F9D7F943061F0E6
:1023E0008B3051F08E3041F08F3F31F08FE0809391
:1023F00090012CE331E09BCF40E050E0BA01C801EE
:102400000E94410A81110AC08091B403853549F0C8
:1024100086E0809390012CE331E089CF2CE331E01A
:1024200086CF8091B5038A3A99F78091C101909146
:10243000C201A091C301B0E0E090C401F090C501D9
:10244000D090C601D0924D01E091C701F091C80132
:10245000F0935001E0934F014091C9015091CA019E
:1024600060E070E0411551056105710541F440914E
:10247000D6015091D7016091D8017091D901609037
:10248000CC017090CD012FE097FDDFC0880F991F20
:102490002150D0F786EFA82EB12C96EF992E13017C
:1024A0000A2C02C0220C331C0A94E2F730924C0131
:1024B00020924B010A2C02C0AA0FBB1F0A94E2F71C
:1024C000B0935201A09351010A2C02C0EE0CFF1CE4
:1024D0000A94E2F7D29CC001D39C900D11248E0D7A
:1024E0009F1D6F01CC0CDD1CC294D29420EFD22230
:1024F000DC24C222DC2421E0C21A2EEFD20ACD2C29
:10250000DD24C694C80ED91E2601612C712C04C08E
:10251000440F551F661F771FAA94D2F74419550917
:10252000660977096701E12CF12CC0923D01D09238
:102530003E01E0923F01F09240016C01E12CF12C50
:10254000C0924101D0924201E0924301F0924401D5
:1025500040924501509246016092470170924801B5
:10256000CD012FE097FD61C0880F991F2150D0F752
:1025700088E0C82E80E0EE24EA94FE2C20935301DC
:1025800080935401CD01982F8827990FAA2797FD92
:10259000A095BA2F8093550190935601A0935701AF
:1025A000B0935801C092590104C07595679557952D
:1025B0004795EA94D2F750934A0140934901453F29
:1025C0002FE0520750F58CE080934E01EF2BF9F08D
:1025D0002328E9F080914E018032C9F08C3011F44B
:1025E000911015C010923C0120E142E0BE016F5FE6
:1025F0007F4F8CE391E00E94BC0F90936101809328
:102600006001892B09F40ACF8CE391E0AECE83E11F
:10261000809390012CE331E08ACE453F2FEF5207A3
:10262000C8F480E180934E01D1CFE22EFF24E7FC75
:10263000F0948FEF9FEF022E01C0880F0A94EAF703
:10264000809599E0C92EC20E99CF87EF982E920EF1
:10265000A92C25CF80E280934E01B8CF0F931F9312
:10266000CF93DF93EC010CA11DA10115110581F0A1
:10267000C8010E946C0E882331F08FEFDF91CF915B
:102680001F910F9108958FEFF80180831DA21CA266
:102690008EA19FA10E94190A8111EFCF8FEF88832D
:1026A00080E0DF91CF911F910F9108952FE097FD6A
:1026B00004C0880F991F2150D0F7822F0895AF9240
:1026C000BF92CF92DF92EF92FF920F931F93CF931F
:1026D000DF936B017C0169EE76E286E392E40E946F
:1026E00047202CE934EC40EE5EE30E94AC200E94CF
:1026F0001421EB012397C00FD11F82E38C9F80012F
:102700008D9F100D112422EB3DED45EF52E4C701E2
:10271000B6010E94472029E739EE46E05FE30E94B8
:10272000AC200E9414216250710924E030E080E066
:1027300090E008591F4F6233710598F4C233D105F8
:1027400080F4F801E60FF71FE491E0FBAA24A0F85B
:10275000B12C022E02C0AA0CBB1C0A94E2F78A29F3
:102760009B29215031096F5F7F4F2F3F4FEF340777
:1027700011F7DF91CF911F910F91FF90EF90DF90B4
:10278000CF90BF90AF900895BC0118161906ACF415
:1027900020E030E081E090E0AC01440F551F880F4D
:1027A000991F880F991F880F991F840F951F2F5FFE
:1027B0003F4F2617370781F7089581E090E008958D
:1027C0006CE370E00E94D81F8A3091053CF08E3196
:1027D000910514F08D5D0895895A0895805D0895DE
:1027E0006CE370E00E94D81F8A3091053CF08E3176
:1027F000910514F08FE50895895A0895805D089534
:102800002F923F924F925F926F927F928F929F9200
:10281000AF92BF92CF92DF92EF92FF920F931F93EE
:10282000CF93DF93CDB7DEB763970FB6F894DEBFD3
:102830000FBECDBF4B015C0169017A0189E0E7E879
:10284000F1E0DE01119601900D928A95E1F7C50144
:10285000B40124E630E040E050E00E94EC1F6C87B9
:102860007D878E879F878C859D856CE370E00E94B5
:10287000D81F8A3091050CF0E0C0805D8983C701C4
:10288000B60120E137E240E050E00E94EC1F288BC7
:10289000398B4A8B5B8B888999896CE370E00E9445
:1028A000D81F8A3091050CF0D7C0805D8A83C7019C
:1028B000B60120EF38ED4FEF5FEF0E94EC1F84E68A
:1028C000829FB001839F700D11247B876A87C701A7
:1028D000B60124E630E040E050E00E94EC1F8A851B
:1028E0009B85820F931F9B878A876CE370E00E9411
:1028F000D81F8A3091050CF0AAC0805D8B83C80177
:102900006CE370E00E94D81F8A3091050CF09AC0E9
:10291000805D8C8380E00E947511892B09F4ACC026
:10292000C501B40120E137E240E050E00E94EC1F15
:10293000190194E1290E311C322C2224330CC501DB
:10294000B40120EF38ED4FEF5FEF0E94EC1F84E6FB
:10295000829F8001839F100D1124B4E64B2E512CD1
:10296000612C712CC501B401A30192010E94EC1FDE
:10297000020F131F000F111F02951295107F1027D1
:10298000007F1027202A312AEC85FD852E2A3F2A38
:102990003092650120926401C701B601A301920142
:1029A0000E94EC1F7595679588899989982F8827CB
:1029B000990F990F990F682B792B8A859B85880F22
:1029C000991F82959295907F9827807F9827682BF2
:1029D000792B7093B4016093B30120E04CE0BE0109
:1029E0006F5F7F4F8CE391E00E94BC0F9093B20128
:1029F0008093B1010097E9F1FC012081332727FD85
:102A0000309537FD36C0C90163960FB6F894DEBF26
:102A10000FBECDBFDF91CF911F910F91FF90EF902F
:102A2000DF90CF90BF90AF909F908F907F906F90EE
:102A30005F904F903F902F9008958E319105BCF498
:102A4000895A1CCF8E31910584F4895A62CF8E3118
:102A500091054CF4895A52CF8E31910514F4895A5C
:102A600025CF8D5D23CF8D5D49CF8D5D52CF8D5D9F
:102A700005CF8EEF9FEFC8CF8FEF9FEFC5CF2F927F
:102A80003F924F925F926F927F928F929F92AF92FE
:102A9000BF92CF92DF92EF92FF920F931F93CF934B
:102AA000DF93CDB7DEB7C253D1400FB6F894DEBF87
:102AB0000FBECDBFC35DDE4F99838883CD52D14019
:102AC000C15DDE4F79836883CF52D1401A0159012D
:102AD000CF5CDE4FF982E882C153D1404601519864
:102AE00050981092C5008CE08093C4008091C00083
:102AF00082608093C0008091C10088618093C10092
:102B00008091C20086608093C20040E050E069EC92
:102B100070E06C0F7D1F6F5F7F4F8091C0008091D0
:102B2000C6008432D1F78091C0008091C6008091A8
:102B3000C0008091C6008091C0008091C60087349B
:102B400009F4B9C2863509F4C9C28A3531F78091D2
:102B5000C0008091C6008091C0008091C600809125
:102B6000C0008091C6008091C000B091C600BA320A
:102B700009F40BC3FE01329680E090E00196B19318
:102B8000B091C000B091C600BA32C1F79091C000B8
:102B90009091C6009091C0009091C60089834460D6
:102BA0004730510509F0B9CFA63509F4F2C27E01CC
:102BB00082E0E80EF11C25E030E0412C512C32017E
:102BC000F701A1917F01BB27A7FDB095D097121601
:102BD00013060CF0D7C260E070E041E050E0CA019B
:102BE000880F991F440F551F440F551F440F551F41
:102BF000480F591F6F5F7F4F6217730781F7A49FBC
:102C0000C001A59F900DB49F900D1124AA2797FD98
:102C1000A095BA2F480E591E6A1E7B1EC35DDE4F5B
:102C2000A881B981CD52D1404D925D926D927C9236
:102C300013972150310920F62F89332727FD30952E
:102C40002053310940EA56E8249FC001259F900D8A
:102C5000349F900D1124AA2797FDA095BA2F2A8999
:102C6000332727FD3095205331092901440C551C89
:102C7000220F331F220F331F220F331F420E531E0A
:102C8000662457FC6094762C2F85332727FD3095DA
:102C90002053310968EE73E0269FA001279F500D55
:102CA000369F500D11246A01EE24D7FCE094FE2CCF
:102CB0002889332727FD30952053310964E6629F28
:102CC000A001639F500D1124662757FD6095762F54
:102CD000C40ED51EE61EF71E4C0C5D1C6E1C7F1C20
:102CE0002B89332727FD309520533109A901662709
:102CF00057FD6095762F440E551E661E771E840D77
:102D0000951DA61DB71D288D332727FD309520530F
:102D1000310960E177E2269FA001279F500D369F81
:102D2000500D1124662757FD6095762F840F951F4F
:102D3000A61FB71FC15DDE4FE881F981CF52D14098
:102D400080839183A283B383C351DF4F8881CD5E9B
:102D5000D040992787FD9095C097C451DF4F2881B7
:102D6000CC5ED040332727FD309520533109A9018F
:102D7000440F551F220F331F220F331F220F331F03
:102D8000420F531F840F951FD1018D939C93E9EC43
:102D90006E2E712C6C0E7D1EB5E16B0E711CF4E075
:102DA000EF2EF12C212C312C2101D301ED913D018D
:102DB000FF27E7FDF095F0971E141F040CF0DFC10C
:102DC00020E030E081E090E0AC01440F551F880F17
:102DD000991F880F991F880F991F840F951F2F5FC8
:102DE0003F4F2E153F0581F7E89FB001E99F700D19
:102DF000F89F700D1124882777FD8095982F0E94E9
:102E000047219B01AC01C201B1010E9448201B0176
:102E10002C01F5016083718382839383F1E0EF1AC3
:102E2000F10818F6CB51DF4F6881C55ED040772797
:102E300067FD709560537109882777FD8095982FFD
:102E40000E94472120E030E048EC52E40E94AC2090
:102E50006B017C01CC51DF4F6881C45ED040772785
:102E600067FD709560537109882777FD8095982FCD
:102E70000E94472120E030E040E251E40E94AC2073
:102E8000A20191010E9448209B01AC01C701B6013B
:102E90000E944820D5016D937D938D939C93139749
:102EA000E9ECCE2ED12CCC0EDD1EBBE0CB0ED11C1E
:102EB000F4E0EF2EF12C412C512C3201D601ED9192
:102EC0006D01FF27E7FDF095F0971E141F040CF02D
:102ED00053C120E030E081E090E0AC01440F551F89
:102EE000880F991F880F991F880F991F840F951FAE
:102EF0002F5F3F4F2E153F0581F7E89FB001E99FF7
:102F0000700DF89F700D1124882777FD8095982FFC
:102F10000E9447219B01AC01C301B2010E944820DD
:102F20002B013C01F8016083718382839383F1E07C
:102F3000EF1AF10818F6C652DF4F6881CA5DD0401B
:102F4000772767FD709560537109882777FD809515
:102F5000982F0E94472120E030E040E251E40E9497
:102F6000AC209B01AC01C301B2010E9448206B015F
:102F70007C01C552DF4F6881CB5DD040772767FD6C
:102F8000709560537109882777FD8095982F0E946E
:102F9000472120E030E048EC52E40E94AC209B0145
:102FA000AC01C701B6010E944820D8016D937D9302
:102FB0008D939C931397E9966FADE997772767FDFB
:102FC000709560537109882777FD8095982F0E942E
:102FD00047216B017C01EB966FADEB97772767FD7F
:102FE000709560537109882777FD8095982F0E940E
:102FF000472120E030E040E251E40E94AC209B01F8
:10300000AC01C701B6010E944820CF5CDE4FE881C9
:10301000F981C153D1406083718382839383A796E2
:103020006FADA797772767FD709560537109882763
:1030300077FD8095982F0E9447216B017C01A9960E
:103040006FADA997772767FD709560537109882741
:1030500077FD8095982F0E94472120E030E040E2E4
:1030600051E40E94AC209B01AC01C701B6010E9453
:103070004820D4016D937D938D939C93139780E0AA
:1030800090E0CE5CDE4F0FB6F894DEBF0FBECDBF32
:10309000DF91CF911F910F91FF90EF90DF90CF9034
:1030A000BF90AF909F908F907F906F905F904F9068
:1030B0003F902F9008958091C0008091C600873482
:1030C00099F18C3409F029CDACE401C0A82F80918E
:1030D000C0008091C6008A32C9F71FCD8091C00020
:1030E0008091C6008091C0008091C6008091C00090
:1030F0008091C6008091C0002091C6002A3251F014
:10310000FE01EA59FF4F21932091C0002091C60093
:103110002A32C9F78091C0008091C6008091C0001A
:103120008091C6004260F9CC8091C0008091C600B9
:103130008091C0008091C6008091C000B091C6000F
:10314000BA3229F1FB0180E090E00196B193B09191
:10315000C000B091C600BA32C1F79091C000909102
:10316000C6009091C0009091C600C753DF4F88837E
:10317000C95CD0404160D1CC81E090E0BECE81E01E
:1031800090E032CE41E050E03ACD80E0FFCC80E0EC
:10319000E4CF8FEF9FEF75CF2F923F924F925F92C8
:1031A0006F927F928F929F92AF92BF92CF92DF9257
:1031B000EF92FF920F931F93CF93DF93CDB7DEB7BC
:1031C0006F970FB6F894DEBF0FBECDBF9F8F8E8F67
:1031D0002A013B01C901B80124E630E040E050E09B
:1031E0000E94EC1FCB016CE370E00E94D81F8A3074
:1031F00091050CF024C2805D89831E0142E0240EFB
:10320000311C04E010E0ECE38E2E912CAA8EBB8ED4
:10321000CC8EDD8E5701101611060CF027C280E00F
:1032200090E021E030E0A901440F551F220F331F29
:10323000220F331F220F331F240F351F01968017D3
:10324000910789F7442737FD4095542FC301B201F8
:103250000E94EC1F69017A01B8016E5F7F4F80E028
:1032600090E021E030E0A901440F551F220F331FE9
:10327000220F331F220F331F240F351F019686178D
:1032800097078CF3442737FD4095542FC301B201B3
:103290000E94EC1F6CE96203C001639F900D112432
:1032A0008C0D9D1DB4010E94D81F8A3091050CF031
:1032B000BAC1805DD1018D931D01025011090E3FED
:1032C000BFEF1B0709F0A7CF7501AA8CBB8CCC8C74
:1032D000DD8CC7016CE370E00E94D81F8A30910535
:1032E0000CF0B7C1805D8D8320E030E040EF52E408
:1032F000C601B5010E9447202B013C0120E030E0CF
:1033000040EA51E46CA97DA98EA99FA90E9447209B
:103310004B015C01C301B2010E9414211B01CB01CE
:103320006CE370E00E94D81F8A3091050CF08CC1CC
:10333000805D8E837E01E7E0EE0EF11C00E010E080
:103340008A8E9B8EAC8EBD8E570180E090E061E04E
:1033500070E09B01220F331F660F771F660F771FE8
:10336000660F771F620F731F0196081719078CF7F6
:10337000882777FD8095982F0E944721A30192010D
:103380000E94D3216B017C0120E030E081E090E0DD
:10339000AC01440F551F880F991F880F991F880F84
:1033A000991F840F951F2F5F3F4F0217130784F754
:1033B000289EB001299E700D389E700D112488271B
:1033C00077FD8095982F0E9447219B01AC01C70192
:1033D000B6010E94472020E030E040E452E40E9421
:1033E00048200E941421D5016D935D010F5F1F4F8E
:1033F0000630110509F0A9CF8A8C9B8CAC8CBD8C52
:10340000C501B4010E9414213B01CB016CE370E0C3
:103410000E94D81F8A3091050CF00CC1805D8D8709
:103420002E01BEE04B0E511C00E010E080E090E069
:1034300061E070E09B01220F331F660F771F660F5C
:10344000771F660F771F620F731F01960817190702
:103450008CF7882777FD8095982F0E944721A5013A
:1034600094010E94D3216B017C0120E030E081E0D7
:1034700090E0AC01440F551F880F991F880F991FCA
:10348000880F991F840F951F2F5F3F4F0217130757
:1034900084F7689EB001699E700D789E700D1124AE
:1034A000882777FD8095982F0E9447219B01AC01CA
:1034B000C701B6010E94472020E030E040E452E41A
:1034C0000E9448200E941421F20161932F010F5F96
:1034D0001F4F0630110509F0A9CF68AD79AD8AAD4F
:1034E0009BAD0E9414216B017C0110E3160F1C8B15
:1034F00020E030E040E251E468AD79AD8AAD9BADAB
:103500000E94D3214B015C012AE030E081E090E091
:10351000AC01440F551F880F991F880F991F880F02
:10352000991F840F951F215031092115310581F70D
:103530008C9DB0018D9D700D9C9D700D1124882770
:1035400077FD8095982F0E9447219B01AC01C50112
:10355000B4010E94472020E030E040E452E40E94A1
:1035600048200E9414216D8B1E8B2AE030E081E000
:1035700090E0AC01440F551F880F991F880F991FC9
:10358000880F991F840F951F21503109211531058E
:1035900081F78C9DB0018D9D700D9C9D700D112447
:1035A000882777FD8095982F0E9447219B01AC01C9
:1035B000C501B4010E94472020E030E040E452E41D
:1035C0000E9448200E9414216F8B8DE0888F8AE032
:1035D000898F24E14E8D5F8D249FC001259F900D22
:1035E000112449E150E0BE016F5F7F4F80509F4F33
:1035F0000E94EB0E6F960FB6F894DEBF0FBECDBFE4
:10360000DF91CF911F910F91FF90EF90DF90CF90BE
:10361000BF90AF909F908F907F906F905F904F90F2
:103620003F902F9008958E31910514F4895A42CE1F
:103630008D5D40CE8E319105BCF4895AF0CE8E312D
:10364000910584F4895AD8CD8E3191054CF4895A6C
:1036500070CE8E31910514F4895A45CE8D5D43CEDE
:103660008D5D67CE8D5DC8CD8D5DD9CE21E030E01A
:1036700040E050E0EBCD2F923F924F925F926F92DD
:103680007F928F929F92AF92BF92CF92DF92EF92F2
:10369000FF920F931F93CF93DF9300D000D000D001
:1036A000CDB7DEB74B015C0129833A834B835C8342
:1036B00086E490E09E838D8316E0212E312C412CF0
:1036C000512C820129813A814B815C81C501B40171
:1036D0000E945F133C01E0901E04F0901F041E1432
:1036E0001F049CF40EEF13E0EE0CFF1CC701825088
:1036F0009C4F7C0160E070E0F801819191918F0115
:103700000E94A2050E151F05A9F7810106191709C8
:10371000E1E0F0E002C0EE0FFF1F0A95E2F78F0133
:10372000009510952091FC033091FD0312161306AD
:10373000DCF4ACEDCA2EA3E0DA2E7901F1E0EF1A49
:10374000F108B8010E2C02C0759567950A94E2F74E
:1037500061707727F601819191916F010E94A20516
:10376000F1E0EF1AF10868F700911E0410911F04B0
:1037700010161106C4F4FEEFEF2EF3E0FF2E0150F9
:103780001109B301002E02C0759567950A94E2F7FE
:1037900061707727F701819191917F010E94A205C5
:1037A0000150110970F7E9EFF0E03197F1F700C02F
:1037B0000000FFEF4F1A5F0A87E04816510409F036
:1037C00080CF8D819E8101979E838D83892B09F007
:1037D00076CF26960FB6F894DEBF0FBECDBFDF9131
:1037E000CF911F910F91FF90EF90DF90CF90BF90FE
:1037F000AF909F908F907F906F905F904F903F9091
:103800002F900895CF93DF9324E1289FE001299F13
:10381000D00D1124C050DF4FCE010E946C0E8111DB
:103820000DC08FEF88838CE391E00E942E1387FDFB
:103830000AC080E090E0DF91CF9108958FEF9FEF75
:10384000DF91CF9108958EEF9FEFFACFEF92FF9225
:103850000F931F93CF93DF93FC01E0A0F1A01E1400
:103860001F04D4F4EC01EE0CFF1CEE0EFF1E80E0F2
:1038700090E08C01000F111F899199910E941E0602
:10388000802B912BCE15DF05A1F7DF91CF911F91F2
:103890000F91FF90EF90089580E090E0F6CFEF92C7
:1038A000FF920F931F93CF93DF937B01FC01C0A185
:1038B000D1A11C161D069CF48C012197B7010C2E7A
:1038C00002C0759567950A94E2F761707727F80151
:1038D000819191918F010E94A205219778F7DF9144
:1038E000CF911F910F91FF90EF9008952F923F92EB
:1038F0004F925F926F927F928F929F92AF92BF9200
:10390000CF92DF92EF92FF920F931F93CF93DF93AB
:1039100000D0CDB7DEB78AEB93E00E94261C80FF73
:1039200017C080E090E00F900F90DF91CF911F9132
:103930000F91FF90EF90DF90CF90BF90AF909F904E
:103940008F907F906F905F904F903F902F90089551
:1039500060E070E08EEF93E00E944F1C6EEF7FEF0F
:103960008CED93E00E944F1C61E070E08EEF93E0DD
:103970000E944F1C61E070E08091B6039091B70304
:103980000E94A205212C312CF3E08F2E912C3A823B
:10399000298209811A8120E030E0A9016AEC75E7EB
:1039A00082E090E00E9400143C0197FD6AC162E051
:1039B00070E08EEF93E00E944F1C70EA272E72EFAA
:1039C000372E7CE6472E512C00911E0410911F04C7
:1039D00010161106B4F5015011092EEF33E07901EC
:1039E000B401002E02C0759567950A94E2F76170E4
:1039F0007727F701819191917F010E94A2050150E3
:103A0000110970F700911E0410911F041016110681
:103A1000C4F4015011092EEF33E0790164E070E045
:103A2000002E02C0759567950A94E2F761707727BA
:103A3000F701819191917F010E94A2050150110926
:103A400068F71F921F921F921F921F921F921F9240
:103A50001F9222E42F933CE03F931F921F92A12CD0
:103A6000B12C67E0C62E63E4D62EE12CF12C0AECD3
:103A700015E722E030E040E050E0BA01C3010E94C7
:103A8000CC180FB6F894DEBF0FBECDBF97FDD6C0E1
:103A900000911E0410911F0410161106C4F42EEF9D
:103AA00033E001501109790165E070E0002E02C099
:103AB000759567950A94E2F761707727F701819110
:103AC00091917F010E94A2050150110968F70091B0
:103AD000DA031091DB0310161106D4F5000F111F45
:103AE00006541C4F2AEB33E080E090E069017C0132
:103AF000EE0CFF1CF601819191916F010E941E0650
:103B00008E299F29C016D10691F780FD69C00091CA
:103B1000DA031091DB0310161106D4F4000F111F05
:103B200006541C4F2AEB33E080E090E069017C01F1
:103B3000EE0CFF1CF601819191916F010E941E060F
:103B40008E299F29C016D10691F7029709F4BAC0B1
:103B500000911E0410911F0410161106BCF42EEFE4
:103B600033E0015011097901B401002E02C07595AE
:103B700067950A94E2F761707727F7018191919137
:103B80007F010E94A2050150110970F70091FC030A
:103B90001091FD0310161106C4F42CED33E0015012
:103BA000110979016EEF7FEF002E02C075956795C0
:103BB0000A94E2F761707727F701819191917F0173
:103BC0000E94A2050150110968F721E0221A31086C
:103BD00041085108211431044104510409F0F4CE84
:103BE00066E070E08EEF93E00E944F1CC3010E94DC
:103BF000021C97FD72C08AEB93E00E94261C80FD98
:103C000008C089819A8101969A8389830A9709F06D
:103C1000C0CE60E070E08091B6039091B7030E943F
:103C2000A20560E070E08EEF93E00E944F1C6FEF02
:103C30007FEF8CED93E00E944F1C73CE8C01C090FF
:103C4000FC03D090FD031C141D04ECF75CEDE52E85
:103C500053E0F52E21E0C21AD108B8010C2C02C0A5
:103C6000759567950A94E2F761707727F70181915E
:103C700091917F010E94A205F1E0CF1AD10868F767
:103C8000DECF7C010091FC031091FD03101611069C
:103C9000ECF7ECEDCE2EE3E0DE2E01501109B7017A
:103CA000002E02C0759567950A94E2F76170772738
:103CB000F601819191916F010E94A20501501109B5
:103CC00070F7E0CF20E030E04CE052E460E070E0DC
:103CD00087E093E40E943B1B3BCF8C01C090FC0328
:103CE000D090FD031C141D04ECF78CEDE82E83E04E
:103CF000F82E21E0C21AD108B8010C2C02C075952B
:103D000067950A94E2F761707727F70181919191A5
:103D10007F010E94A205F1E0CF1AD10868F7DECF3B
:103D20000F931F93CF93DF9388E090E09093FF036E
:103D30008093FE0389E090E0909301048093000457
:103D40008AE090E090930304809302048BE090E07B
:103D500090930504809304048CE090E09093070412
:103D6000809306048FEF9FEF9093090480930804DB
:103D700090930B0480930A0490930D0480930C0499
:103D800090930F0480930E04909311048093100479
:103D90009093130480931204909315048093140459
:103DA0009093170480931604909319048093180439
:103DB00090931B0480931A0490931D0480931C0419
:103DC00000E014E0C0E0D0E088E090E008C0F80136
:103DD000819191918F018F3FFFEF9F0741F061E04B
:103DE00070E00E9441052196C031D10581F7D09342
:103DF0001F04C0931E0482E190E09093DD03809342
:103E0000DC0383E190E09093DF038093DE0384E1A1
:103E100090E09093E1038093E00385E190E090933C
:103E2000E3038093E20386E190E09093E5038093BF
:103E3000E40387E190E09093E7038093E60387E053
:103E400090E09093E9038093E8038FEF9FEF9093C6
:103E5000EB038093EA039093ED038093EC0390933C
:103E6000EF038093EE039093F1038093F00390931C
:103E7000F3038093F2039093F5038093F4039093FC
:103E8000F7038093F6039093F9038093F8039093DC
:103E9000FB038093FA030EED13E0C0E0D0E082E173
:103EA00090E008C0F801819191918F018F3FFFEF61
:103EB0009F0741F061E070E00E9441052196C0310A
:103EC000D10581F7D093FD03C093FC031092BB038F
:103ED0001092BA0381E090E09093BD038093BC03FD
:103EE0008FEF9FEF9093BF038093BE039093C10326
:103EF0008093C0039093C3038093C2039093C50340
:103F00008093C4039093C7038093C6039093C9031F
:103F10008093C8039093CB038093CA039093CD03FF
:103F20008093CC039093CF038093CE039093D103DF
:103F30008093D0039093D3038093D2039093D503BF
:103F40008093D4039093D7038093D6039093D9039F
:103F50008093D8030CEB13E0C0E0D0E080E090E069
:103F600008C0F801819191918F018F3FFFEF9F076A
:103F700041F060E070E00E9441052196C031D1051A
:103F800081F7D093DB03C093DA0386E090E090934F
:103F9000B9038093B803269882E090E09093B7032A
:103FA0008093B603229ADF91CF911F910F910895CC
:103FB00097FB072E16F4009407D077FD09D00E94D6
:103FC0000B2007FC05D03EF4909581959F4F0895F6
:103FD000709561957F4F0895052E97FB1EF4009410
:103FE0000E94032057FD07D00E941F2007FC03D02A
:103FF0004EF40C94032050954095309521953F4FF9
:104000004F4F5F4F089590958095709561957F4FC4
:104010008F4F9F4F0895AA1BBB1B51E107C0AA1FDA
:10402000BB1FA617B70710F0A61BB70B881F991F59
:104030005A95A9F780959095BC01CD010895A1E20C
:104040001A2EAA1BBB1BFD010DC0AA1FBB1FEE1F12
:10405000FF1FA217B307E407F50720F0A21BB30B5D
:10406000E40BF50B661F771F881F991F1A9469F7D9
:1040700060957095809590959B01AC01BD01CF0135
:104080000895EE0FFF1F0590F491E02D099450580C
:10409000BB27AA270ED04DC13ED130F043D120F02E
:1040A00031F49F3F11F41EF433C10EF4E095E7FBA9
:1040B00029C1E92F4FD180F3BA176207730784072C
:1040C000950718F071F49EF567C10EF4E0950B2E7C
:1040D000BA2FA02D0B01B90190010C01CA01A0015A
:1040E0001124FF27591B99F0593F50F4503E68F1B5
:1040F0001A16F040A22F232F342F4427585FF3CFF6
:10410000469537952795A795F0405395C9F77EF4C6
:104110001F16BA0B620B730B840BBAF09150A1F00F
:10412000FF0FBB1F661F771F881FC2F70EC0BA0F95
:10413000621F731F841F48F4879577956795B7951D
:10414000F7959E3F08F0B3CF9395880F08F0992715
:10415000EE0F9795879508950CD0EBC0E3D040F013
:10416000DAD030F021F45F3F19F0CCC0511115C105
:10417000CFC0F0D098F39923C9F35523B1F3951B21
:10418000550BBB27AA2762177307840738F09F5F78
:104190005F4F220F331F441FAA1FA9F333D00E2EE7
:1041A0003AF0E0E830D091505040E695001CCAF754
:1041B00029D0FE2F27D0660F771F881FBB1F261719
:1041C00037074807AB07B0E809F0BB0B802DBF01EC
:1041D000FF2793585F4F2AF09E3F510568F092C029
:1041E000DCC05F3FECF3983EDCF3869577956795EE
:1041F000B795F7959F5FC9F7880F911D969587959D
:1042000097F90895E1E0660F771F881FBB1F6217BB
:1042100073078407BA0720F0621B730B840BBA0B79
:10422000EE1F88F7E095089504D06894B111B5C0E9
:10423000089598D088F09F5790F0B92F9927B751DB
:10424000A0F0D1F0660F771F881F991F1AF0BA955A
:10425000C9F712C0B13081F09FD0B1E008959CC081
:10426000672F782F8827B85F39F0B93FCCF3869550
:1042700077956795B395D9F73EF4909580957095AD
:1042800061957F4F8F4F9F4F0895E89409C097FB2A
:104290003EF490958095709561957F4F8F4F9F4F1D
:1042A0009923A9F0F92F96E9BB279395F695879561
:1042B00077956795B795F111F8CFFAF4BB0F11F424
:1042C00060FF1BC06F5F7F4F8F4F9F4F16C08823CB
:1042D00011F096E911C0772321F09EE8872F762F01
:1042E00005C0662371F096E8862F70E060E02AF042
:1042F0009A95660F771F881FDAF7880F969587952E
:1043000097F9089597F99F6780E870E060E0089555
:104310009FEF80EC089500240A94161617061806DD
:104320000906089500240A941216130614060506B9
:104330000895092E0394000C11F4882352F0BB0F4A
:1043400040F4BF2B11F460FF04C06F5F7F4F8F4FAD
:104350009F4F089557FD9058440F551F59F05F3FE8
:1043600071F04795880F97FB991F61F09F3F79F097
:1043700087950895121613061406551FF2CF469519
:10438000F1DF08C0161617061806991FF1CF86959B
:104390007105610508940895E894BB27662777277F
:1043A000CB0197F908950BD0C4CFB5DF28F0BADF61
:1043B00018F0952309F0A6CFABCF1124EECFCADFBA
:1043C000A0F3959FD1F3950F50E0551F629FF00128
:1043D000729FBB27F00DB11D639FAA27F00DB11D81
:1043E000AA1F649F6627B00DA11D661F829F22270A
:1043F000B00DA11D621F739FB00DA11D621F839F91
:10440000A00D611D221F749F3327A00D611D231F66
:10441000849F600D211D822F762F6A2F11249F57B4
:1044200050408AF0E1F088234AF0EE0FFF1FBB1FD7
:10443000661F771F881F91505040A9F79E3F510576
:1044400070F060CFAACF5F3FECF3983EDCF3869527
:1044500077956795B795F795E7959F5FC1F7FE2B21
:10446000880F911D9695879597F908959111089554
:1044700081568A5108F4805285580895FB01DC0169
:1044800002C001900D9241505040D8F70895FB01B1
:10449000DC014150504030F08D910190801919F4A9
:0E44A0000020B9F7881B990B0895F894FFCF00
:1044AE00FF000000000000000000000000000000FF
:1044BE0000000000FF0000000000000000000000EF
:1044CE000000000000000000FF00000000000000DF
:1044DE00000000000000000000000000FF000000CF
:1044EE0000000000000000000000000000000000BE
:1044FE0000000000000000000000000000000000AE
:10450E0000000000213CFF00000000000000000041
:10451E00000000000000222A2B2C2E2F3A3B3C3D9F
:10452E003E3F5B5C5D7C0064686D302E7478740079
:00000001FF
