:100000000C945C000C9484000C9484000C94840088
:100010000C9484000C9484000C9484000C94840050
:100020000C9484000C9484000C9484000C94840040
:100030000C9484000C9484000C9484000C94840030
:100040000C9484000C9484000C9484000C94840020
:100050000C9484000C9484000C9484000C94840010
:100060000C9484000C9484002E1E4D1E341E801DA2
:10007000801D801D801D801D801D801D801D801D98
:10008000801D941D801D801D801DD71D801D341E68
:10009000801D801D8C1DF4229E22FD21712269226B
:1000A000FD21FD216122FD21FD215A2249223C2210
:1000B000202205224C2B632B11241FBECFEFD8E04A
:1000C000DEBFCDBF11E0A0E0B1E0E0EAFBE502C099
:1000D00005900D92A631B107D9F71BE3A6E1B1E077
:1000E00001C01D92A03FB107E1F710E0C6EBD0E0E0
:1000F00004C02297FE010E94A42BC43BD107C9F77C
:100100000E940A2B0C94C32D0C940000FC01A081CA
:10011000B1811097B1F07C91713268F07A3389F037
:10012000AD014F5F5F4FFA0102C06A3339F09F01A2
:1001300061916132D0F780E090E008954217530753
:1001400019F08FEF9FEF08957033D9F71296FC01E5
:10015000B183A08380E090E00895009749F0DC012E
:10016000ED91FC911197309719F02081211106C073
:10017000FB011182108289E090E00895258136818B
:1001800012968D919C9113972817390789F78091C2
:10019000000180FDEDCFDB01ED93FC9380E090E06A
:1001A0000895FB01DC01460F571F81918D93E417E1
:1001B000F507D9F70895CF93DF93EC01FB0160E0D9
:1001C00070E040E050E09EE20FC02930310509F4B4
:1001D0005DC0DF01A60FB71F19968C936F5F7F4F2D
:1001E0002B30310579F0A9019A012F5F3F4FA8818B
:1001F000B981A40FB51F8C91803291F3853029F716
:1002000085EEE3CFDF01A60FB71F19961C92A881D8
:10021000B9811B968C9180870990D881C02D8F8DD4
:1002200090E0A0E0B0E0BA2FA92F982F88272E8D5C
:10023000822BBA2FA92F982F88272D8D822BBA2F8A
:10024000A92F982F88272C8D822B80839183A283BE
:10025000B383898D90E0A0E0B0E0BA2FA92F982F4A
:100260008827288D822BBA2FA92F982F88272F898E
:10027000822BBA2FA92F982F88272E89822B97831C
:100280008683B583A483DF91CF910895DF01A60F04
:10029000B71F19969C936F5F7F4F9BCF3FEF3EBD7B
:1002A0000DB407FEFDCF2EB52F3FC9F32E3F19F039
:1002B00080E090E00895FC018FEF8EBD0DB407FE45
:1002C000FDCF9EB590838EBD0DB407FEFDCF9EB5CC
:1002D00091836250710932966115710571F78FEF44
:1002E0008EBD0DB407FEFDCF8EB58FEF8EBD0DB464
:1002F00007FEFDCF8EB581E090E0089522E330E067
:100300005FEF5EBD0DB407FEFDCF4EB54F3F41F030
:100310002150310921153105A1F780E090E00895C1
:100320006EBD0DB407FEFDCF2EB56D3F59F1FC013A
:100330009E5F20812EBD0DB407FEFDCF2EB521811D
:100340002EBD0DB407FEFDCF2EB53296E817F90786
:1003500081F78FEF8EBD0DB407FEFDCF8EB58FEF09
:100360008EBD0DB407FEFDCF8EB58FEF8EBD0DB4E3
:1003700007FEFDCF2EB52F7181E090E0253029F0EA
:1003800080E0089581E090E0089508958F3F2FEF79
:100390009207C1F061157105B9F06130710599F4EA
:1003A000883091059CF180319105D4F18831910517
:1003B0004CF42AB14097082E01C0660F0A94EAF760
:1003C000262B2AB908950895883091059CF0803134
:1003D000910584F188319105ACF74AB1409721E04D
:1003E00030E0082E01C0220F0A94EAF7209524235A
:1003F0002AB9089594B121E030E0082E01C0220FFF
:100400000A94EAF72095292324B9089524B1AB0171
:1004100002C0440F551F8A95E2F7242B24B9089592
:1004200027B10897082E01C0660F0A94EAF7262B19
:1004300027B9089547B1089721E030E0082E01C0A0
:10044000220F0A94EAF72095242327B908958F3FB5
:100450002FEF9207E1F088309105D4F080319105BB
:1004600054F1883191059CF44BB1409721E030E084
:10047000082E01C0220F0A94EAF720952423AB012D
:1004800002C0440F551F8A95E2F7242B2BB908951B
:1004900095B121E030E0082E01C0220F0A94EAF75E
:1004A00020952923AB0102C0440F551F8A95E2F71E
:1004B000242B25B9089548B1089721E030E0082E93
:1004C00001C0220F0A94EAF720952423AB0102C051
:1004D000440F551F8A95E2F7242B28B9089561E04F
:1004E00070E08091D83B9091D93B0E9427028FEF1A
:1004F0008EBD0DB407FEFDCF8EB5089560E070E0AF
:100500008091D83B9091D93B0E9427028FEF8EBDFE
:100510000DB407FEFDCF8EB582E390E03FEF3EBD08
:100520000DB407FEFDCF2EB52F3F41F00197009788
:10053000B1F70E946F0280E090E0089581E090E0C2
:1005400008958F3F4FEF940701F18830910594F0A3
:1005500080319105F4F088319105ACF42BB130E095
:10056000409702C0359527958A95E2F72170332789
:10057000C901089525B130E002C0359527958A95C7
:10058000E2F721703327C901089520E030E0C90166
:10059000089528B130E0089702C0359527958A95CF
:1005A000E2F721703327C90108958F3F4FEF940779
:1005B00001F18830910594F080319105F4F0883193
:1005C0009105ACF429B130E0409702C035952795EC
:1005D0008A95E2F721703327C901089523B130E0ED
:1005E00002C0359527958A95E2F721703327C90116
:1005F000089520E030E0C901089526B130E0089761
:1006000002C0359527958A95E2F721703327C901F5
:100610000895181619066CF420E030E0E9EFF0E0D8
:100620003197F1F700C000002F5F3F4F28173907BF
:10063000A9F7089520E030E04AE754E40E94112C25
:100640000E94B72B1616170664F480E090E0E9EFDD
:10065000F0E03197F1F700C0000001968617970788
:10066000B1F708951816190644F420E030E00000B0
:100670002F5F3F4F28173907D1F708950F931F9326
:10068000CF93DF9300D0CDB7DEB78C01BE016F5F93
:100690007F4F0E94AD00009719F4F801118210827B
:1006A0000F900F90DF91CF911F910F910895CF92EE
:1006B000DF92EF92FF92CF93C62F69017A0167FD17
:1006C00072C0CC3069F00E946F020E947E02892BBA
:1006D00039F48FEFCF91FF90EF90DF90CF90089596
:1006E00060E070E08091D83B9091D93B0E94270256
:1006F0008C2F80648EBD0DB407FEFDCF8EB58F2D7F
:100700009927AA27BB278EBD0DB407FEFDCF8EB556
:10071000C701AA27BB278EBD0DB407FEFDCF8EB53E
:10072000BB27AF2D9E2D8D2D8EBD0DB407FEFDCFA9
:100730008EB5CEBC0DB407FEFDCF8EB5CC2341F1F6
:10074000C83041F587E88EBD0DB407FEFDCF8EB5EC
:10075000CC3011F12AE030E08FEF8EBD0DB407FEF2
:10076000FDCFFEB4F7FE05C021503109211531053A
:10077000A1F761E070E08091D83B9091D93B0E9455
:1007800027028F2DCF91FF90EF90DF90CF900895AB
:1007900085E9D9CF81E0D7CF8FEF8EBD0DB407FEAD
:1007A000FDCF8EB5D7CF20E030E0A90167E30E94EE
:1007B0005703823008F08ECFCF7783CF809100012E
:1007C0000895EF92FF920F931F93CF93DF9300D082
:1007D00000D01F92CDB7DEB7F82E4AE050E024E6F5
:1007E00030E089EF90E00197F1F700C00000215060
:1007F000310921153105A9F741505109411551051C
:1008000071F78091000181FF0EC0809100010F906F
:100810000F900F900F900F90DF91CF911F910F913C
:10082000FF90EF9008958CB58C7F81608CBD8DB565
:100830008E7F8DBD2AE030E08FEF8EBD0DB407FEB8
:10084000FDCF9EB52150310921153105B1F720E0CA
:1008500030E0A90160E08F2D0E945703813029F01C
:100860001092D73B0E946F02D0CF2AEA31E040E0DD
:1008700050E068E08F2D0E945703813029F58E01EA
:100880000B5F1F4FFE0131968FEF8EBD0DB407FE3B
:10089000FDCF9EB59193E017F107B9F78B818130B9
:1008A000F9F68C818A3AE1F6B4E6EB2E20E030E0EE
:1008B00040E050E469EA8F2D0E945703882309F431
:1008C0003EC0EA9469F2F2CF20E030E0A90169EA83
:1008D0008F2D0E945703823078F111E091E004E6F9
:1008E00020E030E0A901692F8F2D9D830E945703DE
:1008F0009D81882321F0015009F4B2CFF1CF00236C
:1009000009F4AECF20E032E040E050E060E18F2D0E
:100910000E9457038111A4CF1093D73B0E946F020E
:10092000809100018E7F809300018CB58C7F8CBDFF
:100930008DB58E7F8DBD69CF12E099EAD0CFEE20C4
:1009400009F48ECF20E030E0A9016AE38F2D0E94E8
:100950005703811185CFFE0131968FEF8EBD0DB407
:1009600007FEFDCF9EB591930E171F07B9F789813A
:1009700086FD02C014E0D0CF1CE0CECFEF92FF92F4
:100980000F931F93CF93DF93F82EEB010115110501
:1009900049F484E090E0DF91CF911F910F91FF9097
:1009A000EF9008958091000180FF09C083E090E0FE
:1009B000DF91CF911F910F91FF90EF90089580915B
:1009C000D73B83FD07C069E0220F331F441F551F2B
:1009D0006A95D1F70230110538F192E1E92E6E2DBA
:1009E0008F2D0E945703882359F00E946F0281E0E7
:1009F00090E0D1CFDE5F0150110901151105B9F06A
:100A000060E072E0CE010E944E01892B99F7D1E09F
:100A1000C0E0012B09F4D0E082E1E81659F00E9411
:100A20006F028D2F9C2FB7CF81E1E82ED8CFD0E079
:100A3000C0E0F2CF20E030E0A9016CE08F2D0E94F1
:100A40005703EDCFBF92CF92DF92EF92FF920F93B9
:100A50001F93CF93DF93B82EEB0169017A01011543
:100A6000110561F484E090E0DF91CF911F910F9127
:100A7000FF90EF90DF90CF90BF900895809100019C
:100A800080FF03C083E090E0EFCF8091000182FF00
:100A900003C082E090E0E8CF8091D73B83FD07C0A0
:100AA00079E0CC0CDD1CEE1CFF1C7A95D1F70130EF
:100AB000110589F1867039F5A701960169E18B2D41
:100AC0000E945703882359F00E946F0281E090E052
:100AD000CBCFDE5F015011090115110531F06CEF2C
:100AE000CE010E947E01892BA1F76DEF80E090E09E
:100AF0000E947E01892B41F30E946F02012B31F786
:100B000080E090E0B1CF980140E050E067E98B2DA4
:100B10000E945703D1CFA701960168E18B2D0E9457
:100B200057038111D1CF6EEFCE010E947E01892B38
:100B300059F20E946F02E4CF8F929F92AF92BF92C0
:100B4000CF92DF92EF92FF920F931F93CF93DF9399
:100B5000EC01CBA4DCA4EDA4FEA45C010FE2A00E8A
:100B6000B11C01E010E0A7019601B50189810E9446
:100B70002205892B09F041C01B828F89988DA98D90
:100B8000BA8D4F8D58A169A17AA197018601041BE6
:100B9000150B260B370B081719072A073B07F0F42C
:100BA0008A80912C12E08116910428F417C08F8955
:100BB000988DA98DBA8DC80ED91EEA1EFB1E01E0C4
:100BC00010E0A7019601B50189810E94220521E06C
:100BD000821A910831E08316910449F780E090E091
:100BE000DF91CF911F910F91FF90EF90DF90CF9009
:100BF000BF90AF909F908F90089581E090E0F0CFEC
:100C0000CF92DF92EF92FF920F931F93CF93DF93D8
:100C1000EC016A017B018BA59CA5ADA5BEA584173F
:100C20009507A607B70759F18B8181111FC001E015
:100C300010E0A7019601BE01615D7F4F89810E948E
:100C4000BE04892BC9F081E090E0CC24CA94DC2C4E
:100C50007601CBA6DCA6EDA6FEA6DF91CF911F9173
:100C60000F91FF90EF90DF90CF900895CE010E94FA
:100C70009C05009791F7DBCF80E090E0EACF80E021
:100C800090E0EBCF0F931F93CF93DF93EC011B8288
:100C90000FEF1FEF98010BA71CA72DA73EA70E94DF
:100CA0000006892B31F084E0DF91CF911F910F91E5
:100CB0000895FE01E25DFD4F808190E0982F882726
:100CC000FE01E35DFD4F2081822B85359A4A31F08C
:100CD00083E0DF91CF911F910F9108958FA5893EF9
:100CE00039F08B3E11F082E0DFCF89A98039D9F746
:100CF000FE01E859FF4F408150E060E070E0762F40
:100D0000652F542F4427FE01E959FF4F8081482B5E
:100D1000762F652F542F4427FE01EA59FF4F80811B
:100D2000482B762F652F542F4427FE01EB59FF4F98
:100D30008081482B7727463451446445710539F149
:100D4000FE01EC57FF4F408150E060E070E0762FED
:100D5000652F542F4427FE01ED57FF4F8081482B0C
:100D6000762F652F542F4427FE01EE57FF4F8081C9
:100D7000482B762F652F542F4427CF57DF4F88817C
:100D8000482B463451446445734309F0ACCF80E0AE
:100D90008BCF2F923F924F925F926F927F928F9262
:100DA0009F92AF92BF92CF92DF92EF92FF920F93FA
:100DB0001F93CF93DF93CDB7DEB76E970FB6F8943E
:100DC000DEBF0FBECDBF7B01DB011D921C924E8F9B
:100DD0000E9486004E8D97FD29C0FC01EE0FFF1F7B
:100DE000E651F44C0081118101151105D1F1F70193
:100DF000118300834E7FF42ED8012C91222361F0C1
:100E00002091000120FD08C0442309F445C022FFC1
:100E100043C08AE090E00CC0F801108281830E94F8
:100E2000E10380FF21C083E090E002C08BE090E00E
:100E30006E960FB6F894DEBF0FBECDBFDF91CF9197
:100E40001F910F91FF90EF90DF90CF90BF90AF90E8
:100E50009F908F907F906F905F904F903F902F90DA
:100E600008958CE090E0E4CFFF2011F082FDD1CF17
:100E700040E050E0BA01C8010E944206823079F099
:100E8000412C512C3201843009F45EC0823008F4C8
:100E90005EC08DE090E0CCCF80E090E0C9CFF8015B
:100EA000EF50FE4F7E0121E1E20EF11C9E012F5F0B
:100EB0003F4FBF01DB018C91882309F441C0179695
:100EC0008C9190E0A0E0B0E0BA2FA92F982F88274E
:100ED000FB014681842BBA2FA92F982F88274581A3
:100EE000842BBA2FA92F982F88274481842BF901AE
:100EF00081939193A193B1939F01605F7F4FEE1512
:100F0000FF05C1F69E012F5F3F4F6901D6014D904D
:100F10005D906D907D906D014114510461047104E8
:100F200031F483E0EC14FD0409F4ADCFEFCFB3014D
:100F3000A201C8010E944206823008F4A4CFF2CF79
:100F400080E090E0DC01D3CF81E090E071CFF80148
:100F500083AD90E0982F882722AD822B8115924097
:100F600009F097CFF801EA5BFF4FC080D12CDC2C51
:100F7000CC24F801EB5BFF4F8081C82AE12CF12CD7
:100F8000C114D104E104F10411F5F801EA5AFF4F4C
:100F9000C080D12CE12CF12CFE2CED2CDC2CCC24AF
:100FA000F801EB5AFF4F8081C82AFE2CED2CDC2C77
:100FB000CC24F801EC5AFF4F8081C82AFE2CED2C7E
:100FC000DC2CCC24F801ED5AFF4F8081C82AD801CF
:100FD0005796CD92DD92ED92FC925A97DF964C9106
:100FE000DF9712964C9312978FEF840F823008F0A0
:100FF00050CFDC96EC91DC97ED8F8E2F90E01A9617
:101000009C938E931997009709F443CF9C0121502C
:10101000310928233923232B09F03BCFF801EF5B5B
:10102000FF4F808190E0382E2224F801E05CFF4FD2
:101030008081282A18963C922E921797C1018F70B2
:101040009927892B09F025CFF801ED5BFF4F8080B0
:10105000912C982C8824F801EE5BFF4F8081882A20
:10106000A12CB12C81149104A104B10411F5F80153
:10107000EE5AFF4F8080912CA12CB12CBA2CA92CB8
:10108000982C8824F801EF5AFF4F8081882ABA2CC7
:10109000A92C982C8824F801E05BFF4F8081882AD6
:1010A000BA2CA92C982C8824F801E15BFF4F808191
:1010B000882AF80186ADE82FF0E0FE2FEE27D80150
:1010C000DD968C91E82B309709F4E3CEA42FB0E0A5
:1010D000A70196010E94652B698F7A8F8B8F9C8F59
:1010E0009F0140E050E02D8B3E8B4F8B588FC1010C
:1010F000929582958F7089279F708927280F391FB5
:10110000411D511D698D7A8D8B8D9C8D260F371F4A
:10111000481F591F298B3A8B4B8B5C8B8216930689
:10112000A406B50608F4B5CEC501B401621B730B65
:10113000840B950BED8D2E2F30E040E050E00E94A7
:10114000802B211531054105510509F4A2CE263F1A
:10115000FFEF3F074105510508F08DC0263F6FE0C6
:1011600036074105510508F0C0C149015A01B2E0F6
:101170008B0E911CA11CB11CF801838A948AA58A4C
:10118000B68A438E548E658E768E8D899E89AF8900
:10119000B88D840D951DA61DB71D878F90A3A1A3A3
:1011A000B2A349895A896B897C89440D551D661DF6
:1011B000771D47A350A761A772A731E0232809F440
:1011C00068CE498D5A8D6B8D7C8D840F951FA61F1F
:1011D000B71FF80183A394A3A5A3B6A3323009F4E3
:1011E0007DC1A3E0B0E0A50194010E94652B969516
:1011F000879577956795F1E08F229924AA24BB24DF
:10120000680D791D8A1D9B1D31E0DC01CB018150E9
:101210009E4FAF4FBF4F59E0B695A79597958795CD
:101220005A95D1F7C816D906EA06FB0608F431CE5E
:101230008FEF9FEFDC01F8018787908BA18BB28B3A
:1012400083879487A587B68780E88483333009F441
:1012500081C0D8013C938091E83B9091E93B019695
:101260009093E93B8093E83B16969C938E93159759
:1012700080E090E0DDCD49015A01F2E08F0E911C33
:10128000A11CB11CD80153968D929D92AD92BC9237
:101290005697F801438E548E658E768E8D899E8981
:1012A000AF89B88D840D951DA61DB71D878F90A39E
:1012B000A1A3B2A389899A89AB89BC89840D951DA4
:1012C000A61DB71D87A390A7A1A7B2A7E65AFF4FF7
:1012D000808190E0982F8827F801E75AFF4F2081FE
:1012E000822B892B09F0D5CD232809F0D2CDF80126
:1012F000E25AFF4F808190E0A0E0B0E0BA2FA92F22
:10130000982F8827F801E35AFF4F2081822BBA2FAC
:10131000A92F982F8827F801E45AFF4F2081822BAC
:10132000BA2FA92F982F8827F801E55AFF4F20815F
:10133000822BF80183A394A3A5A3B6A3C501B4018E
:10134000660F771F881F991F660F771F881F991FC9
:1013500033E05BCFE05AFF4F808190E0982F8827E1
:10136000F801E15AFF4F2081822B019709F071CFDC
:10137000B301A2014F5F5F4F6F4F7F4FC8013E8F98
:101380000E9400063E8D892B09F063CFD801149688
:101390001C92F801E25DFD4F808190E0982F882734
:1013A000F801E35DFD4F2081822B85359A4A09F0D3
:1013B00050CFD801D2968C9190E0A0E0B0E0BA2F47
:1013C000A92F982F8827F80121A9822BBA2FA92F9E
:1013D000982F882720A9822BBA2FA92F982F8827EA
:1013E00027A5822B82359245A146B14409F031CF21
:1013F000F801EA5EFD4F808190E0A0E0B0E0BA2FF6
:10140000A92F982F8827F801EB5EFD4F2081822BB2
:10141000BA2FA92F982F8827F801EC5EFD4F208165
:10142000822BBA2FA92F982F8827F801ED5EFD4F48
:101430002081822B82379247A144B14609F009CF1F
:10144000F801E65EFD4F808190E0A0E0B0E0BA2FA9
:10145000A92F982F8827F801E75EFD4F2081822B66
:10146000BA2FA92F982F8827F801E85EFD4F208119
:10147000822BBA2FA92F982F8827F801E95EFD4FFC
:101480002081822BF8018787908BA18BB28BE25E43
:10149000FD4F808190E0A0E0B0E0BA2FA92F982FF7
:1014A0008827F801E35EFD4F2081822BBA2FA92FF8
:1014B000982F8827F801E45EFD4F2081822BBA2FF8
:1014C000A92F982F8827F801E55EFD4F2081822BF8
:1014D000F80183879487A587B687BBCEC501B40181
:1014E000660F771F881F991F90CE49015A01F2E0BD
:1014F0008F0E911CA11CB11CD80153968D929D9208
:10150000AD92BC925697F801438E548E658E768EBE
:101510008D899E89AF89B88D840D951DA61DB71D37
:10152000878F90A3A1A3B2A349895A896B897C892B
:10153000440D551D661D771D47A350A761A772A7CF
:1015400032E03CCECF93DF93CDB7DEB727970FB60F
:10155000F894DEBF0FBECDBF9C838B837E836D83EB
:101560007A836983CE0101964F830E9486004F8162
:1015700097FD22C0880F991FFC01E651F44C0190A1
:10158000F081E02D309709F01082EB81FC813097DB
:10159000B1F01082DC01A651B44CED93FC934130C4
:1015A000A1F080E090E027960FB6F894DEBF0FBE62
:1015B000CDBFDF91CF9108958BE090E0F4CFFC0197
:1015C000E651F44C11821082ECCF40E0BE016D5F19
:1015D0007F4FCE0105960E94C906E5CFCF93DF93DA
:1015E000CBE7DBE3FE0132970190F081E02DEE0FB7
:1015F000FF1FEB53F44C1182108240E0BE0180E0EB
:1016000090E00E94A20ACD57D64081E0C631D807AB
:1016100049F7DF91CF9108952F923F924F925F92B9
:101620006F927F928F929F92AF92BF92CF92DF92F2
:10163000EF92FF920F931F93CF93DF9300D000D0D0
:10164000CDB7DEB71C016A017B0128013901DC013D
:101650008C91823009F4C6C0833009F482C0813095
:10166000C9F082E090E00F900F900F900F90DF9103
:10167000CF911F910F91FF90EF90DF90CF90BF908F
:10168000AF909F908F907F906F905F904F903F9022
:101690002F9008955A01B694A794A40EB51EC501C3
:1016A000892F992786955F964D915D916D917C91DB
:1016B0009297480F591F611D711DC1010E940006BC
:1016C000009789F64501BFEF8B1A9B0AE1E0BE2225
:1016D000A7019601217033274427552729833A8390
:1016E0004B835C83C0FEA4C0F101EA0DFB1D27A55E
:1016F0002F7030E1439EC0011124282B27A781E0E1
:10170000D10113968C9313975F964D915D916D91D6
:101710007C919297C401892F99278695480F591F6C
:10172000611D711DC1010E940006009709F09BCF49
:10173000B1E09B2229813A814B815C81232B242BB0
:10174000252B09F07AC0F101E80DF91D27A5207FAE
:10175000352D3F70232B27A721E0D10113962C9321
:1017600082CF07E076956795579547950A95D1F70B
:10177000F101878D90A1A1A1B2A1480F591F6A1F45
:101780007B1FC1010E940006009709F06CCFFFE0AB
:101790007F22CC0CDD1CCC0CDD1C2CEFC22221E006
:1017A000D222F601BF96E20DF31D438150E060E0C6
:1017B00070E0742F662755274427D101AC0DBD1D5D
:1017C000442755276627707F44295529662977299C
:1017D0009F964C9351836283738321E0D1011396CA
:1017E0002C9341CF452F562F672F7727F101878DF7
:1017F00090A1A1A1B2A1480F591F6A1F7B1FC1016F
:101800000E940006009709F02ECFCC0CDD1CE89456
:10181000C0F8F1E0DF22F101EC0DFD1D47A6F1015A
:10182000EC0DFD1D50AA21E0D10113962C931BCF86
:10183000242DF101EA0DFB1D61CF44E076946794FD
:10184000579447944A95D1F7242DF101E80DF91DDD
:1018500082CFAF92BF92CF92DF92EF92FF920F931F
:101860001F93CF93DF93EC016A017B014230510556
:101870006105710588F04B895C896D897E89C41684
:10188000D506E606F70640F48881823009F46BC07D
:10189000833061F1813079F061E070E080E090E0C8
:1018A000DF91CF911F910F91FF90EF90DF90CF903C
:1018B000BF90AF9008958601169507950C0D1D1DDC
:1018C000C801892F992786954F8D58A169A17AA1C2
:1018D000480F591F611D711DCE010E940006892B02
:1018E00009F465C06FEF7FEFCB01DACFB701A60136
:1018F000E7E07695679557954795EA95D1F78F8DEF
:1019000098A1A9A1BAA1480F591F6A1F7B1FCE0138
:101910000E940006892B31F7CC0CDD1CCC0CDD1CA1
:101920008CEFC82281E0D822F601BF96EC0FFD1F94
:101930006381862F90E0A0E0B0E0BA2FA92F982F06
:1019400088272281822BBA2FA92F982F88272181BF
:10195000822B6627782F892F9A2FCC0DDD1D2FA57E
:10196000622B9F709DCF77276F2D5E2D4D2D8F8D14
:1019700098A1A9A1BAA1480F591F6A1F7B1FCE01C8
:101980000E940006892B09F0ADCFCC0CDD1CE89439
:10199000C0F881E0D822FE01EC0DFD1D60A970E0C9
:1019A000762F662787A5682B80E090E079CF5801D5
:1019B0008FEFA81AB80AF801F170EC0FFD1F17A5F8
:1019C000C501892F992786954F8D58A169A17AA1C4
:1019D000480F591F611D711DCE010E940006892B01
:1019E00009F080CFF501F170EC0FFD1F87A5612F85
:1019F00070E0782BC0FE09C0729562956F70672702
:101A00007F70672780E090E04BCF7F7080E090E0B0
:101A100047CF4F925F926F927F928F929F92AF9239
:101A2000BF92CF92DF92EF92FF920F931F93CF93CB
:101A3000DF938C014A015B01FC01C081D18141151A
:101A400051056105710509F085C04B845C846D8486
:101A50007E848B899C89AD89BE89411451046104BF
:101A6000710409F058C0412C512C32014394730188
:101A7000620116C0613071058105910509F446C007
:101A80006F3F7F4F8F4F9F4F09F480C0C414D50420
:101A9000E604F70409F446C08B899C89AD89BE89A8
:101AA0002FEFC21AD20AE20AF20AC816D906EA06CB
:101AB000FB0658F082E0481651046104710490F16D
:101AC00032E0C32ED12CE12CF12CB701A601F80194
:101AD000808191810E94290C611571058105910514
:101AE00049F622E0C216D104E104F10450F08B89DA
:101AF0009C89AD89BE89C816D906EA06FB0608F49A
:101B00004EC082E090E0019709F440C041E030E02F
:101B100020E090E00BC0481659066A067B0608F0E4
:101B2000A2CFA5CF40E030E020E090E0642F732FFB
:101B3000822FDF91CF911F910F91FF90EF90DF9057
:101B4000CF90BF90AF909F908F907F906F905F905D
:101B50004F900895CE010E94290C623071058105D5
:101B60009105A0F26F3FFFEF7F078F079F0771F08E
:101B7000CB88DC88ED88FE886C157D058E059F0579
:101B800050F0D701C6012401350171CF4FEF3FEF6F
:101B90002FEF9FEFCBCF462F372F282FC7CF0FEF39
:101BA0001FEF9801B701A601CE010E940C0B009710
:101BB00009F0A9CF81149104A104B104D9F082E005
:101BC00088169104A104B10408F49BCF8B899C89E9
:101BD000AD89BE8988169906AA06BB0608F091CF82
:101BE00097018601B501A401CE010E940C0B00975C
:101BF00009F089CFCB86DC86ED86FE864F85588935
:101C000069897A898B899C89AD89BE890297A109E6
:101C1000B109481759076A077B0740F44150510939
:101C2000610971094F87588B698B7A8B8C81816030
:101C30008C834C2D3D2D2E2D9F2D78CF4F925F9272
:101C40006F927F92AF92BF92CF92DF92EF92FF920C
:101C50000F931F93CF93DF935C012A013B01B901DE
:101C6000A801FC01C081D181F2E04F16510461044A
:101C7000710448F08B899C89AD89BE894816590644
:101C80006A067B0688F082E090E0DF91CF911F9199
:101C90000F91FF90EF90DF90CF90BF90AF907F902B
:101CA0006F905F904F900895011511052105310542
:101CB000C1F0023011052105310528F30817190775
:101CC0002A073B0700F70FEF1FEF9801CE010E9494
:101CD0000C0B9C01009709F06AC0F501808191818D
:101CE00037C0CE0135C000E010E09801B301A20179
:101CF000CE010E940C0B9C01009709F058C04F8543
:101D0000588969897A898B899C89AD89BE892C011A
:101D10003D01E2E04E1A510861087108441555056D
:101D20006605770558F44F5F5F4F6F4F7F4F4F87C2
:101D3000588B698B7A8B2C8121602C83C816D9062D
:101D4000EA06FB0670F5F5018081918126013701D5
:101D5000B301A2010E94290C6B017C016115710580
:101D600081059105F1F0613071058105910509F456
:101D70008ACF6F3F2FEF720782079207A9F082E0A8
:101D8000481651046104710408F47DCF8B899C8945
:101D9000AD89BE89481659066A067B0608F073CFDE
:101DA000A2CF80E090E071CF81E090E06ECFC901DA
:101DB0006CCF8F929F92AF92BF92CF92DF92EF92B1
:101DC000FF920F931F93CF93DF93EC01088119814A
:101DD0001E861F86188A198ACE80DF80E884F984DF
:101DE000C114D104E104F10471F4F801808183305D
:101DF000C0F183A194A1A5A1B6A10097A105B10549
:101E000081F16C017D01F8016185728580E090E0CF
:101E1000611571058105910509F053C0C80112C013
:101E200082E0C816D104E104F10400F1F8018389CD
:101E30009489A589B689C816D906EA06FB06B0F4C6
:101E400088819981B701A6010E94290C6B017C0150
:101E50006F3FFFEF7F078F079F0711F781E090E04B
:101E600007C0F80187819085892B79F482E090E0A2
:101E7000DF91CF911F910F91FF90EF90DF90CF9066
:101E8000BF90AF909F908F900895F80153A144A107
:101E900035A126A15E8B4F8B388F298F652F742F2C
:101EA000832F922FCA8ADB8AEC8AFD8A672B682BE4
:101EB000692BE1F2015D1F4F1B8F0A8F80E090E0DC
:101EC000D7CFA70196012250310941095109F801E4
:101ED00083889488A588B688F2E08F1A9108A108B3
:101EE000B108281539054A055B0580F40E94702B5E
:101EF000F80187A090A4A1A4B2A4680D791D8A1D41
:101F00009B1D6E8B7F8B888F998FCCCF60E070E0AC
:101F1000CB01F7CF2F923F924F925F926F927F92B9
:101F20008F929F92AF92BF92CF92DF92EF92FF92E9
:101F30000F931F93CF93DF9300D000D0CDB7DEB7C0
:101F40009C838B831B017A0140E0BE016F5F7F4F52
:101F5000CE0103960E94C9068C01009709F0D3C0F8
:101F600069807A80F70171826082F30187859089A8
:101F7000A189B289C388D488E588F688B701A6010B
:101F80004250510961097109481759076A077B07CF
:101F900008F0D1C0F3018081813009F46BC0F301F6
:101FA000478D50A161A172A1D301E0E0F0E080E093
:101FB00090E0812C912C540132C02C91223009F4F4
:101FC00049C04380512C612C712C762C652C542CEB
:101FD00044242281422A762C652C542C44242181CD
:101FE000422A762C652C542C44242081422A2FE04E
:101FF000722245284628472829F42FEF821A920A90
:10200000A20AB20A3496049721E0C21AD108E10864
:10201000F108C114D104E104F10409F463C000978C
:1020200061F62A013B01FFEF4F1A5F0A6F0A7F0A30
:10203000CD010E940006A981BA81009709F081C0F4
:10204000FD01BF96B301A20180E092E02C91223005
:1020500009F0B7CF218130E0322F22277080272965
:10206000232B29F42FEF821A920AA20AB20A32967F
:102070000297CACF82E0C82ED12CE12CF12C812C02
:10208000912C540120C0613071058105910509F43E
:102090005AC0672B682B692B29F42FEF821A920AFA
:1020A000A20AB20A8FEFC81AD80AE80AF80AE98128
:1020B000FA8183899489A589B689C816D906EA0662
:1020C000FB0608F045C0B701A601C3010E94290C18
:1020D0006F3FFFEF7F078F079F07A9F6A981BA819E
:1020E00001E010E0F10180829182A282B3821F960A
:1020F0008D929D92AD92BC92529714968C911497AA
:10210000816014968C93C8010F900F900F900F90E0
:10211000DF91CF911F910F91FF90EF90DF90CF90C3
:10212000BF90AF909F908F907F906F905F904F90F7
:102130003F902F900895F10180839183A283B38310
:10214000E2CF8C01CFCFA981BA8102E010E0CACFE3
:10215000DF01C8CF2F923F924F925F926F927F9292
:102160008F929F92AF92BF92CF92DF92EF92FF92A7
:102170000F931F93CF93DF9300D01F92CDB7DEB79D
:102180009B838A833B01DC010D911C9111971E9664
:10219000CD90DD90ED90FC90519756968D919D914C
:1021A0000D90BC91A02D0097A105B105C1F484E06C
:1021B00090E00F900F900F90DF91CF911F910F91B2
:1021C000FF90EF90DF90CF90BF90AF909F908F9057
:1021D0007F906F905F904F903F902F900895E0E236
:1021E000CE0ED11CE11CF11CC114D104F0E2EF06AB
:1021F000F104E8F6B701A601517066277727452B51
:10220000462B472B09F084C00196A11DB11DEA8120
:10221000FB81868B978BA08FB18F4289538964890C
:102220007589D801411551056105710509F486C00C
:1022300019968D919C911A970197A0E0B0E0460104
:10224000570129E0B694A794979487942A95D1F7DB
:1022500088219921AA21BB21892B8A2B8B2B09F05C
:1022600057C0C8010E94290C4B015C016230710506
:102270008105910508F47DC06F3FEFEF7E078E0763
:102280009E0709F47EC0F80183899489A589B689DF
:1022900088169906AA06BB0670F0672809F078C070
:1022A000AA81BB8156961D921D921D921C92599730
:1022B00084E090E07ECF24013501F2E04F1A51080E
:1022C00061087108EA81FB81828A938AA48AB58AAF
:1022D0000297A109B109481659066A067B0608F05B
:1022E00053C0F801A185B285A30192010E94652B1C
:1022F00087A090A4A1A4B2A4680D791D8A1D9B1D7E
:10230000AA81BB8156966D937D938D939C9359972B
:10231000EA81FB81C686D786E08AF18AF1E0DF2276
:102320002FE2C20ED11CC00ED11EAA81BB815B96CA
:10233000DC92CE925A9780E090E03BCF17968D9139
:102340009C911897A0E0B0E0B701A60135E0769522
:102350006795579547953A95D1F7481759076A07F2
:102360007B07B0F2168A178A108E118E84E090E0F7
:1023700020CF82E090E01DCFC8010E949C05892BF0
:1023800051F181E090E015CF60E070E0CB01B8CF73
:10239000EA81FB814289538964897589CF010E9452
:1023A000090D4B015C01611571058105910519F459
:1023B00087E090E0FECE6130710581059105C9F29C
:1023C0006F3F2FEF720782079207D9F2D801139659
:1023D0008C918111D1CFF801BF96C801815D9D4FCD
:1023E0001192E817F907E1F724013501B2E04B1A21
:1023F000510861087108F80183899489A589B68913
:102400000297A109B109481659066A067B0608F029
:102410004FC00184F285E02DDF01A30192010E94EB
:10242000652BD80197962D913D914D915C919A978E
:10243000620F731F841F951FD8019B966D937D9328
:102440008D939C939E97212C312C21E01CC0F80188
:102450002383C80129830E949C052981892B09F0C7
:1024600090CFFFEF2F1A3F0AF80183A594A5A5A5E9
:10247000B6A50196A11DB11D83A794A7A5A7B6A7D0
:102480000184F285E02D2E163F0608F3F80183A59E
:1024900094A5A5A5B6A582199309A109B10983A799
:1024A00094A7A5A7B6A783899489A589B6890ACFD9
:1024B00060E070E0CB010184F285E02DBDCF2F926A
:1024C0003F924F925F926F927F928F929F92AF92C4
:1024D000BF92CF92DF92EF92FF920F931F93CF9311
:1024E000DF9300D0CDB7DEB71C01DC010D90BC91AD
:1024F000A02DBA83A983FB016F0181918F32E1F393
:102500008C35D1F3F1011682178210861186D6011F
:102510008C91803208F434C13101BCE16B0E711C26
:10252000F101B7967F0150E2552E65E0462E8101FC
:10253000035E1F4F5F01F3015192EE15FF05E1F7B6
:1025400080E090E020E030E048E0842E912CA9016A
:102550004F5F5F4FF601E20FF31F6081613208F4B5
:10256000FFC06F3279F16C3569F16E3209F424C124
:1025700088159905A8F5EFE7E60FEF3108F447C095
:10258000E0E2E60FED3108F442C0A62FB0E0A2323F
:10259000B10531F1E8E0F1E006C0332727FD3095C1
:1025A000A217B307E9F021912111F7CF2FE9260FE8
:1025B0002A3108F46052F301E80FF91F6083019695
:1025C0009A01C5CFF601E40FF51F4E2F3F2F219141
:1025D0002F32D9F32C35C9F3C42ED32E892BB1F564
:1025E00086E090E00F900F90DF91CF911F910F91B7
:1025F000FF90EF90DF90CF90BF90AF909F908F9023
:102600007F906F905F904F903F902F9008952E5F36
:102610003F4FF601E40FF51F708140EC470F4F3339
:1026200020F040E8470F4D37D8F6A401415051093A
:1026300084179507A8F6FC013196D301A80FB91F9E
:102640006C930296E60DF71D708381CFD1015C96E5
:102650008C915C97853E09F490C0613208F08BC084
:1026600084E0F10187A380809180C1010E94D90E8E
:10267000009749F05DC060E070E0C1010E94AA10BF
:10268000009709F055C0D10156964D915D916D911D
:102690007C915997C4010E940006009709F048C038
:1026A000D1015A96ED91FC915B972081222309F488
:1026B0005AC053855F7314965C93238523FDDBCF4B
:1026C000219130E0D1015C964C91241B3109D80155
:1026D000232B89F621914D9130E0241B3109AA1555
:1026E000BB05B1F7232B39F6F10127A122FD7ACFE3
:1026F00054FF3EC0D1011E96ED91FC911F97F170E1
:10270000BF9689819A81E80FF91F438D50E0542FBD
:102710004427828D482B60E070E0A981BA818C91BA
:10272000833071F0F101468357836087718703CF4F
:10273000D10197962C918430910509F053CF16C0A2
:10274000858990E0982F88272489822BA0E0B0E02B
:10275000DC0199278827482B592B6A2B7B2BE2CF4A
:10276000C40ED51E3BCFD10197962C9122FD21C0DE
:1027700085E090E037CF80E074CF5C964C926DCFCF
:1027800080E887A3C1010F900F90DF91CF911F9137
:102790000F91FF90EF90DF90CF90BF90AF909F9000
:1027A0008F907F906F905F904F903F902F900C9400
:1027B000D90E84E090E016CFFBE08F16910409F467
:1027C0000FCF9A0188E090E04BE0842E912CBFCE91
:1027D000EF92FF920F931F93CF93DF9300D000D01F
:1027E000CDB7DEB77C017C836B830097D1F040E0EE
:1027F000BE016F5F7F4FCE0103960E94C9069C0108
:10280000009791F0F70111821082C9010F900F908B
:102810000F900F90DF91CF911F910F91FF90EF904C
:10282000089589E090E0F2CF89819A81D7018D9354
:102830009C936B817C81C7010E945F129C01009771
:1028400061F5F70187A187FD35C0848184FF2FC022
:10285000A28DB38DE981FA815B964C915B9750E034
:10286000542F44275A968C915A97482B60E070E079
:102870008081833011F1D70116964D935D936D934E
:102880007C93199785819681D70113969C938E939B
:102890001297C7010E94D90E9C012430310539F0EE
:1028A0002115310509F0AECF80E090E0AFCF25E0F3
:1028B00030E0A8CFE981FA81E5CF55960C91559784
:1028C00010E0102F002754968C91082B20E030E068
:1028D000980111270027402B512B622B732BCBCF54
:1028E000EF92FF920F931F93CF93DF93CDB7DEB795
:1028F000AA970FB6F894DEBF0FBECDBF9AA789A7DF
:102900007B0140E0BE016F5F7F4FCE0189960E9440
:10291000C9068C01009771F0C801AA960FB6F89409
:10292000DEBF0FBECDBFDF91CF911F910F91FF9002
:10293000EF90089569A57AA5CE0101960E945F12D5
:102940008C01009749F788A587FD13C0E114F104B5
:1029500019F3F70111864F89588D698D7A8D452BB2
:10296000462B472BC9F2B701CE014B960E94DB00E4
:10297000D3CF06E010E0D0CF0F931F93CF93DF9318
:10298000EC010881198184E090E01DC0C8010E941B
:102990000006009751F5EA8DFB8D3081332319F144
:1029A00023852F732C83353E39F03E3229F02F30AA
:1029B00019F02F71283091F460E070E0CE010E9490
:1029C000AA10009791F44E895F89688D798D411521
:1029D000510561057105D1F6009739F4DF91CF916A
:1029E0001F910F91089584E090E01E8A1F8A188E2F
:1029F000198EDF91CF911F910F910895CF92DF92A1
:102A0000EF92FF920F931F93CF93DF9300D0CDB738
:102A1000DEB77C016B01BE016F5F7F4F0E94AD008E
:102A20008C01009759F4C701C114D10469F10E94C7
:102A3000BC149C012B7F232B69F08C01C8010F90E3
:102A40000F90DF91CF911F910F91FF90EF90DF904A
:102A5000CF900895F6011186F70146895789608D58
:102A6000718D452B462B472B49F460E070E0C70180
:102A70000E94AA108430910501F7E0CFB601C7018A
:102A80004A960E94DB00F1CF0E94D90E8C01D6CF6E
:102A9000EF92FF920F931F93CF93DF93EC01088186
:102AA00019810E94D90E7C010097B9F084E0E816E4
:102AB000F10419F437E0E32EF12CC701DF91CF9137
:102AC0001F910F91FF90EF90089561E070E0CE01AB
:102AD0000E94AA107C01009749F74E895F89688D92
:102AE000798DC8010E9400067C010097F9F6EA8DF5
:102AF000FB8D8081853E11F08111E7CF4E895F8982
:102B0000688D798DC8010E9400067C010097A9F6A6
:102B1000EA8DFB8DCF0180961192E817F907E1F756
:102B2000BE01645E7F4F4BE050E08A8D9B8D0E941A
:102B3000D10081E0F8018383C701DF91CF911F911C
:102B40000F91FF90EF9008952F923F924F925F92D6
:102B50006F927F928F929F92AF92BF92CF92DF92AD
:102B6000EF92FF920F931F93CF93DF93CDB7DEB712
:102B7000E0970FB6F894DEBF0FBECDBF7C017CA7F7
:102B80006BA7142F009759F1842F8F73B82E482FFD
:102B9000BE01675D7F4FCE018B960E94C9069C01E6
:102BA000009701F1D7011D921C92C901E0960FB662
:102BB000F894DEBF0FBECDBFDF91CF911F910F9173
:102BC000FF90EF90DF90CF90BF90AF909F908F904D
:102BD0007F906F905F904F903F902F90089589E085
:102BE00090E0E4CF89A59AA59A8389836BA57CA5FB
:102BF000CE0101960E945F129C01009709F45CC00F
:102C00001C7181F22430310569F6CE0101960E94D3
:102C100048159C019B2D9860B92E2115310511F6A0
:102C2000B3FE90C1EB8DFC8D1686178691E2908BDA
:102C300088E4818BEB8DFC8D168A178A908F818FAB
:102C4000EB8DFC8D80E283872B8D3C8DE9A5FAA569
:102C5000D9015B964C905B97512C542C44245A9686
:102C60008C915A97482A612C712C8081833009F409
:102C7000A5C1D9015A961C925A975B961C925B97F4
:102C80008081833009F494C12B8D3C8DD9015C96F1
:102C90001C925C975D961C925D975E961C925E9767
:102CA0005F961C9281E08383411451046104710496
:102CB00009F04DC13F011EC088A587FD0EC0812FC0
:102CC0008C7109F036C18D8184FD0AC011FF0BC0E3
:102CD00080FF09C027E030E065CF26E030E090CFEC
:102CE00024E030E05FCF187069A47AA42B8D3C8D6E
:102CF000112319F0AB2DA064BA2EF30143A554A5FE
:102D000065A576A5D7015C964D935D936D937C93F5
:102D10005F9791963C932E939097F901838D90E065
:102D2000982F8827428D842B1C01412C512CD301D4
:102D30004C91433009F4EAC0F7012682378240867D
:102D40005186D9015F968C9190E0A0E0B0E0BA2F57
:102D5000A92F982F8827F901468D842BBA2FA92FE8
:102D6000982F8827458D842BBA2FA92F982F882735
:102D7000248D822BF70182879387A487B587718280
:102D80006082D30115968D919C91169793838283CF
:102D9000B6861786108E118E128E138E108A118AA7
:102DA000128A138A6701B2E2CB0ED11CD601C70189
:102DB0008E5D9D4F1D92A817B907E1F7B5FE98C02B
:102DC000F70182849384A484B58481149104A104BE
:102DD000B10409F48DC0D701808A918AA28AB38A8E
:102DE000F30141845284612C712C19E0440C551C70
:102DF000661C771C1A95D1F716964D915D916D91D1
:102E00007C911997481459046A047B04E8F4D701AB
:102E10008D919C910E94290CAB01BC01423051055F
:102E20006105710508F46FC04F3FBFEF5B076B078B
:102E30007B0709F460C084189508A608B7084814F1
:102E400059046A047B0418F3F701448B558B668B95
:102E5000778BD501C4019170AA27BB27892B8A2BB8
:102E60008B2B09F445C0E9A5FAA59A01AB012250C4
:102E700031094109510983899489A589B689029745
:102E8000A109B109281739074A075B0708F04EC0A6
:102E9000A185B2850E94652B47A050A461A472A4AD
:102EA000640D751D861D971D6115710581059105C0
:102EB000E9F1A5019401A9E0569547953795279525
:102EC000AA95D1F7260F371F481F591FD7015896CB
:102ED0002D933D934D935C935B9701E010E0B60119
:102EE00081810E94BE04892B19F021E030E05ACE86
:102EF00080E090E05BCE21E030E0F701448B558B21
:102F0000668B778B4FCE22E030E0F7CF458950E0DB
:102F1000542F44276489462B60E070E0BA0155279E
:102F20004427242A352A462A572A06CF22E030E0B1
:102F300039CE8D81817109F0CDCE12FF71CE28E09E
:102F400030E030CE69A47AA42B8D3C8DD6CE83A5FB
:102F500094A5A5A5B6A58DA79EA7AFA7B8AB00E081
:102F600010E09801B301A201CE0101960E941E0E4D
:102F70009C01009709F016CE4DA55EA56FA578A916
:102F800089A59AA50E9400069C01E9A5FAA591E0F1
:102F9000491A510861087108438654866586768609
:102FA0002115310509F0FECD2B8D3C8D3F01A2CEC0
:102FB00054961C92549755961C9266CE55968C91B9
:102FC000559790E0982F882754964C91842BA0E039
:102FD000B0E0DC0199278827482A592A6A2A7B2AE7
:102FE00048CE2F923F924F925F926F927F928F9234
:102FF0009F92AF92BF92CF92DF92EF92FF920F9388
:103000001F93CF93DF93CDB7DEB728970FB6F89411
:10301000DEBF0FBECDBF7C015B016A013C832B8309
:10302000D9011D921C92BE016F5F7F4F0E94AD00BF
:103030009C01009731F4F701278530E02115310517
:10304000D1F0C90128960FB6F894DEBF0FBECDBFF0
:10305000DF91CF911F910F91FF90EF90DF90CF9074
:10306000BF90AF909F908F907F906F905F904F90A8
:103070003F902F900895868580FD03C087E090E003
:10308000E1CFF70180899189A289B389428553856F
:1030900064857585481B590B6A0B7B0B860120E004
:1030A00030E0401751076207730708F46A01C11442
:1030B000D10409F4ADC0612CF2E07F2E97012E5DA2
:1030C0003F4F38872F8388C029813A81F9010185D4
:1030D000128501501109AC01BD01E9E076956795B3
:1030E00057954795EA95D1F7042315230115110546
:1030F00009F491C0F70184899589A689B789F901F6
:103100009C01AD01225031094109510983899489FB
:10311000A589B6890297A109B109281739074A0775
:103120005B0708F001C1818592859E838D83DC0158
:103130000E94652B27A130A541A552A5620F731FE0
:10314000841F951F611571058105910509F4ECC077
:103150001B012C01200E311E411C511C4601892CE3
:10316000992486948114910409F47AC0C801880DC9
:10317000991D2D813E812817390718F44901801ABD
:10318000910A8401A2019101B50181810E94BE04CE
:10319000892B09F0D4C0F701868587FD95C0982C4E
:1031A0008824990CA80CB91CF70180899189A289FF
:1031B000B389880D991DA11DB11D808B918BA28BA8
:1031C000B38BEB81FC8120813181280D391D318346
:1031D0002083C818D908E1F0AC01BD015170662701
:1031E0007727452B462B472B09F46ECF917043016F
:1031F000881A990AC814D90408F44601BC016E5D06
:103200007F4F6E0D7F1DA401C5010E94D100CACF62
:1032100080E090E017CF892B8A2B8B2B09F04AC0D6
:10322000D70116966D917D918D919C911997623081
:1032300071058105910508F477C06F3FBFEF7B07EB
:103240008B079B0709F476C0D70154966D937D9345
:103250008D939C935797E981FA81DC01CB0150CF84
:10326000D70158962D913D914D915C915B97221518
:1032700033054405550581F01E968C9187FD41C0AC
:1032800001E010E0A20191016F81788581810E94A7
:10329000BE04892B09F04EC0D70158962D923D925D
:1032A0004D925C925B9750968D919D910D90BC9143
:1032B000A02D9CCFF7014489558966897789808143
:1032C00091810E94290CB3CF808D918DA28DB38DF9
:1032D00082199309A409B509A40160E070E084177C
:1032E0009507A607B70708F05ACF982F8827990F98
:1032F00040E052E06F8178858A0D9B1D0E94D100CD
:103300004ECF01E010E06F81788581810E94220517
:10331000892B81F4D7011E968C911E978F771E966C
:103320008C93E981FA81ACCF82E0D7011F968C9310
:1033300090E088CE81E0F701878790E083CE81E03E
:10334000D7011F968C9390E07DCE6F927F928F92E3
:103350009F92AF92BF92CF92DF92EF92FF920F9324
:103360001F93CF93DF9300D000D0CDB7DEB73C01E1
:103370006B014A0181E0C81AD1088301E12CF12CCC
:103380001DC09E012F5F3F4F41E050E0BE016D5FC9
:103390007F4FC4010E94F11729813A812130310504
:1033A00089F48B8158019FEFA91AB90AF80180832B
:1033B000FFEFEF1AFF0A8A3029F085015801EC145B
:1033C000FD04FCF2F5011082EF28A1F0C3010F907B
:1033D0000F900F900F90DF91CF911F910F91FF9061
:1033E000EF90DF90CF90BF90AF909F908F907F90A5
:1033F0006F90089580E090E0EACF2F923F924F9235
:103400005F926F927F928F929F92AF92BF92CF9274
:10341000DF92EF92FF920F931F93CF93DF9300D031
:1034200000D000D0CDB7DEB77C014B016A013C83F0
:103430002B83D9011D921C92BE016F5F7F4F0E94AA
:10344000AD009C01009731F4F701278530E021158C
:103450003105D1F0C90126960FB6F894DEBF0FBE34
:10346000CDBFDF91CF911F910F91FF90EF90DF9033
:10347000CF90BF90AF909F908F907F906F905F9014
:103480004F903F902F900895268521FD03C087E03F
:1034900090E0E1CFF70180899189A289B389AC01DD
:1034A000BD014C0D5D1D611D711D481759076A074F
:1034B0007B0718F46C01C094D094C114D10409F4B2
:1034C00018C197012E5D3F4F3E832D83DEC0E981F9
:1034D000FA81A184B28431E0A31AB108AC01BD0124
:1034E00029E076956795579547952A95D1F7A422B7
:1034F000B522A114B10491F5892B8A2B8B2B09F0ED
:10350000E7C0D70116966D917D918D919C91199789
:10351000611571058105910509F455C16130710589
:103520008105910509F456C16F3FFFEF7F078F07B3
:103530009F0709F459C1F701648B758B868B978BB4
:103540000681178120853185012B022B032B21F465
:103550006683778380879187E981FA81D7011E96F8
:103560008C911E9787FD16C1D70154962D913D91E0
:103570004D915C9157972250310941095109838936
:103580009489A589B6890297A109B1092817390735
:103590004A075B0708F01EC101851285D8010E9409
:1035A000652B47A050A461A472A4640D751D861DEF
:1035B000971D611571058105910509F40BC11B016A
:1035C0002C012A0C3B1C411C511C3601672C772412
:1035D00066946114710409F492C0C501860D971DAB
:1035E0000817190718F438016A187B088301A2012B
:1035F0009101B40181810E942205892B09F0F4C058
:10360000F701808D918DA28DB38D82199309A40944
:10361000B509A30160E070E084179507A607B70716
:1036200008F4A4C0762C6624770C860C971CF7014E
:1036300080899189A289B389860D971DA11DB11D2D
:10364000808B918BA28BB38B428553856485758566
:10365000182F092F3A2F2B2F84179507A607B70786
:1036600020F4142F052F362F272FF70112870387F9
:1036700034872587EB81FC8120813181260D371D20
:1036800031832083C618D70889F1AC01BD01517080
:1036900066277727452B462B472B09F418CF9170C7
:1036A000612CA2E07A2E681A790AC614D70408F4AD
:1036B00036018296A301B4018E0D9F1D0E94D10098
:1036C000D7011E968C911E9780681E968C93ADCF65
:1036D000F7014489558966897789C7010E94090DD8
:1036E000611571058105910509F018CFD7011E9666
:1036F0002C912064F701268780E090E0ACCED701C2
:1037000058964D915D916D917C915B974215530553
:103710006405750529F150960D911D912D913C91EF
:1037200053971A964D915D916D917C911D97041759
:1037300015072607370740F0D901C801F701208E89
:10374000318E428E538EABCF01E010E0A201910189
:103750006D817E8181810E94BE04892B09F03FC06A
:10376000F70180899189A289B389E8CFBC01762FBE
:103770006627770F680D791D40E052E08D819E81AC
:103780000E94D100D7011E968C911E978F771E96AE
:103790008C9348CF58962D913D914D915C915B97BC
:1037A00001E010E06D817E8181810E942205892BDC
:1037B000B1F4D7011E968C911E978F771E968C932D
:1037C000E981FA81D1CE40E050E0BA01C7010E9400
:1037D000090D86CF82E0F701878790E03CCE81E03B
:1037E000F701878790E037CE81E0D7011F968C9351
:1037F00090E031CEEF92FF920F931F93CF93DF9320
:1038000000D0CDB7DEB78C01FC018281938197FD9A
:1038100014C07C01FFEFEF1AFF0AF801E80FF91F4F
:1038200066832DE3E216F1048CF4F801F382E28260
:10383000848195810196958384830F900F90DF9109
:10384000CF911F910F91FF90EF9008959E012F5FF0
:103850003F4FA701B8016A5F7F4FF80180819181D6
:103860000E94FD1981E090E029813A81E216F30679
:1038700029F0EE24FF24E81AF90AD7CF80E090E07F
:10388000F8CF0F931F93CF93DF9300D0CDB7DEB760
:103890008C01FC014281538157FD0CC09E012F5FBA
:1038A0003F4FBC016A5F7F4F808191810E94FD196B
:1038B000892B49F08FEF9FEF0F900F90DF91CF9101
:1038C0001F910F910895F8012281338189819A8196
:1038D0002817390779F784819581EECFCF93DF934D
:1038E000CDB7DEB7C654D1090FB6F894DEBF0FBE10
:1038F000CDBF7A8369831C821B821E821D82682F42
:10390000CE0101960E94FA1BCE0101960E94411C35
:10391000CA5BDF4F0FB6F894DEBF0FBECDBFDF919D
:10392000CF910895EF92FF920F931F93CF93DF9360
:10393000CDB7DEB7C654D1090FB6F894DEBF0FBEBF
:10394000CDBF7A8369831C821B821E821D82FC018B
:1039500060816623F9F08C010F5F1F4FFE013196E5
:103960007F01C7010E94FA1BF80161918F0161116B
:10397000F8CFC7010E94411CCA5BDF4F0FB6F89415
:10398000DEBF0FBECDBFDF91CF911F910F91FF9092
:10399000EF900895CE0101967C01EBCF2F923F92DC
:1039A0004F925F926F927F928F929F92AF92BF924F
:1039B000CF92DF92EF92FF920F931F93CF93DF93FB
:1039C000CDB7DEB7C856D1090FB6F894DEBF0FBE2B
:1039D000CDBFC158DF4FE880F980CF57D040EF9678
:1039E0008EAD9FADEF979A8389831C821B821E82C6
:1039F0001D829E012F573F4FA9963FAF2EAFA9972B
:103A0000D7016C91662369F0653249F1BFEFEB1A7B
:103A1000FB0ACE0101960E94FA1BD7016C9161113D
:103A2000F3CFCE0101960E94411CC859DF4F0FB65B
:103A3000F894DEBF0FBECDBFDF91CF911F910F91E4
:103A4000FF90EF90DF90CF90BF90AF909F908F90BE
:103A50007F906F905F904F903F902F900895F70167
:103A60003180F0E33F1609F481C1BDE2F7013B1656
:103A700009F48FC13296212C80ED830D8A3008F035
:103A800081C100E010E001C0FC01C801880F991F4E
:103A9000000F111F000F111F000F111F080F191F1A
:103AA000030D111D37FC1A9500531109CF01019622
:103AB0007C01308020ED230D2A3030F3832D8F7D63
:103AC0008C3449F4B22DB4602B2EF701308097016D
:103AD0002F5F3F4F7901332009F4A3CF8FE9830D86
:103AE0008A31A0F420EE230D822F992787FD90952F
:103AF000A92FB92FFC01E254F109E731F10540F09B
:103B0000632DCE0101960E94FA1B7ACF232DECCFB4
:103B1000EC5CFF4F0C94A22B30E1432E512C612C16
:103B2000712C22FC08C0AAC0E8E04E2E512C612C5A
:103B3000712C22FEA0C0A996EEADFFADA9976081C1
:103B4000718182819381AF014C5F5F4FA9965FAF16
:103B50004EAFA997243409F434C19E01295B3F4F2D
:103B60006901A12CB12CA30192010E94802BF62F98
:103B7000E62FCA01B901FA3034F0A8E73A1609F481
:103B80009BC0E7E0EF0F4501BFEF8B1A9B0AE05D9A
:103B9000D601ED936D01232B242B252B09F491C025
:103BA000B0E28B16910409F489C05401DCCFA996C8
:103BB000EEADFFADA997A080B180AF014E5F5F4F22
:103BC000A9965FAF4EAFA997D5016C91662309F412
:103BD00005C1F5013196612C712CBFEF6B1A7B0A80
:103BE00081918111FACF6301EFEFCE1ADE0A21FC39
:103BF00017C06016710610F0F7C0630160E2CE01D5
:103C000001960E94FA1B36013FEF631A730AC01631
:103C1000D10698F3D5016C916301BFEFCB1ADB0A93
:103C2000662361F0EFEFAE1ABE0ACE0101960E9444
:103C3000FA1BD5016D915D016111F7CF6016710618
:103C400010F0DECE6C0160E2CE0101960E94FA1BFC
:103C5000C6010196C016D106A8F3D2CEA2E04A2E24
:103C6000512C612C712C5DCFBAE04B2E512C612C64
:103C7000712C22FC60CF243409F492C0A996EEADD9
:103C8000FFADA997808191813296A996FFAFEEAFE3
:103C9000A997BC0180E090E060CFA996EEADFFADA2
:103CA000A99760813296A996FFAFEEAFA997CE0192
:103CB00001960E94FA1BA4CEE7E264CF7FE1A72E13
:103CC000B12C23FE0CC0E7E4F0E0EC0FFD1FE80D83
:103CD000F91D2DE22083A5014E5F5F4F4A0120FEB2
:103CE00055C060E3762E540121FC16C05FEFA51A83
:103CF000B50A8016910680F4672DCE0101960E94C8
:103D0000FA1B64018FEFC81AD80AC016D10640F119
:103D100058019FEFA91AB90A47E4C42ED12CCC0E42
:103D2000DD1EC80CD91CA1E08A1A9108F601629127
:103D30006F01CE0101960E94FA1B8114910499F73C
:103D4000A016B10608F05CCE672DCE0101960E9448
:103D5000FA1BFFEFAF1ABF0AA016B106A8F350CEA8
:103D6000672DCE0101960E94FA1BCCCFF701339646
:103D7000D70112963C902224239480ED830D8A3043
:103D800008F47FCE7F0100E010E098CE50E2752E5F
:103D9000AACF3396D70112963C9042E0242E6CCEE7
:103DA000A996AEADBFADA9978D919C911197BC011D
:103DB000882777FD8095982F1296A996BFAFAEAF52
:103DC000A99797FFCACE90958095709561957F4F82
:103DD0008F4F9F4FF22DF8602F2EBFCECC24C3946F
:103DE000D12C612C712C03CF360196012F5F3F4FF0
:103DF000690116CF2F923F924F925F926F927F92FE
:103E00008F929F92AF92BF92CF92DF92EF92FF92EA
:103E10000F931F93CF93DF9300D000D000D0CDB786
:103E2000DEB71C014A015B01BE016F5F7F4F0E943C
:103E3000AD009C01009739F4D1011F962C9130E020
:103E400021153105D1F0C90126960FB6F894DEBFD1
:103E50000FBECDBFDF91CF911F910F91FF90EF90DB
:103E6000DF90CF90BF90AF909F908F907F906F909A
:103E70005F904F903F902F900895D1011A96CD906A
:103E8000DD90ED90FC901D97C814D904EA04FB0462
:103E900008F06AC0F101868581FD66C0D1015096A7
:103EA0004D905D906D907C905397F101108A118A2E
:103EB000128A138AC114D104E104F10409F4C2C0C6
:103EC000E981FA8181849284A12CB12C69E0880C6B
:103ED000991CAA1CBB1C6A95D1F7411451046104BA
:103EE000710409F444C0F1E04F1A510861087108E7
:103EF000C701B6016150710981099109A5019401B9
:103F00000E94802B2B833C834D835E83C301B201CF
:103F1000A50194010E94802B8B819C81AD81BE8183
:103F200082179307A407B50710F1002711279801FE
:103F3000081919092A093B090421152126213721CD
:103F4000D10150960D931D932D933C935397C01A16
:103F5000D10AE20AF30A54966D917D918D919C915C
:103F600057972801390116C07501640197CFF101F7
:103F7000668177818085918561157105810591053F
:103F800009F463C0412C512C3201F101648B758B13
:103F9000868B978B611571058105910509F47BC0AE
:103FA0008C149D04AE04BF0490F1DAC0C1010E94DC
:103FB000090D611571058105910509F417C16F3F60
:103FC000BFEF7B078B079B0709F4C1C06230710507
:103FD0008105910508F459C0E981FA814388548824
:103FE00065887688641575058605970508F04DC0C7
:103FF000F101648B758B868B978B8C149D04AE04BA
:10400000BF0408F0A9C04088518862887388C81826
:10401000D908EA08FB08480C591C6A1C7B1CD10112
:1040200050964D925D926D927C9253971E962C9174
:10403000AB01BC0121FDBACFD1018D919C910E94B1
:10404000290CBDCF80E090E0FFCE40E050E0BA0107
:10405000C1010E94090D6130710581059105A9F02A
:104060006F3FBFEF7B078B079B0709F470C0D1013F
:1040700016966D937D938D939C93199750964D90C2
:104080005D906D907C90539780CF82E0D1011F9618
:104090008C9390E0D9CEC12CD12C7601F101828590
:1040A0009385A485B58584159505A605B70508F003
:1040B000A6C0428653866486758686858064868718
:1040C000B1E05B226624772445284628472809F476
:1040D000B9CFF101208D318D428D538DC216D3069B
:1040E000E406F50609F4AECF8685510187FD1DC0B3
:1040F000F2E2AF0EB11CE981FA8101E010E0A70104
:104100009601B50181810E94BE04892B41F4F10121
:10411000C08ED18EE28EF38E80E090E095CE81E06D
:10412000D1011F968C9390E08FCE82E2A80EB11C35
:10413000E981FA8101E010E0B50181810E94220548
:10414000892B69F7F10186858F778687D4CF81E047
:10415000F101878790E078CE408851886288738823
:104160004C0C5D1C6E1C7F1CF101408A518A628AD6
:10417000738A97018601117022273327012B022BA6
:10418000032B09F488CFE981FA819B01AC0122500D
:1041900031094109510983899489A589B689029712
:1041A000A109B109281739074A075B0708F06DCF45
:1041B000A185B2850E94652B07A110A521A532A576
:1041C000600F711F821F931F611571058105910595
:1041D00009F45BCF59E0F694E794D794C7945A95C5
:1041E000D1F7C60ED71EE81EF91E58CFF101408840
:1041F000518862887388C12CD12C76014FCFF1E0B1
:104200005F226624772460CFEF92FF920F931F9373
:10421000CF93DF9300D0CDB7DEB77C01BE016F5FD7
:104220007F4F0E94AD009C01009731F4F701278574
:1042300030E02115310551F0C9010F900F90DF9149
:10424000CF911F910F91FF90EF900895F701868510
:1042500081FD03C087E090E0F0CFF70140895189EC
:104260006289738982859385A485B5854817590726
:104270006A077B0728F5452B462B472B21F54681FE
:1042800057816085718500E010E09801C7010E94A8
:104290001E0E9C01F7011682178210861186F70107
:1042A00040895189628973894287538764877587FA
:1042B0008685806486872115310591F587FD44C088
:1042C00080E090E0BACFF701448955896689778903
:1042D000808191810E94290C6F3FFFEF7F078F073C
:1042E0009F0711F1613071058105910509F442C004
:1042F000E981FA8103891489258936896017710754
:1043000082079307D8F1F70180899189A289B3893F
:1043100082879387A487B587868580648687CECF7A
:10432000822FF701878788CF81E021E030E0F70115
:104330004089518962897389428753876487758769
:10434000968590649687EDCFF701208D318D428D53
:10435000538DE981FA8101E010E0B7016E5D7F4F76
:1043600081810E942205892BA9F4F70186858F7728
:104370008687A6CF82E022E030E0D9CFF70104891A
:10438000158926893789AB01BC01C7010E941E0E21
:104390009C0185CF81E021E030E0C3CFBF92CF9276
:1043A000DF92EF92FF920F931F93CF93DF93CDB7DE
:1043B000DEB760970FB6F894DEBF0FBECDBFB82E44
:1043C0007A018091000180FF13C003E010E0C80172
:1043D00060960FB6F894DEBF0FBECDBFDF91CF91D0
:1043E0001F910F91FF90EF90DF90CF90BF900895B5
:1043F000062F10E00F30110518F004E010E0E7CFB1
:10440000F801E55BFF4F0C94A22B20E030E0A901FE
:104410006DE88B2D0E945703811137C08FEF8EBD41
:104420000DB407FEFDCF8EB560E470E0C7010E94B9
:104430004E0121E0F12C892B09F020E0E22E18C07A
:1044400020E030E0A9016AE38B2D0E94570381111F
:104450001CC0F701C70104963FEF3EBD0DB407FE37
:10446000FDCF2EB52193E817F907B9F7E12CF12C10
:104470000E946F028701ABCF20E030E0A9016AE023
:104480008B2D0E945703882369F0EE24E394F12CCE
:10449000EFCF20E030E0A90169E08B2D0E945703A7
:1044A0008111F3CF60E170E0C7010E944E01892BBA
:1044B00061F3DCCF8091D73BFA01808300E010E00C
:1044C00086CF8091000181608093000100E010E0C0
:1044D0007ECF8091D73B867009F0CBC001E010E021
:1044E00076CF8091D73B20E030E0A90182FF88C0E1
:1044F0006DE88B2D0E9457038111C7CF8FEF8EBDC2
:104500000DB407FEFDCF8EB560E170E0CE010196DF
:104510000E944E01892B09F4B8CF80E39FEF9EBD26
:104520000DB407FEFDCF2EB58150C9F72B8522951E
:104530002F7080E190E0A0E0B0E049C020E030E0E2
:10454000A90169E08B2D0E94570381119ECF60E184
:1045500070E0CE0101960E944E01892B09F495CF9F
:10456000898190E0082E892F000C881F990B000C80
:10457000881F991F019709F4D7C0888590E0880F9C
:10458000991F880F991F0196298530E0022E232F4D
:10459000000C221F330B000C221F331F820F931FAE
:1045A0002F81237030E0322F2227330F330F820FF9
:1045B000931FA0E0B0E02E812F703B85331F33277F
:1045C000331F230F3A853370330F230F275004C056
:1045D000880F991FAA1FBB1F2A95D2F7F701808366
:1045E0009183A283B38342CF0E947E0231E020E018
:1045F000892B09F030E0032F122F0E946F02E7CEC3
:1046000069E08B2D0E94570381113FCF60E170E07C
:10461000CE0101960E944E01892B09F436CF80917C
:10462000D73B81FFA6C08C85881F8827881F90E014
:1046300001962B852F7330E0220F331F820F931FBB
:104640002E8530E0022E232F000C221F330B000C8E
:10465000221F331F2150310902C0880F991F2A954C
:10466000E2F7A0E0B0E0F70180839183A283B383F7
:10467000FDCEAE014F5F5F4F6BE08B2D0E94CE21D0
:104680008C01009709F02ACF898190E0082E892FAC
:10469000000C881F990B000C881F991F892B19F497
:1046A0008B8586FF1BCFF7012081318142815381A9
:1046B000C480D580E680F7808091D73B83FD0EC013
:1046C000E9E0220F331F441F551FEA95D1F7F9E0A7
:1046D000CC0CDD1CEE1CFF1CFA95D1F760E28B2D93
:1046E0000E9457038111FACEA701960161E28B2D3A
:1046F0000E9457038111F2CE20E030E0A90166E26A
:104700008B2D0E9457038111E9CE88EB9BE02FEFA0
:104710002EBD0DB407FEFDCF3EB53F3F09F457CE89
:1047200001970097A9F7DACE88858F7390E0A0E013
:10473000B0E0DC01992788270196A11DB11D2985CC
:1047400030E0322F22274A85240F311D820F931F1C
:10475000A11DB11D1AE0880F991FAA1FBB1F1A9532
:10476000D1F7F70180839183A283B383E12CF12CED
:104770007FCE8C85282F237030E0220F331F220F2D
:10478000331F220F331F829586958770280F311DA6
:104790002F5F3F4F4B854C7750E05595479555958A
:1047A00047954F5F5F4F249FC001259F900D349F19
:1047B000900D112456CF0F931F93CF93DF93EC01ED
:1047C0008B81811116C088818330E9F040E050E090
:1047D00060E089810E94CE2131E020E0892B39F010
:1047E000832F922FDF91CF911F910F91089530E089
:1047F000F7CFCE010E949C05009729F3DF91CF915E
:104800001F910F9108958C81813001F7BE01615D88
:104810007F4FFB01CE01815D9D4F1192E817F90793
:10482000E1F785E5FE01E35DFD4F80838AEAFE0145
:10483000E25DFD4F808382E58FA788AB81E689AB7F
:1048400091E49AAB22E7FE01ED5EFD4F2083FE016D
:10485000EC5EFD4F2083FE01EB5EFD4F9083FE0179
:10486000EA5EFD4F80833F85288999898A89FE0108
:10487000E95EFD4F3083FE01E85EFD4F2083FE01BF
:10488000E75EFD4F9083FE01E65EFD4F80833B8532
:104890002C859D858E85FE01E55EFD4F3083FE01F2
:1048A000E45EFD4F2083FE01E35EFD4F9083FE0139
:1048B000E25EFD4F80832B8D3C8D4D8D5E8D2F5F95
:1048C0003F4F4F4F5F4F2BA73CA74DA75EA701E07F
:1048D00010E089810E9422051C8278CFEF92FF921E
:1048E0000F931F93CF93DF9300D0CDB7DEB77C013A
:1048F000BE016F5F7F4F0E94AD009C01009709F0E1
:1049000054C0D7011E968C911E9786FF58C087FD14
:1049100059C0D7015C964D915D916D917C915F97E7
:1049200089819A810E9400069C010097F1F5D701C8
:104930009096ED91FC91919783858062838716967E
:104940004D915D916D917C9119972D913C91428F84
:10495000538FD9012C91233009F44EC0D7011A96F8
:104960003C911A971B962C911B971C969C911C9717
:104970001D968C91348F258F968F878F168A178A74
:1049800081E2808F88E4818F128A138A89819A81DB
:1049900021E0FC0123830E94DB23D7011E962C918A
:1049A0001E972F7B1E962C9301C0C9010F900F906C
:1049B000DF91CF911F910F91FF90EF90089580E0CC
:1049C00090E0F4CF58962D913D914D915C915B977D
:1049D000E981FA8101E010E0B7016E5D7F4F8181CE
:1049E0000E942205892B29F4F70186858F77868717
:1049F00090CF81E090E0DACFCB01AA27BB27848B50
:104A0000958BACCF0F931F93CF93DF9300D0CDB78F
:104A1000DEB78C010E946E24009739F00F900F9042
:104A2000DF91CF911F910F910895BE016F5F7F4F6E
:104A3000C8010E94AD00009789F7F8011182108229
:104A40000F900F90DF91CF911F910F910895CF920A
:104A5000DF92EF92FF920F931F93CF93DF93CDB727
:104A6000DEB7C455D1090FB6F894DEBF0FBECDBF77
:104A700065969FAF8EAF659742E0BE016F5A7F4F3C
:104A8000CE018D5A9F4F0E94C90663962EAD3FAD51
:104A900063973AA729A7009781F0CC5ADF4F0FB64A
:104AA000F894DEBF0FBECDBFDF91CF911F910F9164
:104AB000FF90EF90DF90CF90089565966EAD7FAD3B
:104AC0006597CE0189960E945F12009731F7619633
:104AD0008FAD619787FD06C02DA520FF06C087E03A
:104AE00090E0DBCF86E090E0D8CF2596AEADBFADAD
:104AF00025976396EEADFFAD63975B96CC905B9781
:104B0000D12CDC2CCC245A968C915A97C82AE12CB3
:104B1000F12C8081833091F455968C91559790E0DB
:104B2000982F882754963C91832BA0E0B0E0DC01BD
:104B300099278827C82AD92AEA2AFB2A24FD30C0C7
:104B400009A51AA523964CAD5DAD6EAD7FAD23973B
:104B5000C8010E940006009709F09FCF2596EEAD90
:104B6000FFAD259785EE808381E0F8018383C11432
:104B7000D104E104F10439F463968EAD9FAD6397DF
:104B80000E94DB238ACF00E010E09801B701A60164
:104B9000CE0189960E941E0E009709F07ECFECCFC1
:104BA000FA83E983CF82D886E986FA86CE01019618
:104BB0000E94D90E009709F070CFCE0101960E9495
:104BC000BC14009709F48BCF8430910509F4B8CF59
:104BD00064CF2F923F924F925F926F927F928F920B
:104BE0009F92AF92BF92CF92DF92EF92FF920F937C
:104BF0001F93CF93DF93CDB7DEB7E3970FB6F8944B
:104C0000DEBF0FBECDBF9CA78BA742E0BE01675D94
:104C10007F4FCE018B960E94C9065C0189A59AA59B
:104C20009A838983A114B104D1F0C501E3960FB62C
:104C3000F894DEBF0FBECDBFDF91CF911F910F91D2
:104C4000FF90EF90DF90CF90BF90AF909F908F90AC
:104C50007F906F905F904F903F902F9008956BA53D
:104C60007CA5CE0101960E945F125C01009791F134
:104C700084309105D1F640E050E0BA01CE010196B2
:104C80000E94090D6B017C0189A59AA5DC0119968A
:104C90004D915C911A9760E070E029E0440F551F38
:104CA000661F771F2A95D1F74B875C876D877E87B4
:104CB000C114D104E104F10489F477E0A72EB12CEA
:104CC00000E010E09801B701A601CE0101960E9414
:104CD0001E0EABCFE8E0AE2EB12CA7CFB1E0CB16C5
:104CE000D104E104F10421F462E0A62EB12CE8CF56
:104CF000EFEFCE16DE06EE06FE0621F4AA24A394FC
:104D0000B12CDECFDC0113962C912111E8C05C019F
:104D1000A70196012250310941095109F501838902
:104D20009489A589B6890297A109B109281739077D
:104D30004A075B0708F0A7C0A185B2850E94652BD2
:104D40002B013C0187A190A5A1A5B2A5480E591E33
:104D50006A1E7B1E4501FFE28F0E911C8501015DDD
:104D60001D4FF4011192E017F107E1F7C4010B9612
:104D7000F40120E22193E817F907E1F78EE2D5016B
:104D80009F968C939F9780E1DA968C93DA97F50142
:104D9000EB5BFF4F1082F501EA5BFF4F108281E26F
:104DA000F501E95BFF4F808388E4F501E85BFF4F85
:104DB0008083E9A5FAA5A75BBF4FCC928D2D9927DB
:104DC0009EA78DA7D501A65BBF4F8C9380818330B2
:104DD00009F4AAC040E250E0B401C501815B9F4FD5
:104DE0000E94D1008EE2F501E05BFF4F80834F818E
:104DF000588569857A85E9A5FAA58081833009F40B
:104E000083C0942F852FD501A759BF4F9C93D501FF
:104E1000A659BF4F8C938081833009F469C02184E7
:104E200032842114310499F121E0B301A2014F5FD2
:104E30005F4F6F4F7F4F43A654A665A676A6238388
:104E4000211110C0F4011192E017F107E1F791E090
:104E5000291A310821143104D1F0E9A5FAA52A0153
:104E60003B01E3CFCF012BAB4FA758AB69AB7AAB7C
:104E70000E949C055C012BA94FA558A969A97AA994
:104E8000009701F31DCF412C512C320163CFCE018D
:104E900001960E9448155C01009709F011CFEB8D37
:104EA000FC8D168A178A81E2808F88E4818F89A51C
:104EB0009AA5C28EADA5A38FDC012C91233049F0B9
:104EC00020E1238721E0FC0123830E94DB235C0196
:104ED000ACCE6701EE24FF24C48AD58AF1CF0E94AC
:104EE0009C055C01009709F0EBCEA9A4BAA410CFF1
:104EF000AB0166277727D501AD59BF4F4C93D5013C
:104F0000AC59BF4F5C938BCF83A194A1A5A1B6A14F
:104F100084179507A607B70709F073CF80E090E0E4
:104F200040E050E0BA016FCFC701AA27BB27F501C7
:104F3000ED5BFF4F8083F501EC5BFF4F90834ACF21
:104F4000CF92DF92EF92FF920F931F93CF93DF9355
:104F5000CDB7DEB7CE56D1090FB6F894DEBF0FBE7F
:104F6000CDBFAD969FAF8EAFAD97AF967FAF6EAF13
:104F7000AF97CE0183599F4F0E94860042E0BE0149
:104F800067597F4FCE0185599F4F0E94C9060097F0
:104F900081F0C259DF4F0FB6F894DEBF0FBECDBF10
:104FA000DF91CF911F910F91FF90EF90DF90CF9005
:104FB0000895AB968EAD9FADAB979AA789A7AD9696
:104FC0006EAD7FADAD97CE0189960E945F120097BE
:104FD00001F761968FAD6197807A19F086E090E0D5
:104FE000D8CF25966EAD7FAD2597655F7F4F45E1A4
:104FF00050E0CE018F5A9F4F0E94D10048E250E00E
:10500000BE01675D7F4FCE0101960E94D100AF9631
:105010006EAD7FADAF97CE0101960E945F120097F3
:1050200089F44F81588569857A858FA598A9A9A9A2
:10503000BAA9481759076A077B0709F4A3C088E093
:1050400090E0A7CF8430910509F0A3CFCE0101965F
:105050000E944815009709F09CCF0B8D1C8D61E5CF
:1050600070E06C0F7D1F6E5F7F4F43E150E0C80121
:105070000D960E94D10062968FAD62978062D80132
:105080001B968C931B97AB96EEADFFADAB9781E073
:1050900083831B968C9184FF57C08FA598A9A9A9DB
:1050A000BAA94F81588569857A8584179507A6071F
:1050B000B70709F449C0D8015B962C915B9730E0A3
:1050C000322F22275A968C915A97282B6901E12C6E
:1050D000F12C8081833009F467C0A701960122502A
:1050E00031094109510983899489A589B6890297B3
:1050F000A109B109281739074A075B0708F051C011
:10510000A185B2850E94652BAB01BC0107A110A54A
:1051100021A532A5400F511F621F731F4115510574
:1051200061057105F1F1CF010E940006AB96EEAD6D
:10513000FFADAB97009709F02CCFDF01A05BBF4F0D
:105140008C918E3209F444C009A51AA523964CAD62
:105150005DAD6EAD7FAD2397C8010E94000600973C
:1051600009F017CF2596EEADFFAD259785EE80832C
:1051700081E0F8018383AB968EAD9FADAB970E9423
:10518000DB2307CF4F85588969897A898FA998AD24
:10519000A9ADBAAD481759076A077B0709F04FCF89
:1051A00055CF82E090E0F5CE55966C91559770E022
:1051B000762F662754968C91682BCB01A0E0B0E047
:1051C000DC0199278827C82AD92AEA2AFB2A85CF11
:1051D0004F81588569857A859F0127593F4FD901AD
:1051E0004C939F0126593F4FD9015C932081233076
:1051F00019F081E08383A8CFAB01662777279F0151
:105200002D593F4FD9014C939F012C593F4FD90144
:105210005C93EFCFEF92FF920F931F93CF93DF93A7
:105220008C017B01A5ECBBE3C0E0D0E02D913D916A
:10523000232B59F02196C930D105C1F7DF91CF91C9
:105240001F910F91FF90EF900895FE01EE0FFF1F49
:10525000EB53F44C81E090E091838083F801E758B0
:10526000F94FD183C083B8016558794F8C2F805D89
:10527000FB018083F801E458F94F108240E0C80137
:105280000E94A20AFE01EE0FFF1FEE0FFF1FEE0F9E
:10529000FF1FE358F44CDF0120E030E01D922F5F48
:1052A0003F4F28303105D1F7D70120E030E08D9114
:1052B00081932F5F3F4F28303105C9F78DE796E086
:1052C000C89FD001C99FB00DD89FB00D1124A85E12
:1052D000BE4FF80101900D920197E1F7DF91CF9158
:1052E0001F910F91FF90EF900895CF92DF92EF9270
:1052F000FF920F931F93CF93DF93CDB7DEB7CD57B8
:10530000D6400FB6F894DEBF0FBECDBF6C017B0157
:10531000FC0181818F32E1F08823D1F0329601E0E7
:1053200010E003C0882339F0890198012F5F3F4FB7
:1053300081918F32B9F7C8010E949C2CD601119639
:10534000FC01080F191F8D918193E017F107D9F720
:105350002EE73BE340E050E0F90131976081D60150
:10536000F90180E090E004C06081662341F031964D
:105370007D91761316C0019688309105A9F78A01B0
:10538000C801C358D94F0FB6F894DEBF0FBECDBFCA
:10539000DF91CF911F910F91FF90EF90DF90CF9011
:1053A00008954F5F5F4F285F3F4F49305105A1F689
:1053B000F4E0EF16F1040CF5B601CE0101960E945F
:1053C0000A29B7016F5F7F4FC6010E9475298C01C2
:1053D000C658D94FE881F981CA57D640EE0FFF1F52
:1053E000EB53F44C1182108240E0BE016458794FB7
:1053F00080E090E00E94A20AC3CF0FEF1FEFC0CF62
:105400008F929F92BF92CF92DF92EF92FF920F9373
:105410001F93CF93DF937C018B0160E070E00E94CB
:1054200075296C01F70181818F3209F4A5C032968C
:10543000C1E0D0E0219681918F32E1F7FE013196F3
:10544000EE0DFF1DCE01019621912111FCCF4C01E3
:105450008C1A9D0AC4010E949C2C1814190454F43F
:10546000CE0DDF1DFC01880D991D29912193E817B0
:10547000F907D9F78DE796E0C89E4001C99E900CC8
:10548000D89E900C1124C401885E9E4F4C01F701F8
:105490008081882309F473C0F7013196C0E0D0E021
:1054A000219681918111FCCFCE0105960E949C2C02
:1054B000F401E558F94F2081FC012083F401E45800
:1054C000F94F2081FC0121832AE322832FE22383E9
:1054D000D701349620E030E04D9141932F5F3F4F4C
:1054E000C217D307CCF7F8014081442319F1319654
:1054F00020E030E008C0423789F1413609F42460E9
:105500004191442331F04737B1F721604191411176
:10551000FACFA901559547955595479541305105C5
:1055200011F12330310511F12230310511F1213013
:105530003105B1F04B2DBC01C401815D9D4F0E942E
:10554000A415C401DF91CF911F910F91FF90EF90AF
:10555000DF90CF90BF909F908F9008952260D0CF22
:105560001AE0B12EE7CFD0E3BD2EE4CFCBE0BC2EC6
:10557000E1CFBB24B394DECFC1E0D0E05FCF85E0C4
:1055800090E0C0E0D0E092CF815D9D4F0C94022569
:10559000615D7D4F0C946E1C615D7D4F0C94921C7F
:1055A000415D5D4F0C94A519EF92FF920F931F93ED
:1055B000CF93DF93EC01CB018A0179017983688372
:1055C0005B834A833D832C8361E070E00E94C601C7
:1055D00060E070E0C8010E94C60161E070E0C701B0
:1055E0000E94C60180E58CBD88E090E09F838E8399
:1055F000198618868CB5837F8CBD8CB58C7F8CBD4D
:105600008DB58E7F8DBDDF91CF911F910F91FF9052
:10561000EF900895CF93DF93C5E0D0E061E070E0B4
:1056200080911601909117010E94270284EF91E06A
:10563000E9EFF0E03197F1F700C000000197009723
:10564000B9F760E070E080911601909117010E9417
:10565000270284EF91E0E9EFF0E03197F1F700C025
:10566000000001970097B9F721972097B9F661E0FC
:1056700070E080911601909117010E94270260E06E
:1056800070E080911601909117010E94270280E03E
:1056900090E0DF91CF91089525E030E044E050E0C4
:1056A00063E070E08AED9BE30E94D42A82E090E000
:1056B0009093D93B8093D83B229A10921701109275
:1056C0001601209A08950C94EE0A0E94A82BA59F1B
:1056D000900DB49F900DA49F800D911D11240895ED
:1056E000DB018F939F930E94652BBF91AF91A29F87
:1056F000800D911DA39F900DB29F900D11240895D0
:10570000A1E21A2EAA1BBB1BFD010DC0AA1FBB1FC5
:10571000EE1FFF1FA217B307E407F50720F0A21B37
:10572000B30BE40BF50B661F771F881F991F1A94A4
:1057300069F760957095809590959B01AC01BD01CE
:10574000CF010895EE0FFF1F0590F491E02D09940D
:10575000A29FB001B39FC001A39F700D811D1124B2
:10576000911DB29F700D811D1124911D089504D0CB
:105770006894B11150C0089533D088F09F5790F0CD
:10578000B92F9927B751A0F0D1F0660F771F881F66
:10579000991F1AF0BA95C9F712C0B13081F03AD00A
:1057A000B1E0089537C0672F782F8827B85F39F0A8
:1057B000B93FCCF3869577956795B395D9F73EF4C5
:1057C00090958095709561957F4F8F4F9F4F08956D
:1057D00057FD9058440F551F59F05F3F71F04795A2
:1057E000880F97FB991F61F09F3F79F08795089587
:1057F000121613061406551FF2CF4695F1DF08C0A6
:10580000161617061806991FF1CF869571056105C2
:1058100008940895E894BB2766277727CB0197F96A
:1058200008950BD078C069D028F06ED018F0952379
:1058300009F05AC05FC01124EECFCADFA0F3959FD4
:10584000D1F3950F50E0551F629FF001729FBB2767
:10585000F00DB11D639FAA27F00DB11DAA1F649F13
:105860006627B00DA11D661F829F2227B00DA11DC6
:10587000621F739FB00DA11D621F839FA00D611D4C
:10588000221F749F3327A00D611D231F849F600D6D
:10589000211D822F762F6A2F11249F5750408AF0A6
:1058A000E1F088234AF0EE0FFF1FBB1F661F771F32
:1058B000881F91505040A9F79E3F510570F014C0C9
:1058C000AACF5F3FECF3983EDCF38695779567951A
:1058D000B795F795E7959F5FC1F7FE2B880F911D50
:1058E0009695879597F9089597F99F6780E870E0F6
:1058F00060E008959FEF80EC089500240A94161646
:10590000170618060906089500240A9412161306AD
:10591000140605060895092E0394000C11F488233B
:1059200052F0BB0F40F4BF2B11F460FF04C06F5F57
:105930007F4F8F4F9F4F0895CF93DF938230910514
:1059400010F482E090E0E091EE3BF091EF3B20E03C
:1059500030E0A0E0B0E0309739F140815181481744
:105960005907B8F04817590771F48281938110974D
:1059700029F013969C938E9312972CC09093EF3B33
:105980008093EE3B27C02115310531F042175307B4
:1059900018F0A901DB0101C0EF019A01BD01DF018F
:1059A0000280F381E02DD7CF21153105F9F0281BB6
:1059B000390B2430310580F48A819B816115710592
:1059C00021F0FB019383828304C09093EF3B80938B
:1059D000EE3BFE01329644C0FE01E20FF31F8193BD
:1059E000919322503109398328833AC02091EC3BAE
:1059F0003091ED3B232B41F42091030130910401C0
:105A00003093ED3B2093EC3B20910101309102015A
:105A10002115310541F42DB73EB740910501509154
:105A20000601241B350BE091EC3BF091ED3BE217B6
:105A3000F307A0F42E1B3F0B2817390778F0AC01B1
:105A40004E5F5F4F2417350748F04E0F5F1F50938E
:105A5000ED3B4093EC3B8193919302C0E0E0F0E09A
:105A6000CF01DF91CF910895CF93DF93009709F491
:105A700087C0FC01329713821282C091EE3BD09115
:105A8000EF3B209781F420813181280F391F8091CD
:105A9000EC3B9091ED3B8217930779F5F093ED3B4A
:105AA000E093EC3B6DC0DE0120E030E0AE17BF07B5
:105AB00050F412964D915C9113979D01411551053B
:105AC00009F1DA01F3CFB383A28340815181840FBE
:105AD000951F8A179B0771F48D919C911197840FE4
