:100000000C9434000C9451000C9451000C94510049
:100010000C9451000C9451000C9451000C9451001C
:100020000C9451000C9451000C9451000C9451000C
:100030000C9451000C9451000C9451000C945100FC
:100040000C9451000C9451000C9451000C945100EC
:100050000C9451000C9451000C9451000C945100DC
:100060000C9451000C94510011241FBECFEFD8E026
:10007000DEBFCDBF11E0A0E0B1E0E6E5FAE102C0ED
:1000800005900D92A03AB107D9F713E0A0EAB1E0CC
:1000900001C01D92A63CB107E1F70E94360C0C94FA
:1000A000290D0C9400001092C5008CE08093C400D0
:1000B00082E08093C00086E08093C20088E1809354
:1000C000C10008958091C00087FFFCCF8091C600D9
:1000D00008956F927F928F929F92AF92BF92CF922C
:1000E000DF92EF92FF920F931F93CF93DF933C0128
:1000F0006B01EA018FEF603F780708F094C0F301CD
:1001000082898C30D1F4CB01969587958C0D9D1DFD
:100110009C01232F330F330B2595FFEFEF2EF1E0DA
:10012000FF2EE822F922FFEFEF16F1E0FF0671F44F
:100130002F5F3F4FEE24FF2409C0272F33277B0179
:10014000EE0CFF1C8FEF91E0E822F9224901AA246E
:1001500097FCA094BA2CF30181819281A381B48190
:10016000880E991EAA1EBB1E86A197A1B501A401E7
:100170000E94A30B882309F053C0D701AA53BE4F96
:100180000D911C911197F30182898C3071F4C0FE9E
:1001900006C044E0169507954A95E1F701C01F7027
:1001A000FFE0073F1F0708F0106F9FEFCE3FD90712
:1001B000D9F18C30C9F4CE01C0FE0AC034E0880FFA
:1001C000991F3A95E1F7CC91D0E0CF70D0700AC07A
:1001D0009F70F701E953FE4FC081D0E0C07FD0701F
:1001E000DC2FCC27C82BD92B1196DC93CE93F301AF
:1001F000C18913C0F30186A197A1B501A4010E9492
:10020000EA0B882369F4F30187859089A0E0B0E0C8
:10021000880E991EAA1EBB1EC150CC2359F704C0DC
:1002200007EF1FEF01C08B01C801DF91CF911F9134
:100230000F91FF90EF90DF90CF90BF90AF909F9085
:100240008F907F906F900895AF92BF92CF92DF9280
:10025000EF92FF920F931F93CF93DF937C018B015B
:10026000C0E0D0E009C0C701BE014EEF5FEF0E94C1
:100270006900009741F02196F70185859685C8179A
:10028000D90788F338C0DC2ECD2EC701BE014FEF51
:100290005FEF0E946900FFEF873F9F07F1F0023098
:1002A000110550F41CC0C701B8014EEF5FEF0E946A
:1002B0006900B02EA12E8C01C80102972FEF8E3E4F
:1002C000920788F3C7016B2D7A2D4D2D5C2D0E946E
:1002D0006900EFEF873F9E0711F4C7EFDFEFCE0114
:1002E000DF91CF911F910F91FF90EF90DF90CF9012
:1002F000BF90AF9008958CE18093A301EECFEF9271
:10030000FF920F931F93CF93DF937C01EB0116C0F5
:10031000C701BE014EEF5FEF0E9469008C012FEF15
:10032000873F920799F0C701BE0140E050E00E946C
:1003300069002FEF873F920749F0E8018FEFC03F38
:10034000D80730F32FEFC73FD20711F080E001C08C
:100350008FEFDF91CF911F910F91FF90EF90089554
:10036000AF92BF92CF92DF92EF92FF920F931F93C3
:10037000CF93DF930F92CDB7DEB75B018C017C0189
:100380002BE0A0E2DA2EB0E4CB2EF701D1927F0170
:10039000F5018081813200F18E3229F42430E0F4BD
:1003A0000894A11CB11CF50181915F0190E02983A3
:1003B0000E940A0DF801808390E0298106C083170E
:1003C00019F4F801C08208C09F5FE92FF0E0E158FE
:1003D000FE4F3081332399F721500F5F1F4F2223A7
:1003E000A1F60F90DF91CF911F910F91FF90EF90A9
:1003F000DF90CF90BF90AF9008958F929F92AF9271
:10040000BF92CF92DF92EF92FF920F931F93CF9301
:10041000DF93EC016A017B0159012DEFA2162FEF4A
:10042000B20691F48A019B0189E0359527951795CD
:1004300007958A95D1F78D819E81AF81B885080F88
:10044000191F2A1F3B1F6DC0DB01CA010D8C04C0A0
:10045000B595A795979587950A94D2F74C018E8DFF
:100460009F8DA816B906A9F488A199A188169906A6
:1004700081F4EAA1FBA116C08016910699F0CE0185
:10048000BF014EEF5FEF0E946900FC010F5F1F4F3D
:1004900003C0F50100E010E0CF0102972FEF8E3E80
:1004A000920750F38F01025010408FEF0E3E180755
:1004B00070F50F8802C0000F111F0A94E2F720E0C8
:1004C00030E089859A85AB85BC85080F191F2A1FE6
:1004D0003B1FB701A601032E39E075956795579527
:1004E00047953A95D1F7302D888D90E0A0E0B0E0A7
:1004F000482359236A237B23040F151F261F371F08
:10050000BF8EAE8E99A288A2FBA3EAA30AC02FEFEA
:10051000E73FF20719F087E08093A3010FEF1FEF89
:100520009801B801C901DF91CF911F910F91FF9000
:10053000EF90DF90CF90BF90AF909F908F900895F5
:100540002F923F924F925F926F927F928F929F92E3
:10055000AF92BF92CF92DF92EF92FF920F931F93D1
:10056000CF93DF938C011B012A01FC0180849184CD
:10057000A284B384C480D580E680F780C818D908E7
:10058000EA08FB086624772444C0F80122813381FD
:1005900080899189B501A4010E94FD01AB01BC01D4
:1005A00077FD58C0F801828993890E94A30B8823A4
:1005B00009F050C0C4019170C0E0D2E0C81BD90B53
:1005C000BC016A537E4FCE01AA2797FDA095BA2F92
:1005D000C816D906EA06FB060CF4E6014C165D06C1
:1005E0000CF4E201C101AE010E94120DCE01AA2756
:1005F00097FDA095BA2F880E991EAA1EBB1E6C0EE1
:100600007D1EC81AD90AEA0AFB0A4C1A5D0A2C0E8A
:100610003D1E1414150434F41C141D041E041F0480
:100620000CF4B3CFC30161147104B1F0A3016627C8
:1006300057FD6095762FF80180859185A285B38559
:10064000840F951FA61FB71F80879187A287B38746
:10065000C30102C08FEF9FEFDF91CF911F910F91E8
:10066000FF90EF90DF90CF90BF90AF909F908F90D2
:100670007F906F905F904F903F902F9008950F93D1
:100680001F93FC01213029F02130C0F0223079F491
:1006900009C00085118522853385040F151F261F8B
:1006A000371F0EC0048115812681378109C086E17C
:1006B0008093A3010FEF1FEF980108C08A019B01EF
:1006C00037FD04C00087118722873387B801C9012D
:1006D0001F910F910895AF92BF92DF92EF92FF9218
:1006E0000F931F93CF93DF937C018B015A01D22E7E
:1006F000FC0184A195A140E050E0BA0120E00E94F5
:100700003F03DC01CB01B7FD21C0D2E0F70184A19A
:1007100095A1B80140E250E00E94A002803291050C
:10072000A9F4F8018081882321F4D093A301C0E0CB
:1007300001C0CFEFC801B5014D2D50E00E941B0D47
:10074000009731F0CF3F11F380E003C08FEF01C07D
:1007500081E0DF91CF911F910F91FF90EF90DF909B
:10076000BF90AF9008950F931F93CF93DF93EC0149
:1007700008891989898181FF63C04C855D856E85F3
:100780007F8577FD5DC0F80184A195A120E00E94DE
:100790003F03DC01CB01181619061A061B060CF0E4
:1007A00059C0F80184A195A164EA71E040E250E0EB
:1007B0000E94A0028032910509F04CC08A819B8181
:1007C0009093BF018093BE018C819D81AE81BF81DA
:1007D0008093C0019093C101A093C201B093C30163
:1007E0008091A0019091A1019093B3018093B201F7
:1007F00080917D0190917E019093B5018093B40129
:100800004C855D856E857F85F80184A195A120E0EA
:100810000E943F03DC01CB01181619061A061B06BD
:10082000CCF4F80184A195A164EA71E040E250E0C3
:100830000E9432048032910569F489818D7F898319
:10084000F80186A197A140E050E0BA010E94A30BF5
:10085000882311F08FEF01C080E0DF91CF911F91CD
:100860000F9108952F923F924F925F926F927F92D5
:100870008F929F92AF92BF92CF92DF92EF92FF92B0
:100880000F931F93CF93DF93EC011B015A018981D2
:1008900080FF06C08DE08093A3018824992485C041
:1008A000488459846A847B848824992459C080911F
:1008B000A301873009F058C06A817B8188899989B2
:1008C0000E9424019C018A819B81009751F43B8303
:1008D0002A83898182608983CE010E94B30387FDC8
:1008E00043C02A813B8188899989B301A2010E9472
:1008F000FD016B017C0197FDDACF6BC08A899B8972
:10090000B701A6010E94A30B882371F5C201917063
:1009100000E012E0081B190BA016B1060CF48501CB
:100920008A539E4FB101A8010E94120D8A899B89AA
:10093000B701A6010E94EA0B8823B1F48981826085
:100940008983C801AA2797FDA095BA2F480E591E82
:100950006A1E7B1E800E911EA01AB10A200E311E47
:100960001A141B040CF4BDCF81149104F1F0C401DE
:10097000AA2797FDA095BA2F488559856A857B855A
:10098000840F951FA61FB71F88879987AA87BB87E3
:100990004C815D816E817F81481759076A077B070B
:1009A00024F48C839D83AE83BF83C401DF91CF91F8
:1009B0001F910F91FF90EF90DF90CF90BF90AF907D
:1009C0009F908F907F906F905F904F903F902F906F
:1009D000089580E0A81682E0B8060CF097CF8ECF7D
:1009E000AF92BF92CF92DF92EF92FF920F931F933D
:1009F000CF93DF93CDB7DEB72D970FB6F894DEBF58
:100A00000FBECDBF7C01B42EC22E8091410187FD67
:100A10000CC080912D0187FD0DC08091190187FFC9
:100A20001FC1AA2409E111E009C032E0A32E01E4AC
:100A300011E004C0AA24A3940DE211E0F801F18AA8
:100A4000E08AF70186A197A1F801938B828B10862B
:100A50001186128613861182FB0180818F32F9F490
:100A600081818823E1F48DEF9FEFF80193838283E6
:100A7000F7018389948925E0880F991F2A95E1F76A
:100A8000A0E0B0E0F80184839583A683B7838FEF5D
:100A90009FEFDC0184879587A687B787CAC0CE0100
:100AA00002960E94B0011D868A81803211F486E18F
:100AB00085C0C70164EA71E0AE014E5F5F4F2BE075
:100AC0000E946B03D82E87FDCFC0882309F065C034
:100AD000B3FE63C085EE8983C70164EA71E0AE01AD
:100AE0004F5F5F4F21E00E946B0387FDBDC0E4EACA
:100AF000F1E0DE0112968BE00D9001928150E1F75A
:100B0000C092AF011092B0018091A2018093B10117
:100B10008091A0019091A1018093B2019093B301C3
:100B20008093BA019093BB0180917D0190917E01E9
:100B30008093B4019093B5018093B6018093BC017A
:100B40009093B7019093BD011092BE011092BF0126
:100B50001092C0011092C1011092C2011092C30103
:100B6000F70184A195A140EE5FEF6FEF7FEF21E0E9
:100B70000E943F03DC01CB01B7FD76C0F70184A1E1
:100B800095A164EA71E040E250E00E9432048032B4
:100B9000910509F069C0DD24D394F70184A195A1E2
:100BA00040E050E0BA0121E00E943F03DD2029F03F
:100BB0004B2DB5FE06C081E101C082E08093A30108
:100BC00053C02091BE013091BF01F80133832283CD
:100BD000C090C001D090C101E090C201F090C3016B
:100BE000C482D582E682F782DC01CB018097A1091D
:100BF000B10984879587A687B7878091AF0180FD6B
:100C000002C0BB2021F4F80181818160818344FF0F
:100C100005C0F801148215821682178242FF09C0AE
:100C2000F80184819581A681B78180879187A28709
:100C3000B387F801A08218C000E010E0C8012D962B
:100C40000FB6F894DEBF0FBECDBFDF91CF911F91DD
:100C50000F91FF90EF90DF90CF90BF90AF900895ED
:100C600088E18093A301E8CFF801808187FFE6CF78
:100C7000E3CFCF93DF93EC010E94B303882321F4E9
:100C80008FEF888380E001C08FEFDF91CF910895CF
:100C9000EF92FF920F931F93CF93DF93CDB7DEB701
:100CA0002C970FB6F894DEBF0FBECDBF8C01CE01DE
:100CB00001960E94B0011C86C80164EA71E0AE0191
:100CC0004F5F5F4F2BE00E946B0318163CF5E090DE
:100CD000BE01F090BF0185EE8093A401F80184A1CC
:100CE00095A140EE5FEF6FEF7FEF21E00E943F03A1
:100CF000DC01CB01B7FD12C0F80184A195A164EA23
:100D000071E040E250E00E94320497FD07C0C80144
:100D1000B7010E947F01880F880B01C08FEF2C96CE
:100D20000FB6F894DEBF0FBECDBFDF91CF911F91FC
:100D30000F91FF90EF9008958F929F92AF92BF9284
:100D4000CF92DF92EF92FF920F931F93CF93DF9397
:100D500000D0CDB7DEB72FE230E03A8329839091FF
:100D6000550197FF71C127EF3FEF30937401209336
:100D700073012FEF3FEF30937601209375011092AE
:100D80007801109277010E94FF0A4C01009709F444
:100D900035C190937C0180937B01FC01838181307C
:100DA00061F0843051F0863041F08B3031F08E307C
:100DB00021F08F3F11F08FE00DC1C40140E050E001
:100DC000BA010E94A30B882309F018C18091C403C3
:100DD000853521F48091C5038A3A11F086E0FAC086
:100DE0008091D1019091D2012091D30120936A0189
:100DF00010926B01A090D401B090D5012091D60142
:100E0000209366012091D7013091D8013093690178
:100E100020936801C090D901D090DA01EE24FF241C
:100E2000C114D104E104F10441F4C090E601D09072
:100E3000E701E090E801F090E9012091DC013091B8
:100E4000DD0130936501209364010E944508082F5D
:100E500009502091640130916501002E02C0220FDB
:100E6000331F0A94E2F73093650120936401E09107
:100E70006A01F0916B01002E02C0EE0FFF1F0A9471
:100E8000E2F7F0936B01E0936A01D501002E02C0F6
:100E9000AA0FBB1F0A94E2F78091660190E0289F99
:100EA0005001299FB00C389FB00C1124AA0EBB1E14
:100EB000409168015091690165E0440F551F6A95A2
:100EC000E1F741505E4F452F552746954A0D5B1D72
:100ED00060E070E0002E04C0CC0CDD1CEE1CFF1C9A
:100EE0000A94D2F7C41AD50AE60AF70ACD01A0E09F
:100EF000B0E08093560190935701A0935801B093AE
:100F00005901C501A0E0B0E080935A0190935B01C4
:100F1000A0935C01B0935D0140935E0150935F012B
:100F20006093600170936101CF010E944508809336
:100F30006C012FEF3FEF082E02C0220F331F0A94DF
:100F4000E2F7209520936D0190916A01392F330FBC
:100F500020E0A901662757FD6095762F40936E012A
:100F600050936F016093700170937101982F975F98
:100F70009093720104C0F594E794D794C7948A952E
:100F8000D2F79601D0926301C0926201FFE0253F43
:100F90003F0710F48CE007C08FEF253F380710F4AF
:100FA00080E101C080E280936701809168019091A7
:100FB0006901009771F0809164019091650100973B
:100FC00041F080916701803221F08C3031F40023B0
:100FD00021F083E18093A30111C01092550185E5B2
:100FE00091E0BE016F5F7F4F42E020E10E94F0047C
:100FF00090937A01809379010097A9F405E511E0B7
:10100000F80184A195A1009711F00E94390681147E
:10101000910419F0C4010E947C0B8FEFF8018083CA
:1010200080E090E002C085E591E00F900F90DF91A5
:10103000CF911F910F91FF90EF90DF90CF90BF90D5
:10104000AF909F908F90089588E18093A3010DE762
:1010500011E0D6CFCF93DF93EC018CA19DA1009737
:1010600031F00E94390687FD0CC01DA21CA28EA182
:101070009FA10E947C0B882321F48FEF888380E05E
:1010800001C08FEFDF91CF9108959C018FE037FD74
:1010900004C0220F331F8150FACF0895259A249857
:1010A000239A229A2A9A81E58CBD81E08DBD08950C
:1010B0001CBC08958EBD0DB407FEFDCF0895181613
:1010C00019062CF0909581959F4F20E00BC02FEFD3
:1010D00009C03EBD0DB407FEFDCF4EB5421729F441
:1010E000019701C03FEF0097A1F78EB50895FC016D
:1010F0006F5F7F4F20E030E040E059E812C0613080
:10110000710521F0819190E0282B392B88E037FF81
:1011100002C024273527220F331F8150C1F76150A9
:101120007040161617065CF3832F86950895CF92AC
:10113000DF92EF92FF920F931F93CF93DF93EC0117
:10114000FB018B010E5F1F4F20E030E040E050E0DC
:10115000BA01C12CB1E2DB2EB0E1EB2EB1E0FB2EE7
:101160001AC02E173F0744F4899190E0A0E0B0E048
:10117000482B592B6A2B7B2B88E0440F551F661F89
:10118000771F70FF04C04C255D256E257F2581509B
:10119000A1F72F5F3F4F201731071CF3452F562F24
:1011A000672F7727CA01DF91CF911F910F91FF9091
:1011B000EF90DF90CF900895CF92DF92EF92FF9261
:1011C0000F931F93CF93DF9300D000D000D0CDB703
:1011D000DEB78F73806489837A836B835C834D83EE
:1011E0008E010F5F1F4FC80165E070E00E94770815
:1011F000880F81608E8323E0F22ED02EE12E8FEFB8
:101200000E945A080D2D1E2D86E0C82EF8018191EE
:101210008F010E945A08CA94C9F78AE090E00E94A0
:101220005F08982F9E7F11F0FA9449F726960FB623
:10123000F894DEBF0FBECDBFDF91CF911F910F910C
:10124000FF90EF90DF90CF9008951F93CF93DF939F
:101250000E944E08CAE0D0E08FEF0E945A08219702
:10126000D9F72A9880E040E050E0BA010E94DC08FB
:101270008FEF0E945A082A9AC4E6D0E02A9887E3A2
:1012800040E050E0BA010E94DC0889E240E050E012
:10129000BA010E94DC08182F8FEF0E945A082A9A80
:1012A00010FD03C01123A1F406C08AE00E942B0C9C
:1012B000219721F70DC02A988BE341E050E060E0D0
:1012C00070E00E94DC08182F8FEF0E945A082A9ABB
:1012D000812FDF91CF911F9108951CBC08956F92CB
:1012E0007F928F929F92AF92BF92CF92DF92EF92B6
:1012F000FF920F931F93CF93DF936B017C01942E8A
:10130000852E39E0CC0CDD1CEE1CFF1C3A95D1F784
:1013100003E02A9881E1B701A6010E94DC08182F9A
:10132000882339F580E197E20E945F088E3F21F023
:101330008823F1F0182F1DC0692C782CC2E0D2E070
:1013400081E090E00E945F08C330D10524F0F301F2
:1013500081933F010AC0C230D10519F4B82EAA24E6
:1013600004C0282F30E0A22AB32A219749F701C0F0
:101370001FEF8FEF0E945A082A9A112351F4892DEA
:10138000982D60E072E00E9497088A159B0521F075
:1013900018E0015009F0BDCF812FDF91CF911F914F
:1013A0000F91FF90EF90DF90CF90BF90AF909F9004
:1013B0008F907F906F9008956F927F928F929F92FF
:1013C000AF92BF92CF92DF92EF92FF920F931F9353
:1013D000CF93DF936B017C01042FB52E842F952FC3
:1013E00060E072E00E949708A82E792E49E0CC0CAC
:1013F000DD1CEE1CFF1C4A95D1F713E02A9888E10A
:10140000B701A6010E94DC08682E882341F58EEF03
:101410000E945A08802E9B2CC2E0D2E0C330D10536
:1014200024F0F40181914F0106C0C230D10511F0C2
:101430008A2D01C0872D0E945A08219779F78AE0EA
:1014400090E00E945F08982F9F71953039F480EFEB
:1014500098ED0E945F08882391F201C0682E8FEFFB
:101460000E945A082A9A662011F0115039F6862DEA
:10147000DF91CF911F910F91FF90EF90DF90CF9070
:10148000BF90AF909F908F907F906F9008956F92D4
:101490007F929F92AF92BF92CF92DF92EF92FF9294
:1014A0000F931F93CF93DF93CDB7DEB760970FB63F
:1014B000F894DEBF0FBECDBF3C01962EF3E0EF2EB9
:1014C0002A9889E040E050E0BA010E94DC08F82E3A
:1014D000882351F580E197E20E945F088E3F21F05A
:1014E000882301F1F82E20C002E110E05E0108948B
:1014F000A11CB11C81E090E00E945F08033011053F
:1015000024F0F50181935F0109C00230110519F43F
:10151000D82ECC2403C090E0C82AD92A015010400C
:1015200049F702C0FF24FA948FEF0E945A082A9AC2
:10153000FF2009F04CC0CE01019660E170E00E94EE
:1015400097088C159D0509F040C0992009F042C00C
:101550004985429546954695437050E0888590E0D0
:10156000880F991F880F991F482B592B8F8190E066
:1015700083709070982F8827990F990F482B592BBB
:101580004F5F5F4F662757FD6095762F8A8590E005
:1015900083709070880F991F2B85221F2227221F8E
:1015A00030E0822B932B02962E812F70820F911D9B
:1015B00004C0440F551F661F771F8A95D2F7F301A9
:1015C000408351836283738305C058E0F52EEA940B
:1015D00009F076CF8F2D60960FB6F894DEBF0FBE60
:1015E000CDBFDF91CF911F910F91FF90EF90DF90D2
:1015F000CF90BF90AF909F907F906F900895CF93C2
:10160000C82F8091900187FD02C088E116C00E941A
:101610002509882341F095E09093A3018F3F09F0BD
:1016200067C081E00AC060E070E0CB0146EC51E0A9
:101630000E946F09882321F085E08093A30158C0A0
:101640008091C403853521F48091C5038A3A11F055
:1016500083E1F3CF8091C6018B3E81F48FEF8093BD
:10166000930110929401109295011092960110929C
:10167000970180E090E0A0E4B0E020C0EC2FF0E023
:1016800084E0EE0FFF1F8A95E1F7EC57FC4F848151
:10169000882311F482E0D1CF809393014085518556
:1016A00062857385409394015093950160939601F0
:1016B0007093970184859585A685B7858093980159
:1016C00090939901A0939A01B0939B018FEF9FEFA4
:1016D000DC0180939C0190939D01A0939E01B093A7
:1016E0009F01109291011092900180E991E002C057
:1016F00080E090E0CF910895CF93DF93EC01898152
:101700008823C9F08C859D85AE85BF854C815D8120
:101710006E817F81840F951FA61FB71FBC01CD016D
:1017200046EC51E00E94DC09882329F085E0809393
:10173000A3018FEF05C00E946D098FEF888380E0C1
:10174000DF91CF910895CF92DF92EF92FF92CF93E6
:10175000DF93EC016A017B014C855D856E857F8599
:101760004C155D056E057F0569F18981882389F037
:101770008C819D81AE81BF81840F951FA61FB71FED
:10178000BC01CD0146EC51E00E94DC09882389F4BC
:1017900019828C819D81AE81BF818C0D9D1DAE1DF6
:1017A000BF1DBC01CD0146EC51E00E946F098823AA
:1017B00029F085E08093A3018FEF05C0CC86DD86FC
:1017C000EE86FF8680E0DF91CF91FF90EF90DF9073
:1017D000CF900895CF92DF92EF92FF92CF93DF9355
:1017E000EC016A017B014C855D856E857F854C151A
:1017F0005D056E057F05E1F089818823A9F08C8164
:101800009D81AE81BF81840F951FA61FB71FBC01AC
:10181000CD0146EC51E00E94DC09882329F085E0E7
:101820008093A3018FEF07C0CC86DD86EE86FF860E
:1018300081E0898380E0DF91CF91FF90EF90DF908E
:10184000CF90089505C090E19A95F1F700C08150BE
:101850008823C9F70895CF93C82F04C084E10E945C
:10186000220CC150CC23D1F7CF910895EF92FF9273
:101870000F931F93CF93DF93CDB7DEB769970FB662
:10188000F894DEBF0FBECDBFDE011196E0E0F1E0BF
:1018900089E001900D928150E1F7DE011A96E9E0AE
:1018A000F1E08DE001900D928150E1F7FE01779615
:1018B00083E0DF011D928A95E9F780E895E20E94B6
:1018C000530081E088B987B18F6187B95A9A529ADB
:1018D0002A9A229A5B98539A80E00E949C0600976D
:1018E00049F45B9A82E30E942B0C5B9882E30E948E
:1018F0002B0CF7CF419A87EE9CE390937E01809367
:101900007D018CE594E69093A1018093A00185E58B
:1019100091E0BE016F5F7F4F48E120E00E94F0043C
:101920009093C5018093C401009739F0FC01808138
:10193000992787FD909597FF09C05B9A82E30E94E3
:101940002B0C5B9884E60E942B0CF7CF429A01E0A7
:1019500010E024E130E0829F7001839FF00C929FA1
:10196000F00C112489E191E0E80EF91E0330110515
:1019700010F05A9A01C05A980E9462008A87C701E3
:10198000BE01665F7F4F41E050E00E9432041816AE
:1019900019064CF05B9A84E60E942B0C5B9882E35C
:1019A0000E942B0CF7CF0F5F1F4F97E0013D1907E7
:1019B000E9F6439AC7010E94390687FF09C05B9A7E
:1019C00084E60E942B0C5B9884E60E942B0CF7CFD8
:1019D000449A85E591E00E942A0887FF09C05B9A36
:1019E00088EC0E942B0C5B9888EC0E942B0CF7CFA4
:1019F00081E088B95B9A80E090E069960FB6F89430
:101A0000DEBF0FBECDBFDF91CF911F910F91FF9031
:101A1000EF9008959111089581568A5108F48052EB
:101A200085580895FB01DC0102C001900D924150E0
:101A30005040D8F70895FB01DC014150504030F090
:101A40008D910190801919F40020B9F7881B990B2A
:061A50000895F894FFCF99
:101A5600746573742E7478740030313233343536CD
:101A66003738390D0A00000000FF000000000000B2
:101A760000000000000000000000000000FF000061
:101A86000000000000000000000000000000000050
:101A960000FF000000000000000000000000000041
:101AA6000000000000FF0000000000000000000031
:101AB6000000000000000000000000000000000020
:101AC60000000000000000000000000000213C2291
:101AD6002A2B2C2E2F3A3B3C3D3E3F5B5C5D7C0027
:101AE600FF000000000000000000000000000000F1
:00000001FF
